:020000040800F2
:100000008808002001010008ED430008BF31000806
:10001000E9430008E30F0008B14D000800000000AC
:100020000000000000000000000000007145000812
:10003000E110000800000000454500085147000895
:100040001B0100081B0100081B0100081B01000820
:100050001B0100081B0100081B0100081B01000810
:10006000E31000081B0100081B0100081B01000829
:100070001B0100081B0100081B0100081B010008F0
:100080001B0100081B0100081B0100081B010008E0
:100090001B0100081B0100081B0100081B010008D0
:1000A0001B0100081B0100081B0100081B010008C0
:1000B0001B010008C14700081B0100081B010008C4
:1000C0001B0100081B0100081B0100081B010008A0
:1000D0001B0100081B0100081B010008A14D0008BE
:1000E0001B0100081B0100081B010008DFF80CD0F1
:1000F00000F0EAFC00480047816100088808002001
:100100000648804706480047FEE7FEE7FEE7FEE7B1
:10011000FEE7FEE7FEE7FEE7FEE7FEE7BF47000873
:10012000ED000008202A04DB203A21FA02F0002129
:10013000704721FA02F3D040C2F1200291400843F7
:1001400019467047D2B201E000F8012B491EFBD2DC
:1001500070470022F6E710B513460A4604461946D2
:10016000FFF7F0FF204610BD10B5002200E0521C42
:10017000835C8C5CA34201D1002BF8D1D8B2E1B2F0
:10018000401A10BD30B504460020034600E05B1C59
:10019000934203D2E05CCD5C401BF8D030BD000040
:1001A00070B50F4D00B92868002412E00A4602E03D
:1001B0009E4203D0521C1378002BF9D1DAB22243AD
:1001C00005D02BB124B1002100F8011B04E0044646
:1001D000401C0678002EE9D12860204670BD000042
:1001E0007001002070B5064604F028FE046805463C
:1001F0000A220021304600F05FFB2C6070BDF0B495
:1002000080EA0102D40F4200B2EB410F02D2024653
:10021000084611464A0042D0C30DDDB2C1F3C752B1
:10022000AD1A202D35DAC1F3160141F4000204B1F4
:100230005242C5F1200602FA06F12A411044B3EBFE
:10024000D05F23D0C4B1012DA0EBC35009DCF0BCBA
:100250004FF0004202EAC352DBB200F5000000F0AA
:100260006CBB400000F1807000EBC350A0F18070C7
:1002700040EAD170490009E0490841EAC071A0EBA9
:10028000C35000F50000400800EBC350F0BC00F084
:100290004BBB6142012202EB4101001BF6E7F0BCBF
:1002A000704781F00041AAE780F00040A7E780EAAC
:1002B000010210B502F00043400022D04A001FD0D6
:1002C000010E01EB1261C0F35600C2F3560240F476
:1002D000000042F40002A0FB022000047F39140455
:1002E00000D0401C50EA124001D44000491EC2B266
:1002F0000C0604EBD010401C4008802A02D003E01A
:10030000002010BD20F00100002900DA0020184371
:1003100010BD30B480EA010202F0004530F0004226
:1003200021F0004013D090B1C30DD40DC2F31601DB
:10033000C0F31600E41A41F4000140F400027D34D9
:10034000914201D3641C00E04900002C02DA30BC69
:10035000002070474FF400000023914201D3891A16
:10036000034340084FEA4101F7D151B1914202D114
:100370004FF0004105E002D24FF0010101E06FF0C3
:10038000010103EBC450284430BC00F0CDBA2DE984
:10039000FE4F804681EA0300C00F0C46009021F01A
:1003A000004123F00045B8EB0200A94105D24046C8
:1003B000214690461C460B46024623F0004010435F
:1003C00047D0270DC7F30A00C3F30A510290401A21
:1003D000019040286BDAC3F3130040F4801B0098AF
:1003E000924620B10023D2EB030A63EB0B0B01987A
:1003F0005946C0F14002504600F0EEF906460D465F
:1004000050465946019A00F0F6F910EB0800614198
:10041000002487EA115284EAE7731A4340D0009A15
:1004200062B3019A012A4FEA075215DC001B61EB07
:1004300002014FF0004202EA0752CDE90042001CDF
:1004400041F5801132462B4600F0EFFA03B0BDE8CB
:10045000F08F40462146F9E7001B61EB0201001CCA
:1004600041F5801300185B412018A2F5001747EBF7
:10047000030140EAD570B6196D4111E06D084FEAED
:10048000360645EAC0754FEA0752001B61EB0201D0
:10049000001C41F5801149084FEA30000019514114
:1004A00032462B4603B0BDE8F04F00F0AFBA0098DB
:1004B000012240000023D0EB020263EBE0730098BE
:1004C00021464FEAE074B8EB000061EB0401E9E774
:1004D00083F000435BE781F0004158E72DE9FE4FD0
:1004E00081EA030404F0004421F0004100944FF03D
:1004F000000B23F0004350EA01045ED052EA0304EB
:100500005BD0C3F30A54C1F30A552C44A4F2F3346C
:100510000194A0FB0254C1F3130141F48011C3F311
:10052000130343F4801301FB024400FB034E840ACF
:10053000970A44EA815447EA8357A4FB0768029567
:100540008D0A05FB07854FEA932C04FB0C54270505
:10055000029D4FEA065847EA1637B5EB08056EEBE1
:10056000070C870E920E47EA811742EA8312A7FB17
:100570000201B6EB0B0164EB00042B0D43EA0C33D4
:100580005E1844EB1C50DA465146E7FB0201C5F306
:1005900013044FEA0B3343EA14534FEA0432019C2D
:1005A00043EA0603A4F10C040294009CCDE900B4D4
:1005B00000F03BFA03B0BDE8F08F00200146F9E7F8
:1005C0002DE9F04D81EA030404F0004B21F00045D1
:1005D00014464FF0000A23F0004150EA050220D0F3
:1005E00054EA01021DD0C5F30A570246C5F31303AE
:1005F000C1F31300C1F30A5640F4801543F480138D
:10060000A7EB0608101BD64608F2FD3873EB050071
:1006100002D308F1010801E092185B41B8F1000F24
:1006200003DA00200146BDE8F08D00204FF4801170
:10063000064684460EE0171B73EB050705D3121B15
:1006400063EB050306434CEA010C49084FEA30000E
:1006500092185B4150EA0107EDD152EA030012D033
:1006600082EA040083EA0501084305D0101BAB4170
:1006700006D20122002306E000224FF0004302E0F0
:100680006FF0010253101AEB06004CEB085110EB0F
:100690000A0041EB0B01BDE8F04D00F0B7B9C10F06
:1006A00080EAE0700844CA079623002100F045B9AB
:1006B00096230022114600F040B90EB5C10F80EA22
:1006C000E0700844CA07002140F233438DE80E0071
:1006D0000A460B4600F0A9F903B000BD0EB540F282
:1006E000334102910021CDE900110A460B4600F08A
:1006F0009CF903B000BD00F0004220F00040C10DA5
:10070000C0F3160040F400007F2901DA0020704792
:10071000962903DCC1F19601C84001E09639884072
:10072000002AF4D04042704720F00040C10DC0F3D1
:10073000160040F400007F2901DA00207047962956
:1007400003DCC1F19601C840704796398840704774
:1007500000F0004230F000400AD0C10D01F5607198
:10076000C0F3160042EA0151C20840071143704726
:1007700000200146704701F0004330B421F00041F1
:1007800050EA010206D00A0DA2F56072C1F313010E
:10079000002A02DC30BC00207047440F44EAC10448
:1007A000C100E01830BC00EBC25000F0BDB8000042
:1007B000002801DBC0F10040002901DBC1F100414C
:1007C00081427047002801DBC0F10040002901DBB5
:1007D000C1F1004188427047202A04DB203A00FA28
:1007E00002F1002070479140C2F1200320FA03F388
:1007F000194390407047202A06DBCB17203A41FA74
:1008000002F043EAE07306E041FA02F3D040C2F19D
:100810002002914008431946704700000FB400239E
:1008200000B589B00CA900910B996FF00042CB6024
:100830001E4B06931E4B07930423CDE901321D4A3C
:10084000089202466B46002000F0F2F909B05DF80C
:1008500014FB70B586B006464FF0FF300091CDE92D
:100860000101002015460C4604903246694604A852
:10087000FFF7D4FF02460498211825B108B10846B5
:1008800000E020462860049800280DD0002A02DDF0
:100890000098884208D0081B0094CDE90104324634
:1008A000694604A8FFF7BAFF06B070BD690E0008DC
:1008B000870E0008F50A00082DE9F04791460F461B
:1008C00080460446002614F8015B2DB100F00EF9B5
:1008D0000068405DC007F6D12B2D02D02D2D18D019
:1008E000641E4A463946204600F0DEFA27B13968D0
:1008F000A14201D1C7F8008071054FF002040BD569
:100900004042002803DD04F099FA0460A007BDE826
:10091000F08746F48066E4E70028F8DA04F08EFAFF
:1009200004606FF00040F2E70029A8BF7047401C48
:10093000490008BF20F00100704710B4B0FA80FCF5
:1009400000FA0CF050EA010404BF10BC704749B132
:10095000CCF1200421FA04F411FA0CF118BF0121A2
:1009600021430843A3EB0C01CB1D4FEA00614FEA82
:10097000102042BF002010BC704700EBC350104451
:100980000029A4BF10BC7047401C490008BF20F0DC
:10099000010010BC7047420005D0C0F3C75252425C
:1009A000914201DC0020704700EBC1507047F0B469
:1009B000002802DCF0BC00207047C0F3C751C0F330
:1009C000160040F40000CA0701D14000491E3F2232
:1009D00002EB6105002211464FF4000626FA01F3EE
:1009E0001344D418844201D8001B1A464000491C05
:1009F0001729F3DD5100814202D24FF0FF3100E0B0
:100A0000002102EBC550F0BCFFF78EBF10B5141EDD
:100A100073F1000408DA401C41F1000192185B41B7
:100A20001A4301D120F0010010BD2DE9F04D92468E
:100A30009B4611B1B1FA81F202E0B0FA80F22032A5
:100A40009046FFF7C9FE04460F4640EA0A0041EA15
:100A50000B0153465A46084313D0114653EA01008E
:100A600019D0C8F140025046FFF75CFB05460E4620
:100A7000504659464246FFF7AFFE084305D00120D5
:100A800004E020463946BDE8F08D0020054346EAE3
:100A9000E0762C4337430A986305E40AA0EB08008C
:100AA0000022FD0A44EA47540A3002D500200146DC
:100AB000E9E7010510196941DDE9084500196941B7
:100AC000BDE8F04DA2E70000064C074D06E0E068E7
:100AD00040F0010394E8070098471034AC42F6D385
:100AE000FFF708FBB87C0008D87C00080048704776
:100AF000B47C000810B50446FFF7F8FF0068005DFD
:100B000000F0010010BD00002DE9FF4F087883B010
:100B10009946FF2805D0491C2D2804D00024002028
:100B200008E000200BE00124F9E700EB800003EB74
:100B30004000491C0B78FF2BF7D104B14042002341
:100B40000293147819461D462D2C01D02B2C04D16C
:100B5000521C2D2C13D000240294AA461478FF2C8A
:100B60000FD00A25A3FB057801FB05814FF0000C8F
:100B700003FB0C11521CE3194AEB0101EEE70124BF
:100B8000EAE7814453EA010002D019F5C87F06DA8A
:100B900003980021C0E9001107B0BDE8F08F0025DF
:100BA000AE4E2F46DFF8B882184600F0F1F9CDE9D5
:100BB0000001B9F1000002DAC9F1000400E00446C6
:100BC0000023A74A1AEB030B42EB045A12E0E0079A
:100BD00007D02A46334638464146FFF77FFC074692
:100BE00088462A46334610461946FFF777FC0546E5
:100BF0000E466410002CEAD1DDE90001B9F1000FC6
:100C00005A46534606DAFFF7DBFC3A464346FFF7FF
:100C1000D7FC05E0FFF762FC3A464346FFF75EFC6F
:100C2000029A0AB181F00041039AC2E90001B3E7D8
:100C30002DE9FF4F1F468DB0D7E901464FF0FF3831
:100C40002E2045464FF000090B90B9696D1C0E9897
:100C50008847396A824688470028F6D1BAF1FF3FB3
:100C60000AD024F4D064002E11DDBAF12B0F08D085
:100C7000BAF12D0F0BD102E0404611B08DE744F4DC
:100C80008064B9696D1C0E9888478246761E694655
:100C9000600501D52D2000E02B208DF8000001F12A
:100CA000010B0DF1200809E0B9696D1C0E98884709
:100CB00082460F9844F40074761E0560002E02DD13
:100CC000BAF1300FF0D00B998A453ED144F0800440
:100CD00006E00F99681CA9F1010944F4007408604A
:100CE000B9696D1C761E0E98884782463028F0D070
:100CF0002BE00B998A4505D1200603D444F08004EB
:100D0000761E18E0504604F029F908B30DF11301DE
:100D1000761E44F400748B4508D2AAF130000BF81B
:100D2000010B200607D5A9F1010003E0200602D43B
:100D300009F101008146A00502D50F99681C0860E1
:100D4000B9696D1C0E9888478246002ED1DC53E0AD
:100D5000002E51DDBAF1650F02D0BAF1450F4BD12B
:100D6000A00549D5B9696D1C24F44074761E0E980F
:100D700088478246002E0CDD2B2804D0BAF12D0FB7
:100D800007D144F48074B9696D1C0E988847824677
:100D9000761EE00501D52D2100E02B2108F8011B6E
:100DA000CDF82C8021E00DF12901761E44F4007469
:100DB00088450CD2AAF1300010F0FF0088F800003E
:100DC00002D10B99884509D908F1010806E0E00530
:100DD00001D5244801E042F20F708146B9696D1CCB
:100DE0000E98884782460F980560002E04DD504615
:100DF00004F0B4F80028D6D1F9690E988847FF208E
:100E00008BF8000088F800000020069007904B4601
:100E10006A4608A906A8FFF777FEA00502D46FF07E
:100E200001002AE714F0240F0AD0E00714D1DDE90D
:100E300006123868031D3B600068C0E900120BE031
:100E4000DDE90601FFF797FC0146E00704D13868A9
:100E5000021D3A600068016028460EE70000144059
:100E60000000F03FF1D8FFFF426842B1016811F87D
:100E7000013B23B1521EC0E9001218467047012100
:100E8000C160881E704742685AB1C368016843B99F
:100E900083688B4205D0491E521CC0E90012002015
:100EA00070474FF0FF3070472DE9F05F82460078C1
:100EB000002715468B460AF10104B946302801D0B7
:100EC0009DB113E014F8010B0127782803D05828AE
:100ED00001D045B10AE00DB1102D07D10027102532
:100EE00014F8010B02E0082500E00A250026B046B0
:100EF0000EE005FB080005FB06F1012701EB10469B
:100F00001FFA80F8B6F5803F00D3B94614F8010BFC
:100F1000294600F02FF80028EBDABBF1000F05D0CE
:100F20000FB1641E00E05446CBF80040B9F1000F49
:100F300006D003F083FF02210160C81EBDE8F09FC8
:100F400048EA0640FAE770B521F0004303430CD0AD
:100F5000C1F30A550024D5EB040564EB0403D6174E
:100F6000AD1AB34102DB0020014670BD201841EBF1
:100F7000025170BD3A2800D2303820F02002412AB8
:100F800001D3A2F13700884201D34FF0FF30704700
:100F90000EB540F2334202920022CDE90022134600
:100FA000FFF743FD03B000BD30B58C1810F8012BDE
:100FB00012F00F0301D110F8013B120906D110F80D
:100FC000012B03E010F8015B01F8015B5B1EF9D116
:100FD00001E001F8013B521EFBD1A142E6D3002003
:100FE00030BD00BFFEE7000010B502F0A5FC34489C
:100FF0003449C86002F07AFC324908610869324914
:10100000FFF7E0FB05D32F4908693049FFF7D0FB14
:1010100004D20021084602F0EFFB10BD294803F07E
:1010200023FA2849886AFFF766FB404200B2284944
:1010300008802849B1F9000000EBD071244A1288D9
:1010400002EB610109B2244A11802249B1F9000082
:1010500000EBD0711E4A1288A2EB610109B21F4A4F
:1010600011801D48B0F90000642802DD64201A498F
:1010700008801948B0F9000010F1640F03DA6FF02E
:101080006300154908801548B0F90000642802DDA6
:101090006420124908801148B0F9000010F1640F73
:1010A00003DA6FF063000D4908800C48B0F90010B6
:1010B0000948B0F9000002F09FFB00BFADE7000057
:1010C000CDCC4CBEF400002000004842000048C2D5
:1010D000DA000020DC000020D6000020D80000202C
:1010E000704710B5042000F0EDF810BD72B600BFD7
:1010F000FEE70146002291F82100022808D00420D2
:10110000886300BF002081F8200000BF01207047E5
:101110000868006820F00E000B6818600868006816
:1011200020F001000B68186091F8403001209840D1
:10113000CB6B5860012081F8210000BF002081F8AE
:10114000200000BF1046E2E770B50446002594F881
:101150002100022803D00420A063012548E0206874
:10116000006820F00E00216808602068006820F008
:101170000100216808601F492068884201D10120D0
:1011800026E01C4914312068884201D110201FE05C
:10119000184928312068884201D1801518E0154986
:1011A0003C312068884201D1801411E0114950314E
:1011B0002068884202D14FF4803009E00D49643143
:1011C0002068884202D14FF4801001E04FF0807017
:1011D000084908394860012084F8210000BF002038
:1011E00084F8200000BF606B10B12046616B884717
:1011F000284670BD0800024070B5044600F00EFAA3
:1012000006462546681C10B104480078054400BF16
:1012100000F004FA801BA842FAD370BD68010020D8
:1012200070B5044600F078FD0749B0FBF1F000FB13
:1012300004F54FF0E020866900BF4FF0E0208069A0
:10124000301AA842F9D370BD40420F002DE9F04793
:1012500082460421144800F0D3F9012807D1002068
:10126000124909684862114801F0D4F81AE00F48A1
:1012700001F042F90D480068406A0D4908800846AF
:101280000088FFF72BFA80460A4A0B4BFFF726F936
:1012900006460022094BFFF793F90446FFF76BFA65
:1012A00007490860BDE8F08700080140AC03002052
:1012B000500000209CC420B07268913F000059404B
:1012C0005400002010B5044604480068204020B1B6
:1012D000024804602046FFF7B9FF10BD1404014026
:1012E0002DE9F8470346002294466EE14FF00108CD
:1012F00008FA02F4D1F8008008EA0400A0427DD187
:10130000DFF8DCA2D1F80480A8EB0A09D0453AD076
:1013100014DCB8F1030F50D009DCB8F1000F31D064
:10132000B8F1010F1CD0B8F1020F49D120E0B8F19B
:10133000110F18D0B8F1120F42D11EE0B9F5881F75
:1013400025D006DCB9F5803F20D0B9F5801F37D114
:101350001AE0B9F5001F18D0B9F5041F30D117E015
:10136000D1F80CC02DE0D1F80C8008F1040C28E075
:10137000D1F80C8008F1080C23E0D1F80C8008F1BA
:101380000C0C1EE000BF00BF00BF00BF00BF00BFCD
:10139000D1F80880B8F1000F02D14FF0040C0BE037
:1013A000D1F80880B8F1010F03D14FF0080C1C618F
:1013B00002E04FF0080C5C6103E04FF0000C00E02D
:1013C00000BF00BFFF2801D8984601E003F10408E0
:1013D0004646FF2802D84FEA820803E0A2F1080837
:1013E0004FEA88084746D6F800804FF00F0909FAFF
:1013F00007F928EA09080CFA07F900E088E048EA4A
:101400000908C6F80080D1F8048008F08058B8F1C7
:10141000805F7DD100BFDFF8CC81D8F8188048F01C
:101420000108DFF8C091C9F81880C846D8F81880BC
:1014300008F00108CDF8008000BF00BF4FEAB938BE
:101440004FEA920958F829504FEA82784FEA187902
:101450004FF00F0808FA09F825EA0805DFF8888137
:10146000434502D14FF0000816E0DFF88081434584
:1014700002D14FF001080FE0DFF87481434502D13B
:101480004FF0020808E0DFF86C81434502D14FF0CD
:10149000030801E04FF004084FEA82794FEA197916
:1014A00008FA09F848EA0505DFF84C814FEA920985
:1014B00048F82950D1F8048008F48018B8F5801F46
:1014C0000AD1DFF83881D8F8008048EA0008DFF850
:1014D0002C91C9F8008009E0DFF82081D8F800805D
:1014E00028EA0008DFF81491C9F80080D1F80480D8
:1014F00008F40018B8F5001F10D1DFF8008108F1DA
:101500000408D8F8008048EA0008DFF8F09000E00E
:101510005AE009F10409C9F800800DE0DFF8DC8029
:1015200008F10408D8F8008028EA0008DFF8CC9019
:1015300009F10409C9F80080D1F8048008F40038E2
:10154000B8F5003F0ED1DFF8B480A8F10408D8F850
:10155000008048EA0008DFF8A490A9F10409C9F85E
:1015600000800DE0DFF89480A8F10408D8F800802E
:1015700028EA0008DFF88490A9F10409C9F800807E
:10158000D1F8048008F48038B8F5803F0ED1DFF838
:101590006C80A8F10808D8F8008048EA0008DFF855
:1015A0005C90A9F10809C9F800800DE0DFF84C80D3
:1015B000A8F10808D8F8008028EA0008DFF83C9075
:1015C000A9F10809C9F80080521CD1F8008028FA56
:1015D00002F8B8F1000F7FF489AEBDE8F88700008B
:1015E000000011100010024000080140000C0140F2
:1015F00000100140001401400800014008040140AF
:10160000024693680B400BB1012000E000207047B8
:101610000AB1016101E00B040361704701480068F1
:10162000704700006001002070B504460CB901202D
:1016300070BD94F83D0028B9002084F83C00204695
:1016400000F08CF9242084F83D002068006820F028
:101650000100216808602068006840F400402168AB
:1016600008602068006820F400402168086000F0ED
:1016700059FB05465C496068884206D85B4885424C
:1016800001D2012007E0002005E05948854201D23F
:10169000012000E00020012800D1C9E75548B5FB32
:1016A000F0F62068406820F03F0030432168486031
:1016B0004D496068884201D8701C07E04FF496706D
:1016C00070434FF47A71B0FBF1F0401C2168096A55
:1016D00021F03F010843216808624349606888425D
:1016E00014D8681E61684900B0FBF1F0401CC0F3DB
:1016F0000B00042801D204203DE0681E6168490007
:10170000B0FBF1F0401CC0F30B0034E0A06838B926
:10171000681E616801EB4101B0FBF1F0401C0AE07A
:10172000681E616801EBC10202EB0111B0FBF1F030
:10173000401C40F48040C0F30B0008B901201AE0BF
:10174000A06848B9681E616801EB4101B0FBF1F087
:10175000401CC0F30B000CE0681E616801EBC10285
:1017600002EB0111B0FBF1F0401CC0F30B0040F4A0
:10177000804040F400402168C9694CF6FF729143F3
:1017800008432168C861D4E9070108432168096852
:1017900021F0C001084321680860D4E90310084320
:1017A0002168896848F2FF329143084321688860C4
:1017B000D4E9050108432168C96821F0FF01084305
:1017C0002168C8602068006840F001002168086056
:1017D00000202064202084F83D000020206384F84D
:1017E0003E0000BF24E70000A086010080841E00A8
:1017F00000093D0040420F002DE9FC5F04460F4602
:1018000090469946DDE90CAB0E9EFFF707FF0546B3
:1018100094F83D0020287DD1192301224D4920460E
:10182000009501F090FD10B10220BDE8FC9F00BFC3
:1018300094F83C00012801D10220F6E7012084F849
:101840003C0000BF2068006800F0010028B9206853
:10185000006840F00100216808602068006820F4FA
:10186000006021680860212084F83D00402084F851
:101870003E0000202064C4F824A0A4F82AB0608DA3
:1018800020853548E0624B46424639462046CDE940
:10189000006501F0B5FC08B10120C6E731E02A4639
:1018A0003146204601F02BFE50B1206C042805D1B2
:1018B0002068006840F40070216808600120B4E7E7
:1018C000606A007821680861606A401C6062208D4F
:1018D000401E2085608D401E608520684069C0F3F1
:1018E000800070B1208D60B1606A00782168086165
:1018F000606A401C6062208D401E2085608D401E05
:101900006085208D0028CAD12A463146204601F044
:10191000E7FC00E01CE050B1206C042805D12068F1
:10192000006840F400702168086001207DE72068AD
:10193000006840F4007021680860202084F83D00B1
:10194000002084F83E0000BF84F83C0000BF6CE734
:1019500002206AE7020010000000FFFF10B586B009
:101960000446002002900390049005901A492068D4
:1019700088422FD100BF1948806940F008001749FC
:1019800088610846806900F00800019000BF00BF30
:101990004FF440700290122003900320059002A99A
:1019A0000F48FFF79DFC00BF0E49486840F0E0601B
:1019B00040F00200486000BF00BF0848C06940F422
:1019C00000100649C8610846C06900F40010019083
:1019D00000BF00BF06B010BD005400400010024020
:1019E000000C0140000001400348006803490978E9
:1019F0000844014908607047600100206801002028
:101A000010B50848006840F010000649086003203F
:101A100000F0A8F8002000F007F800F02BF80020F4
:101A200010BD00000020024070B504460E4800784A
:101A30004FF47A71B1FBF0F00C490968B1FBF0F595
:101A4000284600F0F9FB08B1012070BD102C07D228
:101A500000222146501E00F047F80548046001E0CE
:101A60000120F2E70020F0E7680100206C0100206F
:101A70006401002008B500BF1148806940F00100F2
:101A80000F4988610846806900F00100009000BF9E
:101A900000BF00BF0846C06940F08050C8610846DA
:101AA000C06900F08050009000BF00BF00BF054932
:101AB000486820F0E06040F00070486000BF08BD5A
:101AC000001002400000014001460846002809DBE2
:101AD00000F01F0301229A4043099B0003F1E02319
:101AE000C3F8002100BF70472DE9F05F80460D4626
:101AF0001646002703F086F9074639462A4633463C
:101B000001F00700C0F1070ABAF1040F02D94FF043
:101B1000040A01E0C0F1070AD14600F1040ABAF153
:101B2000070F02D24FF0000A01E0A0F1030AD446E9
:101B30004FF0010A0AFA09FAAAF1010A0AEA020AAE
:101B40000AFA0CFA4FF0010B0BFA0CFBABF1010B8C
:101B50000BEA030B4AEA0B042146404603F05AF90C
:101B6000BDE8F09F00BF00F00702064B19684FF672
:101B7000FF031940044B0B4343EA0221014B196058
:101B800000BF70470CED00E00000FA0570B5044698
:101B90000D460CB9012070BD5A48006800F00700DE
:101BA000A8420ED25748006820F007002843554944
:101BB00008600846006800F00700A84201D0012034
:101BC000E9E7207800F0020002281DD1207800F01B
:101BD0000400042805D14C48406840F4E0604A49BC
:101BE0004860207800F00800082805D14648406881
:101BF00040F46050444948604348406820F0F00099
:101C0000A168084340494860207800F0010078B39B
:101C10006068012806D13C48006800F4003090B9A3
:101C20000120B8E76068022806D13748006800F054
:101C3000007040B90120AEE73348006800F00200B0
:101C400008B90120A7E73048406820F00300616828
:101C500008432D494860FFF7E1FC064609E0FFF71D
:101C6000DDFC801B41F28831884202D9032092E7D3
:101C700007E02548406800F00C006168B0EB810F78
:101C8000EDD12048006800F00700A8420ED91D4899
:101C9000006820F0070028431A49086008460068D9
:101CA00000F00700A84201D0012074E7207800F07E
:101CB0000400042807D11448406820F4E060E1687B
:101CC000084311494860207800F00800082808D12E
:101CD0000D48406820F46050216940EAC1000A497B
:101CE000486000F03FF808494968C1F30311074A0A
:101CF000515CC8400649086006480068FFF794FE3A
:101D0000002048E70020024000100240747B0008D9
:101D10006C01002064010020014800687047000049
:101D20006C01002000B5FFF7F7FF04494968C1F3D3
:101D30000221034A515CC84000BD0000001002406F
:101D4000847B000800B5FFF7E7FF04494968C1F349
:101D5000C221034A515CC84000BD0000001002408F
:101D6000847B000870B5002100220024002300209D
:101D7000134D696801F00C05F5B1042D02D0082D52
:101D800019D101E00F4819E00F4DC1F38346AB5D57
:101D900001F4803555B10A4D6D68C5F340450B4ED1
:101DA000725D084D5D43B5FBF2F402E0084D03FBA4
:101DB00005F4204602E000BF024800BF00BF70BD2E
:101DC0000010024000127A00627B0008727B00085B
:101DD00000093D00F8B504460CB90120F8BD207893
:101DE00000F00100002878D0F848406800F00C00AE
:101DF00004280CD0F548406800F00C00082811D1E8
:101E0000F248406800F48030B0F5803F0AD1EF48D6
:101E1000006800F4003000285FD0606800285CD1C2
:101E20000120DBE700BF6068B0F5803F06D1E748DE
:101E3000006840F48030E549086028E0606858B9DF
:101E4000E248006820F48030E049086008460068F5
:101E500020F4802008601AE06068B0F5A02F0BD154
:101E6000DA48006840F48020D849086008460068D5
:101E700040F4803008600AE0D448006820F48030E4
:101E8000D24908600846006820F48020086000BF3E
:101E9000606888B1FFF7C2FB054606E0FFF7BEFBAE
:101EA000401B642801D9032098E7C848006800F463
:101EB00000300028F2D010E0FFF7B0FB054606E046
:101EC000FFF7ACFB401B642801D9032086E7BF481D
:101ED000006800F400300028F2D1207800F0020001
:101EE000022857D1B948406800F00C0050B1B748FB
:101EF000406800F00C00082818D1B448406800F48D
:101F0000803098B9B148006800F0020020B1206923
:101F1000012801D0012061E7AC48006820F0F800FA
:101F2000616940EAC100A949086033E02069E8B16D
:101F30000120A7490860FFF771FB054606E0FFF79F
:101F40006DFB401B022801D9032047E79F4800682A
:101F500000F002000028F2D09C48006820F0F80051
:101F6000616940EAC1009949086013E0002098497E
:101F70000860FFF753FB054606E0FFF74FFB401BE9
:101F8000022801D9032029E79048006800F00200E8
:101F90000028F2D1207800F0080008282DD1A0698F
:101FA000B8B101208B490860FFF738FB054606E011
:101FB000FFF734FB401B022801D903200EE78348BA
:101FC000406A00F002000028F2D0012002F0BCFAC2
:101FD00013E000207F490860FFF720FB054606E07C
:101FE000FFF71CFB401B022801D90320F6E67748C7
:101FF000406A00F002000028F2D1207800F00400CE
:10200000042873D100277148C06900F0805070B96E
:1020100000BF6E48C06940F080506C49C8610846F6
:10202000C06900F08050009000BF00BF01276A48DF
:10203000006800F48070B0B96748006840F48070B0
:1020400065490860FFF7EAFA054606E0FFF7E6FA99
:10205000401B642801D90320C0E65F48006800F4F3
:1020600080700028F2D000BFE068012806D15748F0
:10207000006A40F001005549086227E0E06858B95D
:102080005248006A20F00100504908620846006A80
:1020900020F00400086219E0E06805280BD14B48E5
:1020A000006A40F00400494908620846006A40F0AE
:1020B000010008620AE04548006A20F00100434937
:1020C00008620846006A20F00400086200BFE06869
:1020D000A0B1FFF7A3FA054609E0FFF79FFA401BFE
:1020E00041F28831884202D9032077E622E037485E
:1020F000006A00F002000028EFD012E0FFF78EFA2D
:10210000054608E0FFF78AFA401B41F28831884211
:1021100001D9032062E62D48006A00F00200002881
:10212000F0D1012F05D12948C06920F080502749FE
:10213000C86100BFE069C8B32448406800F00C00E3
:10214000082860D0E069022848D1002020490866AC
:10215000FFF764FA054606E0FFF760FA401B022825
:1021600001D903203AE61948006800F00070002801
:10217000F2D1206AB0F5803F07D11448406820F4BE
:102180000030A168084311494860D4E908010843B8
:102190000E49496821F4741108430C494860012034
:1021A0000B490866FFF73AFA054607E03DE0FFF7FE
:1021B00035FA401B022801D903200FE603480068C6
:1021C00000F000700028F2D02FE000000010024064
:1021D0000000424280044242007000400020144946
:1021E0000866FFF71BFA054606E0FFF717FA401BE3
:1021F000022801D90320F1E50E48006800F00070C4
:102200000028F2D111E0E069012800D1E6E5094893
:10221000466806F48031206A814204D106F47011C8
:10222000606A814201D00120D8E50020D6E5000097
:10223000000042420010024070B504462546681E68
:10224000B0F1807F01D301200FE0681E4FF0E02144
:1022500048610F214FF0FF3002F0DCFD00204FF00D
:10226000E021886107200861002070BD7047704739
:1022700010B50346002200BF93F83C00012801D1AD
:10228000022010BD012083F83C0000BF22F0FF00B7
:10229000CC6840EA040222F440708C6840EA0402F0
:1022A00022F480604C6840EA040222F400600C686A
:1022B00040EA040222F480500C6940EA040222F44D
:1022C00000504C6940EA040222F48040CC6940EAA4
:1022D00004021868426400BF002083F83C0000BF7D
:1022E00000BFCEE730B502460B4600BF92F83C0077
:1022F000012801D1022030BD012082F83C0000BF3E
:10230000022082F83D00106844681068816824F05B
:1023100070041868044310684460104D1068A842A7
:102320000BD01068B0F1804F07D00D4D1068A84257
:1023300003D00C4D1068A84205D121F080015868E7
:10234000014310688160012082F83D0000BF002039
:1023500082F83C0000BF00BFCDE70000002C014028
:10236000000400400008004010B504460CB90120EC
:1023700010BD94F83D0028B9002084F83C002046A8
:1023800000F026F8022084F83D00211D206802F0AC
:102390001FFA012084F8460000BF84F83E000121A6
:1023A0003F200155402001554120015500BF00BF8D
:1023B000012084F842004320015544200155452066
:1023C000015500BF012084F83D000020D0E7000047
:1023D00038B504460D492068884215D100BF0C4825
:1023E000C06940F002000A49C8610846C06900F0AF
:1023F0000200009000BF00BF002211461D20FFF721
:1024000073FB1D20FFF760FB38BD00000004004097
:1024100000100240014691F83D00012801D0012042
:102420007047022081F83D00124B086898420BD09B
:102430000868B0F1804F07D00F4B0868984203D06E
:102440000E4B086898420CD10868806800F00702BB
:10245000062A0CD00868006840F001000B6818607C
:1024600005E00868006840F001000B681860002073
:10247000D6E70000002C01400004004000080040A6
:10248000014691F83D00012801D00120704702204B
:1024900081F83D000868C06840F001000B68D86012
:1024A000124B086898420BD00868B0F1804F07D0F3
:1024B0000F4B0868984203D00E4B086898420CD125
:1024C0000868806800F00702062A0CD008680068D7
:1024D00040F001000B68186005E00868006840F0F3
:1024E00001000B6818600020D0E70000002C0140BC
:1024F0000004004000080040014600BF0868006A70
:1025000041F21112104050B90868006A9210104050
:1025100028B90868006820F001000A68106000BF50
:10252000012081F83D00002070472DE9F04104466C
:102530000D46002700BF94F83C00012802D102207C
:10254000BDE8F081012084F83C0000BF022084F83F
:102550003D002068866826F0770626F47F462068CE
:1025600086602868502833D00CDC202850D004DC4A
:1025700000284BD0102851D149E0302849D04028BC
:102580004CD139E060282DD0702807D0B0F5805F9D
:1025900003D0B0F5005F41D10DE041E0D5E9021371
:1025A0006A68206802F067F92068866846F0770656
:1025B0002068866034E0D5E902136A68206802F07A
:1025C0005AF92068806840F480402168886027E0DC
:1025D000EA686968206802F01FFA5021206802F05A
:1025E00055F91DE0EA686968206802F028FA602160
:1025F000206802F04BF913E0EA686968206802F08D
:102600000BFA4021206802F041F909E000BF00BF49
:1026100000BF2968206802F039F901E0012700BFF6
:1026200000BF012084F83D0000BF002084F83C007A
:1026300000BF384684E72DE9F04104460D4614B941
:102640000120BDE8F08194F83D0028B9002084F80D
:102650003C00204600F052F8022084F83D0020683B
:10266000806844F20701884321688860211D206842
:1026700002F0AEF82068D0F80880206886692068EB
:10268000076A286840EA080840F203308643A969CF
:10269000A86840EA0120064340F60C4086434FF20A
:1026A000F0008643E969E86840EA012006432869AA
:1026B0000001296A40EA0130064327F022076969D0
:1026C000686840EA011007432068C0F80880206865
:1026D000866120680762012084F8460084F83E0085
:1026E00001213F200155012084F84200432001557B
:1026F000012084F83D000020A3E7000010B586B05B
:102700000446002002900390049005902068B0F1E8
:10271000804F24D100BF2748C06940F001002549FF
:10272000C8610846C06900F00100019000BF00BF09
:1027300000BF0846806940F004008861084680694F
:1027400000F00400019000BF00BF032002900020B1
:102750000390049002A91848FEF7C2FD27E017492C
:102760002068884223D100BF1248C06940F00400AD
:102770001049C8610846C06900F00400019000BF1C
:1027800000BF00BF0846806940F008008861084625
:10279000806900F00800019000BF00BFC0200290D7
:1027A00000200390049002A90548FEF799FD06B0A9
:1027B00010BD000000100240000801400008004069
:1027C000000C01402DE9F04304460D4694F83E60AC
:1027D0003F20075D94F84280432010F804906DB9C3
:1027E000012E02D1B8F1010F02D00120BDE8F08323
:1027F000022084F83E0084F8420025E0042D0CD12C
:10280000012F02D1B9F1010F01D00120EEE7022121
:102810003F2001554320015516E0012E07D1012F1D
:1028200005D1B8F1010F02D1B9F1010F01D001209A
:10283000DCE7022084F83E0002213F2001550220FF
:1028400084F842004320015515B1042D0CD105E058
:1028500001220021206801F0FDFF10E00122042187
:10286000206801F0F7FF0AE001220021206801F052
:10287000F1FF01220421206801F0ECFF00BF00BF3E
:102880002068006840F00100216808600020ADE782
:10289000704770B504462068C5682068066906F070
:1028A0000200022819D105F00200022815D1401FAC
:1028B00021680861012020772068806900F003000A
:1028C00018B12046FFF7E4FF05E0204600F0C4F809
:1028D000204600F08FF90020207706F0040004283D
:1028E00019D105F00400042815D1C04321680861FE
:1028F000022020772068806900F4407018B12046DB
:10290000FFF7C6FF05E0204600F0A6F8204600F0DD
:1029100071F90020207706F00800082819D105F089
:102920000800082815D1C0432168086104202077D9
:102930002068C06900F0030018B12046FFF7A8FF27
:1029400005E0204600F088F8204600F053F900200A
:10295000207706F01000102819D105F0100010287B
:1029600015D1C04321680861082020772068C0691C
:1029700000F4407018B12046FFF78AFF05E02046BA
:1029800000F06AF8204600F035F90020207706F0C4
:10299000010048B105F0010030B16FF0010021687D
:1029A0000861204600F092F906F08000802809D1E5
:1029B00005F08000802805D1C043216808612046C9
:1029C000FFF754FC06F04000402809D105F0400014
:1029D000402805D1C04321680861204600F090F9E5
:1029E00006F02000202809D105F02000202805D17C
:1029F000C043216808612046FFF739FC70BD000024
:102A000010B586B004460020029003900490059013
:102A10000E492068884217D100BF0D48806940F0F8
:102A200004000B4988610846806900F004000190A9
:102A300000BF00BF4FF41060029002200390059089
:102A400002A90448FEF74CFC06B010BD002C014062
:102A5000001002400008014070472DE9F041044693
:102A60000D461646002700BF94F83C00012802D10D
:102A70000220BDE8F081012084F83C0000BF36B19F
:102A8000042E1BD0082E31D00C2E5ED145E02946F5
:102A9000206801F005FF2068806940F00800216887
:102AA00088612068806920F00400216888612068BE
:102AB0008069296908432168886148E029462068BF
:102AC00001F01EFF2068806940F400602168886181
:102AD0002068806920F480602168886120688069AE
:102AE000296940EA01202168886130E02946206890
:102AF00001F03AFF2068C06940F008002168C86111
:102B00002068C06920F004002168C8612068C0699D
:102B1000296908432168C86119E02946206801F045
:102B200057FF2068C06940F400602168C8612068D0
:102B3000C06920F480602168C8612068C069296983
:102B400040EA01202168C86101E0012700BF00BF01
:102B500000BF002084F83C0000BF384689E710B56C
:102B600004460CB9012010BD94F83D0028B900209E
:102B700084F83C00204600F025F8022084F83D004F
:102B8000211D206801F024FE012084F8460000BFCA
:102B900084F83E0001213F2001554020015541208D
:102BA000015500BF00BF012084F8420043200155B9
:102BB000442001554520015500BF012084F83D0007
:102BC0000020D0E708B5094A016891420DD100BF45
:102BD0000749896941F40061054A91611146896993
:102BE00001F40061009100BF00BF08BD002C01404E
:102BF000001002407047000070B504460D4615B93C
:102C000094F83E000BE0042D02D13F20005D06E069
:102C1000082D02D14020005D01E04120005D012827
:102C200001D0012070BD1DB9022084F83E000EE0E5
:102C3000042D03D102213F20015508E0082D03D1C6
:102C400002214020015502E00221412001550122CC
:102C50002946206801F0FEFD19492068884201D10B
:102C6000012000E0002028B12068406C40F40040C2
:102C7000216848641249206888420BD02068B0F16E
:102C8000804F07D00F492068884203D00E49206842
:102C900088420CD12068806800F00706062E0CD010
:102CA0002068006840F001002168086005E02068A5
:102CB000006840F00100216808600020B2E70000D1
:102CC000002C01400004004000080040094A01684F
:102CD00091420ED108490988491C074A11801146C2
:102CE00009880A2905DB0121044A11700021024AE2
:102CF00011807047000400405A010020F1000020BC
:102D000070477047704700002DE9F84F044620686F
:102D100005682068C668206847694FF00009CA4600
:102D200005F00F09B9F1000F0AD105F0200038B104
:102D300006F0200020B1204601F0E5FEBDE8F88F46
:102D4000B9F1000F7BD007F0010018B906F49070BC
:102D5000002874D005F0010030B106F4807018B17D
:102D6000606C40F00100606405F0040030B107F0D1
:102D7000010018B1606C40F00200606405F00200D0
:102D800030B107F0010018B1606C40F004006064DD
:102D900005F0080048B106F0200010B907F0010066
:102DA00018B1606C40F008006064606C002845D089
:102DB00005F0200028B106F0200010B1204601F0F7
:102DC000A2FE20684069C0F3801A606C00F0080021
:102DD00010B9BAF1000F2CD0204601F04EFE206849
:102DE000406900F0400000B300BF00BF216814310B
:102DF00051E8001F21F040002168143141E8000231
:102E0000002AF3D100BFE06B50B17748E16B486313
:102E1000E06BFEF799F988B1E06B416B88470DE0F4
:102E20002046FFF76FFF09E009E02046FFF76AFF41
:102E300004E02046FFF766FF002060647EE7206B19
:102E4000012877D105F01000002873D006F010009B
:102E50000028FAD000BF0020009020680068009091
:102E600020684068009000BF00BF2068406900F003
:102E7000400000285FD0E06B006840681FFA80F8CF
:102E8000B8F1000F55D0A08D404552DDA4F82E803A
:102E9000E06B8069202843D000BF00BF21680C315F
:102EA00051E8001F21F4807021680C3141E80002D4
:102EB000002AF3D100BF00BF00BF2168143151E8E0
:102EC000001F21F001002168143141E80002002AAE
:102ED000F3D100BF00BF00BF2168143151E8001FCB
:102EE00021F040002168143141E80002002AF3D1AA
:102EF00000BF202084F842000020206300BF00BFF4
:102F000021680C3151E8001F21F0100021680C31BC
:102F100041E80002002AF3D100BFE06BFEF7E9F8B8
:102F200002206063A08DE28D801A81B22046FFF7F7
:102F3000E8FE03E742E0A08DE18D401A1FFA80F819
:102F4000E08DD0B3B8F1000F37D000BF00BF2168CB
:102F50000C3151E8001F21F4907021680C3141E8D8
:102F60000002002AF3D100BF00BF00BF2168143166
:102F700051E8001F21F001002168143141E80002EE
:102F8000002AF3D100BF202084F8420000202063F3
:102F900000BF00BF21680C3151E8001F21F0100074
:102FA00021680C3141E80002002AF3D100BF022061
:102FB000606341462046FFF7A4FEBFE605F08000AF
:102FC00030B106F0800018B1204601F0B9FEB5E638
:102FD00005F0400030B106F0400018B1204601F085
:102FE00082FDABE600BFA9E6674A000810B50446BB
:102FF0000CB9012010BDA06900B100E000BF94F839
:10300000410028B9002084F84000204600F02AF84A
:10301000242084F841002068C06820F40050216812
:10302000C860204601F0EEFD2068006920F4904061
:10303000216808612068406920F02A002168486101
:103040002068C06840F400502168C86000206064B7
:10305000202084F8410084F842000020606300BF13
:10306000C8E7000010B586B0044600200290039027
:10307000049005901E492068884236D100BF1D4843
:10308000C06940F480201B49C8610846C06900F44B
:103090008020019000BF00BF00BF0846806940F05B
:1030A000080088610846806900F00800019000BFB0
:1030B00000BF08150290022003900320059002A98A
:1030C0000D48FEF70DF94FF40060029000200390C8
:1030D000049002A90848FEF703F9002211462720B0
:1030E000FEF702FD2720FEF7EFFC06B010BD000042
:1030F0000048004000100240000C014070B504463A
:103100000D46164694F8420020280BD105B10EB9A1
:10311000012070BD0020206332462946204601F080
:10312000EFFDF6E70220F4E710B504461C492068DD
:10313000884233D11B48007868B91B4800785B2867
:1031400027D11A48007820BB0120164908700020BA
:10315000174908701DE013480078012819D112485A
:1031600000785D280AD100200E4908701149104AE4
:103170001278885401200D4908700AE00A48007846
:103180000C490B4A1278885409480078401C0849B9
:103190000870012204490848FFF7B0FF10BD000085
:1031A00000480040580100205C010020D4000020AD
:1031B00059010020640200203C040020704700BF39
:1031C000FEE7014608684069C0F38020B0B16FF4A3
:1031D00080600A68506100200863202081F83D006B
:1031E000002081F83E00086C40F00400086400BF35
:1031F000002081F83C0000BF012070470020FCE760
:103200002DE9F8430446884615469946DDE90867E6
:103210002068006840F4807021680860334600220E
:103220004FF001112046009700F08DF860B1206842
:10323000006800F48070B0F5807F02D14FF4007018
:1032400020640320BDE8F88308F0FE0021680861CF
:103250003B4632462149204600F0D4F808B101200F
:10326000F0E700BF002000902068406900902068CF
:103270008069009000BF00BF3A463146204600F00A
:103280003EF950B1206C042805D12068006840F454
:103290000070216808600120D4E7B9F1010F03D163
:1032A000E8B22168086117E0C5F3072021680861CA
:1032B0003A463146204600F022F950B1206C0428ED
:1032C00005D12068006840F4007021680860012082
:1032D000B8E7E8B2216808610020B3E70200010006
:1032E00070B504460D46164625E02046FFF769FFF7
:1032F00008B1012070BD681CE8B1FEF78FF9801B92
:10330000A84200D8BDB920684069C0F3800090B9D8
:1033100000202063202084F83D00002084F83E0037
:10332000206C40F02000206400BF002084F83C00A6
:1033300000BF0120DEE720684069C0F3800000285C
:10334000D3D00020D6E72DE9F04104460D461746BC
:103350001E46DDF8188038E0701CA8B3FEF75EF951
:10336000A0EB0800B04200D876BBC5F307400128A7
:103370000AD120684069A9B20840A9B2884201D1A7
:1033800001200BE0002009E020688069A9B2084014
:10339000A9B2884201D1012000E00020B84214D136
:1033A00000202063202084F83D00002084F83E00A7
:1033B000206C40F02000206400BF002084F83C0016
:1033C00000BF0120BDE8F081FFE7C5F307400128F9
:1033D0000AD120684069A9B20840A9B2884201D147
:1033E00001200BE0002009E020688069A9B20840B4
:1033F000A9B2884201D1012000E00020B842ABD040
:103400000020DFE72DE9F04104460D4616461F4631
:1034100058E020684069C0F38020E8B12068006867
:1034200040F40070216808606FF480602168486192
:1034300000202063202084F83D00002084F83E0016
:10344000206C40F00400206400BF002084F83C00A1
:1034500000BF0120BDE8F081701C90B3FEF7DEF8DC
:10346000C01BB04200D866BBC5F3074001280AD193
:1034700020684069A9B20840A9B2884201D1012060
:103480000BE0002009E020688069A9B20840A9B2D9
:10349000884201D1012000E0002090B90020206383
:1034A000202084F83D00002084F83E00206C40F08D
:1034B0002000206400BF002084F83C0000BF0120F1
:1034C000C8E7FFE7C5F3074001280AD12068406933
:1034D000A9B20840A9B2884201D101200BE0002026
:1034E00009E020688069A9B20840A9B2884201D1E8
:1034F000012000E0002000288BD00020AAE770B552
:1035000004460D46164625E02046FFF75AFE08B150
:10351000012070BD681CE8B1FEF780F8801BA8424E
:1035200000D8BDB920684069C0F3C01090B9002030
:103530002063202084F83D00002084F83E00206CA9
:1035400040F02000206400BF002084F83C0000BF51
:103550000120DEE720684069C0F3C0100028D3D006
:103560000020D6E710B56420FDF746FE012000F0EC
:1035700085F8012000F078F83220FDF751FE10BDEB
:1035800010B508210448FEF73BF804460A20FDF771
:1035900047FE204610BD0000000C014010B5012080
:1035A00000F06CF8012000F05FF8FFF7E9FF044637
:1035B000002000F059F8204610BD70B5002501200C
:1035C00000F05CF800240DE0012000F04DF8FFF75A
:1035D000D7FF10B1802020410543002000F044F8BF
:1035E000601CC4B2082CEFDB284670BD10B5044641
:1035F000204600F043F8012000F036F8002000F0EB
:1036000033F810BD70B50546002411E0802121413A
:10361000294009B1012100E00021084600F02EF800
:10362000012000F021F8002000F01EF8601CC4B258
:10363000082CEBDB70BD10B5012000F01FF8012055
:1036400000F012F8002000F019F8002000F00CF84B
:1036500010BD10B5002000F011F8012000F004F8B2
:10366000012000F00BF810BD10B5044622461021D1
:103670000148FDF7CDFF10BD000C014010B5044618
:10368000224608210148FDF7C3FF10BD000C014090
:103690000849016008494160084981600021C16012
:1036A00001614FF07E51416100228261C2610A4690
:1036B000026270470AD7233C6F12833ACDCCCC3DCF
:1036C0002DE9F05F04460E46154630462169FCF7A9
:1036D000E8FD80462946FCF7EAFD0746E168FCF76D
:1036E0008EFDE0602846216AFCF7E1FD8346A16972
:1036F000FCF7D7FD8246E169FCF7D3FD81462168DE
:10370000FCF77DFD80462946FCF7D1FD074661693F
:10371000FCF775FD60612846216AFCF7C8FD074685
:10372000A169FCF7C1FDA0612846216AFCF7BFFD35
:103730000746E169FCF7B8FDE0616168206AFCF7C3
:103740005EFD2062BDE8F09F2DE9FE4F04460D4668
:10375000A1686069FCF753FD824651466069FCF739
:10376000D8FD01905146E069FCF7D3FD0290284650
:10377000E168FCF796FD0090DDE90010FCF797FD8D
:103780008346E168FCF73BFDE06000990298FCF796
:103790008EFD83462169FCF732FD20616669A769C9
:1037A000D4F81C80D4F820904FF07E500199FCF79B
:1037B00078FD83463146FCF77AFD60614FF07E501C
:1037C0000199FCF76EFD83463946FCF770FDA06158
:1037D00031460298FCF76BFD83464146FCF764FDD9
:1037E000E06139460298FCF762FD83464946FCF7E2
:1037F0005BFD2062BDE8FE8F70B504460D46002CCF
:103800000BDA012251031F48FDF702FF00224FF49B
:1038100080511C48FDF7FCFE0AE000224FF40051E5
:103820001848FDF7F5FE012211031648FDF7F0FEDA
:10383000201E01DB014600E04142134A1268116478
:10384000002D0BDA012291030E48FDF7E1FE002264
:103850004FF400410B48FDF7DBFE0AE000224FF475
:1038600080410848FDF7D4FE0122D1030548FDF749
:10387000CFFE281E01DB014600E04142024A1268E9
:10388000516370BD000C01401C0300201CB50020DA
:103890000090684602F032FD10B14FF0FF301CBDC1
:1038A00002F0B2F810B14FF0FF30F8E7C82002F094
:1038B000A1F910B14FF0FF30F1E74FF4A8742046A2
:1038C00001F04AFF10B14FF0FF30E8E7002002F0AE
:1038D000C9F910B14FF0FF30E1E7012003F0C4F85F
:1038E00010B14FF0FF30DAE70020D8E70148006858
:1038F000704700003800002010B5FFF733FE80212C
:103900006B2000F06BFB6420FDF776FC00216B2040
:1039100000F064FB0421192000F060FB03211A2051
:1039200000F05CFB18211B2000F058FB00211C203C
:1039300000F054FB10BD000010B50948007820B11C
:10394000012805D0022809D105E000F00BF805E0B8
:1039500000F0D4F802E000F029FA00BF00BF10BD6B
:10396000440000202DE9F04F85B000F0A3F956483F
:103970000068FCF7EDFE8246544A554BFCF7AEFD5D
:1039800006460F4653480068FCF7E2FE8046324682
:103990003B46FCF7FCFC0446FCF7EDFE04904E4869
:1039A0000068FCF7D5FE8246484A494BFCF796FD75
:1039B00006460F4649480068FCF7CAFE8046324674
:1039C0003B46FCF7E4FC0446FCF7D5FE0390444874
:1039D0000068FCF7BDFE06463C4A3D4BFCF77EFD09
:1039E00004460D463F480068FCF7B2FE804622467A
:1039F0002B46FCF76DFD8246FCF7BDFE02903A486F
:103A00000068FCF7A5FE82468B4638480068FCF744
:103A10009FFE064652465B4601F04AFC04464FF0C4
:103A20000052334BFCF75AFD8046FCF7A4FE019090
:103A30002D480068FCF78CFE06460F462D480068AE
:103A4000FCF786FE804632463B4601F031FC0446D8
:103A50004FF00052264BFCF741FD8246FCF78BFEEF
:103A600000901C4904980860234801684FF07E507C
:103A7000FCF717FC06460199FCF719FC04461E48A2
:103A800003990068FCF713FC05462146FCF7B7FBD9
:103A900012490860184801684FF07E50FCF701FC9D
:103AA00006460099FCF703FC044613480299006897
:103AB000FCF7FDFB05462146FCF7A1FB0949086020
:103AC00005B0BDE8F08F0000300000207B14AE4749
:103AD000E17A743F340000202800002038000020E4
:103AE0002C0000203C000020200000201C000020B2
:103AF000DCA54C4018000020400000202DE9F05FBC
:103B000000F0D8F8344801680068FCF7D0FB824622
:103B1000324801680068FCF7CAFB83465146FCF74F
:103B20006EFB814603F0E2F907462D48006880F0FD
:103B300000483946404601F07BFC06462949FCF71F
:103B4000B6FB0446244801682448006801F070FC74
:103B500006462449FCF7ABFB054623492348006889
:103B6000FCF7A5FB0646224801683046FCF747FBF8
:103B7000204908602048007840B92048FFF788FDB8
:103B80001F48FFF785FD01201B490870164A1D4894
:103B900001681A48FFF794FD21461848FFF7D4FD45
:103BA0001948006880F000460F4A31461448FFF774
:103BB00087FD29461248FFF7C7FD0E4800680C49EB
:103BC00008600E48C068114908600D48C068104977
:103BD0000860BDE8F09F0000200000201C000020CD
:103BE00018000020E12E65420AD7A33B30000020D8
:103BF00034000020480000204C0000207801002004
:103C00009C010020280000202C000020380000200B
:103C10003C0000202DE9F04107460E461546FFF70F
:103C20000AFDD020FFF7EEFCFFF7B8FC3846FFF79F
:103C3000E9FCFFF7B3FCFFF7FEFCD120FFF7E2FC45
:103C4000FFF7ACFC00240EE0FFF7B7FC3055681E10
:103C5000A04203DD0020FFF7C9FC02E00120FFF7CE
:103C6000C5FC601CC4B2AC42EEDBFFF7F2FC0020E6
:103C7000BDE8F08110B504460D480078844200D1BB
:103C800010BD022C07D1FFF701FE00B1F8E70220BA
:103C9000074908700AE006480078022802D100208F
:103CA00002F0E2FEFFF728FE0148047000BFE7E7DC
:103CB000440000202DE9FF470E2269463B20FFF714
:103CC000A9FF9DF801009DF8001040EA012004B210
:103CD0009DF803009DF8021040EA012005B29DF80E
:103CE00005009DF8041040EA012006B29DF8090085
:103CF0009DF8081040EA012007B29DF80B009DF8DE
:103D00000A1040EA01200FFA80F89DF80D009DF896
:103D10000C1040EA01200FFA80F92046FCF7BFFCA6
:103D200082461A49FCF7C3FA194908602846FCF78D
:103D3000B6FC82461549FCF7BAFA164908603046C7
:103D4000FCF7ADFC82461149FCF7B1FA1249086054
:103D50003846FCF7A4FC82461049FCF7A8FA104943
:103D600008604046FCF79BFC82460C49FCF79FFA32
:103D70000C4908604846FCF792FC82460749FCF76C
:103D800096FA09490860BDE8FF870000D5FF7F3833
:103D9000180000201C00002020000020D6FF793DE4
:103DA000280000202C000020300000202DE9F04FDA
:103DB00091B006A807A908AB09AACDE900100DA982
:103DC0000FA801F02DFE00287ED1BDF81C0000F4E4
:103DD0008070002878D00998FCF761FC82464FF08B
:103DE0009D41FCF796FA04460A98FCF758FC824677
:103DF0004FF09D41FCF78DFA05460B98FCF74FFC00
:103E000082464FF09D41FCF784FA06460C98FCF779
:103E100046FC82464FF09D41FCF77BFA0746394647
:103E20003846FCF744FA314605903046FCF73FFA35
:103E3000294603902846FCF73AFA2146029020468C
:103E4000FCF735FA01900299FCF7D9F983460399FA
:103E5000FCF7D5F904900599FCF7D1F9824603F0F7
:103E600045F8804600214046FCF7ACFC13D24146A1
:103E70002046FCF74EFA044641462846FCF749FA2C
:103E8000054641463046FCF744FA06464146384668
:103E9000FCF73FFA074631463046FCF708FA294658
:103EA00002902846FCF703FA01900299FCF7A7F963
:103EB00083464FF08041FCF7FAF982464FF07E517D
:103EC000FCF7F2F9394600E07BE004903046FCF75D
:103ED000EEF9834629462046FCF7E9F95946029057
:103EE000FCF78DF982464FF08041FCF7E0F9039032
:103EF000049901F09DFA34490590FCF7D8F933494B
:103F0000086029463846FCF7D2F9834631462046F8
:103F1000FCF7CDF959460590FCF7C3F982464FF0FE
:103F20008041FCF7C4F981464FF07E514846FCF7CA
:103F300049FC01D24FF07E5925494846FCF738FC30
:103F400001D2DFF88C90484601F010F882461E49F5
:103F5000FCF7ADF91F49086039463846FCF7A7F968
:103F6000314602903046FCF7A2F901900299FCF725
:103F700046F983464FF08041FCF799F982464FF0AD
:103F80007E51FCF791F9314604902846FCF78FF9F1
:103F9000834639462046FCF78AF959460290FCF7D9
:103FA0002EF982464FF08041FCF781F90390049985
:103FB00001F03EFA04490590FCF779F906490860DA
:103FC00000BF11B0BDE8F08FE12E65423C0000203B
:103FD000000080BF380000203400002070B5054686
:103FE0000C46FFF728FBD020FFF70CFBFFF7D6FAB3
:103FF0002846FFF707FBFFF7D1FA2046FFF702FB41
:10400000FFF7CCFAFFF725FB70BD000000B585B0C7
:104010000020019002900390049000BF47488069FF
:1040200040F01000454988610846806900F01000A2
:10403000009000BF00BF00BF0846806940F020002C
:1040400088610846806900F02000009000BF00BF32
:1040500000BF0846806940F0040088610846806916
:1040600000F00400009000BF00BF00BF0846806958
:1040700040F0080088610846806900F00800009060
:1040800000BF00BF00224FF400512D48FDF7C0FAD9
:10409000002208212B48FDF7BBFA00224FF47041A3
:1040A0002948FDF7B5FA012218212748FDF7B0FA93
:1040B0004FF4005001900120029000200390022054
:1040C000049001A91E48FDF70BF9042001901F4838
:1040D00002900020039001A91A48FDF701F9082079
:1040E00001900120029003900320049001A915483B
:1040F000FDF7F6F84FF47040019001200290002087
:1041000003900220049001A90F48FDF7E9F8182058
:10411000019011200290012003900220049001A937
:104120000948FDF7DDF8002211460820FDF7DCFC08
:104130000820FDF7C9FC05B000BD000000100240DA
:104140000010014000080140000C01400000311047
:1041500010B50B480B4908600B484860002109481E
:104160008160C1604FF48041016100214161816142
:10417000C1610162FDF758FA08B1FCF7B7FF10BD45
:1041800000540040C8020020A086010000B591B094
:1041900000200F9010901C2108A8FBF7DAFF2021C7
:1041A0006846FBF7D6FF2748274908602320486068
:1041B0000021254881606321C160002101614161C6
:1041C00080218161FEF7CBFC08B1FCF78FFF002056
:1041D0000F9010900FA91C48FEF784F808B1FCF767
:1041E00085FF60200890002009900A900B900C90A9
:1041F0000D900E90002208A91348FEF72EFC08B17E
:10420000FCF774FF0C2208A90F48FEF726FC08B142
:10421000FCF76CFF00200090019002900390049046
:104220004FF4005005900020079069460648FEF7BD
:104230001FF808B1FCF75AFF0348FEF7E1FB11B085
:1042400000BD0000002C01401C03002000B58BB015
:10425000242102A8FBF77DFF0020009001904FF081
:1042600080401749086000204860002114488160A0
:104270004FF6FF71C160002101618161032002904E
:1042800000200390012004900020059006900790E4
:1042900001200890002009900A9002A90848FEF722
:1042A000CAF908B1FCF722FF00200090019069468E
:1042B0000348FEF717F808B1FCF718FF0BB000BD74
:1042C0006403002000B587B000200390049005909F
:1042D00006900190029015481549086047204860F3
:1042E00000211348816040F2E731C1600021016183
:1042F00080218161FEF738F808B1FCF7F7FE4FF432
:104300008050039003A90A48FEF70FF908B1FCF7A3
:10431000EDFE00200190029001A90548FDF7E2FFA3
:1043200008B1FCF7E3FE07B000BD00000004004048
:10433000AC03002000B58BB0242102A8FBF709FFD5
:10434000002000900190184818490860002048603B
:104350000021164881604FF6FF71C16000210161A4
:10436000816103200290002003900120049000202E
:1043700005900690079001200890002009900A906F
:1043800002A90A48FEF757F908B1FCF7AFFE002072
:104390000090019069460548FDF7A4FF08B1FCF7BD
:1043A000A5FE0BB000BD000000080040F403002093
:1043B00010B50B480B4908604FF4165048600021B7
:1043C00008488160C16001610C2141610021816167
:1043D000C161FEF70BFE08B1FCF788FE10BD0000BE
:1043E000004800403C04002000BFFEE700BFFEE79D
:1043F00070B5002415E004F1B001C8B200F024F853
:10440000002000F021F8102000F01EF8002504E044
:10441000002000F021F8681CC5B2802DF8DB601C7C
:10442000C4B2082CE7DB70BD10B5002404E00549D8
:10443000085D00F009F8641C172CF8D3FFF7D8FFCB
:1044400010BD00000000002010B5044622460021E7
:10445000782001F081FE10BD10B5044622464021AF
:10446000782001F079FE10BD2DE9F0470446D4E92B
:104470000301FBF716FF606161692068FBF717FF16
:10448000814627496069FBF712FF0646E169FBF7A1
:10449000B6FEE061D4E90701FCF794F901D2206A85
:1044A000E061206A80F000463046E169FCF78AF955
:1044B00003D2206A80F00040E061E1696068FBF7A8
:1044C000F6FE0746D4E90501FBF7EBFE0646144964
:1044D000FBF71FFF05462946A068FBF7E8FE80466C
:1044E0006069A06139464846FBF789FE06464146A9
:1044F000FBF785FEA062D4E90A01FCF763F901D25B
:10450000E06AA062E06A80F000463046A16AFCF7EB
:1045100059F903D2E06A80F00040A062BDE8F0875C
:104520000AD7A33B10B504460020E0602061A061DB
:104530006061E0610021206AFCF73AF901D1E06A8C
:10454000206210BD7047000008B508490968C90815
:104550004FF47A72B1FBF2F14143009100BF00BF0A
:1045600000994A1E00920029F9D108BD6C01002073
:10457000704700002DE9F84F5748007801287DD199
:1045800056A15748FBF70CFE009056A10098FBF788
:10459000EBFD00285CD151A1FBF702FE06464FA1BE
:1045A0000020FBF7FDFD074650A13046FBF7DCFD80
:1045B00040B9384601F06AF80446FCF7DCF84E4989
:1045C000086044E04DA13046FBF7CEFD40B93846C7
:1045D00001F05CF80446FCF7CEF84749486036E045
:1045E00049A13046FBF7C0FD40B9384601F04EF80E
:1045F0000446FCF7C0F84049886028E045A13046F1
:10460000FBF7B2FD40B9384601F040F80446FCF72C
:10461000B2F8434908601AE042A13046FBF7A4FD16
:1046200040B9384601F032F80446FCF7A4F83C499A
:1046300048600CE03EA13046FBF796FD38B938469D
:1046400001F024F80446FCF796F8354988603DE00F
:104650003AA10098FBF788FD002837D11FA1FBF78E
:104660009FFD0546FBF7BEFD4FFA80FA1BA1002017
:10467000FBF796FD0546FBF7B5FD00E02AE04FFA93
:1046800080F916A10020FBF78BFD0546FBF7AAFD7C
:1046900044B212A10020FBF783FD0546FBF7A2FD03
:1046A0004FFA80FB4846FCF708F807460022264BE5
:1046B000FBF786FF0546FCF75EF81949C8602046FF
:1046C00004EBD0714910214A118000BF002002493B
:1046D000087000BFBDE8F88FD40000202C00000057
:1046E00064020020736C696465720000616E676C1F
:1046F000655F6B7000000000F4000020616E676C65
:10470000655F6B6900000000616E676C655F6B64DC
:104710000000000073706565645F6B70000000004E
:104720002401002073706565645F6B690000000000
:1047300073706565645F6B64000000006A6F797375
:104740007469636B0000000000003940DC00002049
:1047500010B5FDF749F910BD00B58FB0282105A8A7
:10476000FBF7F7FC14216846FBF7F3FC01200590EA
:1047700000040690002007900120099002200C9070
:10478000C1030D914FF4E0110E9105A8FDF722FB36
:1047900008B1FCF7ABFC0F20009002200190002034
:1047A00002904FF48060039000200490022168463C
:1047B000FDF7ECF908B1FCF799FC0FB000BD7047AC
:1047C00010B50248FEF765F810BD0000AC030020EC
:1047D00010B502681C4B984208D0B0F1804F05D04C
:1047E0001A4B984202D01A4B984203D122F0700221
:1047F0004B681A43144B984208D0B0F1804F05D053
:10480000124B984202D0124B984203D122F44072CC
:10481000CB681A4322F080034C6943EA0402026029
:104820008B68C3620B688362074B984201D10B69A6
:10483000036301234361036903F001031BB10369AF
:1048400023F00103036110BD002C0140000400406F
:104850000008004030B501F01F05012404FA05F3FB
:10486000046A9C430462046A01F01F0502FA05F51C
:104870002C43046230BD30B50C46816821F47F4181
:1048800042EA032525432943816030BD0A468168F9
:1048900021F0700142F00703194381607047000066
:1048A00030B5026A056A25F001050562436884692E
:1048B00024F0700424F003040D682C4322F002025B
:1048C0008D682A430D4DA84206D100BF22F0080290
:1048D000CD682A4322F00402084DA84207D123F4F0
:1048E000807323F400734D692B438D692B43436020
:1048F00084614D684563026230BD0000002C0140B8
:1049000030B5026A056A25F01005056243688469BE
:1049100024F4E04424F440740D6844EA052422F0B1
:1049200020028D6842EA05120E4DA84207D100BF51
:1049300022F08002CD6842EA051222F04002094DC1
:10494000A84209D123F4806323F400634D6943EA4C
:1049500085038D6943EA8503436084614D688563FF
:10496000026230BD002C014030B5026A056A25F4B0
:10497000807505624368C46924F0700424F0030460
:104980000D682C4322F400728D6842EA05220F4D17
:10499000A84207D100BF22F40062CD6842EA052296
:1049A00022F48062094DA84209D123F4805323F4F4
:1049B00000534D6943EA05138D6943EA05134360CB
:1049C000C4614D68C563026230BD0000002C014027
:1049D00030B5036A056A25F4805505624468C269EA
:1049E00022F4E04222F440720D6842EA052223F4E8
:1049F00000538D6843EA0533064DA84204D124F4E0
:104A000080444D6944EA85144460C2614D68056480
:104A1000036230BD002C014030B50B461446026ADB
:104A2000056A25F001050562816921F0F00141EA7E
:104A3000041122F00A021A438161026230BD30B5CE
:104A40000B461446026A056A25F010050562816965
:104A500021F4704141EA043122F0A00242EA03123B
:104A60008161026230BD70B505466C6A0020E08548
:104A7000E0842046FEF746F970BD00BF00BF026823
:104A80000C3252E8002F22F4907102680C3242E896
:104A90000013002BF3D100BF00BF00BF0268143227
:104AA00052E8002F22F001010268143242E800139C
:104AB000002BF3D100BF016B01290ED100BF00BF55
:104AC00002680C3252E8002F22F0100102680C320A
:104AD00042E80013002BF3D100BF202180F84210E0
:104AE00000210163704710B504462068C06820F0BB
:104AF00040002168C860202084F841002046FEF76D
:104B00005DFB002010BDF8B5044694F84200222851
:104B100075D1A068B0F5805F0CD1206950B900252F
:104B2000A66A20684068C0F308003080A06A801C34
:104B3000A06215E0A56A0026A068B0F5805F03D0EA
:104B4000A06828B9206918B920684068287004E076
:104B50002068406800F07F002870A06A401CA062B6
:104B6000E08D401E80B2E085002846D12068C068F4
:104B700020F020002168C8602068C06820F48070A0
:104B80002168C8602068406920F001002168486100
:104B9000202084F8420000206063206B012826D189
:104BA0000020206300BF00BF21680C3151E8001FC6
:104BB00021F0100021680C3141E80002002AF3D1F5
:104BC00000BF2068006800F0100010280AD100BF64
:104BD00000200090206800680090206840680090E5
:104BE00000BF00BFA18D2046FEF78BF802E02046F3
:104BF000FEF79AFA0020F8BD01E00020FBE7022052
:104C0000F9E7000070B504462168096921F44051B4
:104C1000E2681143226811612269A1681143626947
:104C200041EA02052168C96841F20C6291432943B7
:104C30002268D1602168496921F44071A269114359
:104C4000226851612D4A2168914202D1FDF77AF81C
:104C500001E0FDF767F800EBC00101EB00116268AD
:104C60009200B1FBF2F100EBC00202EB00126368AC
:104C70009B00B2FBF3F26423B2FBF3F202EBC2033C
:104C800003EB0212A1EB8201322202EB011164223A
:104C9000B1FBF2F101F0F00100EBC00202EB0012F7
:104CA00063689B00B2FBF3F26423B2FBF3F201EB07
:104CB000021200EBC00101EB001163689B00B1FB25
:104CC000F3F100EBC00303EB00136668B600B3FB1F
:104CD000F6F36426B3FBF6F303EBC30606EB03130C
:104CE000A1EB8301322303EB01116423B1FBF3F148
:104CF00001F00F0111442268916070BD003801403D
:104D000010B5034699629A85DA85002058642220FE
:104D100083F84200186928B11868C06840F48070B0
:104D20001C68E0601868406940F001001C68606120
:104D30001868C06840F020001C68E060002010BDCA
:104D4000014691F84100212828D18868B0F5805F9C
:104D50000BD1086948B90A6A1088C0F308000B68CB
:104D60005860086A801C086205E00B6A581C0862DB
:104D700018780B685860C88C401E80B2C88458B937
:104D80000868C06820F080000B68D8600868C068B8
:104D900040F040000B68D860002070470220FCE71C
:104DA00010B50248FDF7B0FF10BD00003C04002024
:104DB00000BFFEE7490050EAC12018BF04204A0D99
:104DC00018BF40F0010040F2FF72B2EB515F08BF24
:104DD00040F00200012808BF05207047410008028A
:104DE00018BF04200A0E18BF40F001004FF07F42A8
:104DF00032EA010108BF40F00200012808BF052087
:104E00007047000002480068C0F3022070470000AD
:104E10000CED00E010B5002804DB0A07130E054A6C
:104E2000135406E00A07140E034A00F00F031B1F79
:104E3000D45410BD00E400E018ED00E000487047D5
:104E4000740100202DE9F0414F1E00EBC70104461C
:104E5000D1E9000115461E4637F006020DD02A465C
:104E60003346FBF73BFB7F1E04EBC703D3E900236C
:104E7000FBF78DFA37F00602F1D1022F25D0042F6F
:104E800013D0062F18BFBDE8F0812A463346FBF742
:104E900025FBD4E90A23FBF77AFA2A463346FBF7C7
:104EA0001DFBD4E90823FBF772FA2A463346FBF7C9
:104EB00015FBD4E90623FBF76AFA2A463346FBF7CB
:104EC0000DFBD4E90423FBF762FA2A463346FBF7CD
:104ED00005FBD4E90223FBF75AFA2A463346FBF7CF
:104EE000FDFAD4E90023BDE8F041FBF750BA0122F6
:104EF000FCF729B8FBF74BBA024A00201107FCF770
:104F000022B8000001FDFFFF0121FBF744BDFBF7C4
:104F100076B900210846FBF7FCB96FF05E0108077F
:104F2000FBF739BD0148006870470000740100209C
:104F300002E008C8121F08C1002AFAD17047704762
:104F4000002001E001C1121F002AFBD170470000C0
:104F500001490860704700007401002030380A28B9
:104F600001D2012070470020704700002DE9F04178
:104F700004464FF00E4000EB4400B0F1506F204665
:104F800055D84FF0FC41B1EB440F1CD224F0004047
:104F90004FF07E51FBF788F94FF0FF31FBF7FBFC38
:104FA000054601F0A3FF14F0004F1DBF2F4F304EF8
:104FB00080F000402F4F08BF2F4E4FF04041FBF7CD
:104FC00076F9044605E000273E460146FBF76FF9F7
:104FD00005462A492846FBF76AF92949FBF70FF9E4
:104FE0002946FBF764F92749FBF709F92946FBF73E
:104FF0005EF92549FBF703F92946FBF758F92349E0
:10500000FBF7FDF8804629462046FBF750F941465C
:10501000FBF74DF9054631462046FBF7F0F82946E7
:10502000FBF7EDF83946BDE8F041FBF7E8B84FF083
:10503000E441B1EB440F08D9FFF7D0FE042808BFC4
:10504000FFF76BFF2046BDE8F0814FF07F41B1EBE9
:10505000440F03D2BDE8F041FFF756BF0120FFF730
:1050600077FFBDE8F041FFF754BF00000000C9BF63
:1050700022AAFDB90000C93F22AAFD3924FE1C3D29
:10508000C78AD83C1E67383D1B93993DAFAA2A3E7C
:105090002DE9F84F04460D4621F000400091734978
:1050A000814211DC7249884201DC06D12CB12046D4
:1050B0002946BDE8F84FFFF71ABF6E48002DCCBF58
:1050C0006D496E49BDE8F88F6D49814211DD6D492A
:1050D0008142D8BF4FF0FF366DDD20462946FFF7ED
:1050E00069FE042808BFFFF707FF20462946BDE8F0
:1050F000F88F6549654F25F00045814233DD6449ED
:10510000814219DD002632464FF080432046294671
:10511000FBF73DF980468A46012220462946FBF7E7
:1051200012FF00223B46FBF7D3F942465346FBF7FA
:1051300047FA04460D463EE001260022BA463B46A9
:1051400020462946FBF723F980460F4600225346A6
:1051500020462946FBF7BCF942463B46FBF730FAAE
:1051600004460D4627E04B4981421BDDDFF828A1AC
:1051700002260022534620462946FBF7AFF90022BB
:105180003B46FBF704F980460F4600225346204673
:105190002946FBF79DF942463B46FBF711FA0446C8
:1051A0000D4608E0032622462B4600203B49FBF72C
:1051B00007FA04460D4622462B4610461946FBF7D1
:1051C0008DF98B46824602460B46FBF787F9074668
:1051D0000246334888460B4606217844FFF732FEE4
:1051E00052465B46FBF77AF982462E488B463A4692
:1051F000434605217844FFF725FE3A464346FBF730
:105200006DF902460B46002E504659460CDAFBF764
:10521000BEF822462B46FBF761F901B022462B4629
:10522000BDE8F04FFBF757B9FBF7B1F822462B4624
:10523000FBF754F91C4A7A4402EBC603D3E9002376
:10524000FBF746F922462B46FBF742F9174A7A4408
:1052500002EBC603D3E90023FBF73DF9009A002ACD
:10526000B8BF81F00041BDE8F88F00000000104495
:105270000000F07F182D4454FB21F93FFB21F9BFBA
:105280000000DC3F0000203E0000F33F0000F03F44
:105290000000E63F008003400000F83F0000F0BF40
:1052A0001A2A0000D8290000762900003E290000B3
:1052B0002DE9F04D9446CCF1000423F000464CEA71
:1052C0000404524F46EAD4749A46884621F00042BC
:1052D000BC4206D8454240EA050442EAD474BC42C6
:1052E00004D9BDE8F04D6246FFF704BEAAF140556F
:1052F000A5F17F6555EA0C040BD0022404EAAA74D8
:10530000434DDFF810E144EAD87452EA000B04D0B0
:105310000CE0BDE8F04DFFF7BBBE002C14BF012C24
:10532000BDE8F08D022C30D0032C32D056EA0C0BA5
:105330000AD0BE4220D1BA4209D126F0804622F0DE
:1053400080423346114617E000291ADB25E0DFF8DA
:10535000C8B0FB44002C04BFDBE90001BDE8F08DC0
:10536000012C02BFDBE9000181F00041BDE8F08DB6
:10537000022C0AD0032C0CD0BA4212D1B8F1000F83
:105380000BDA23482549BDE8F08D28462449BDE8BD
:10539000F08D28467146BDE8F08D1D482149BDE8D5
:1053A000F08D921B12153C2AC4BF19481D490EDC12
:1053B000BAF1000FBEBF12F13C0F0020014606DB20
:1053C0006246FBF7FDF821F00041FFF761FE002C7B
:1053D00008BFBDE8F08D012C04BF81F00041BDE89D
:1053E000F08D114A114B022C07D0FBF771F82A46B9
:1053F000BDE8F04D0A4BFBF76BB8FBF769F82A469E
:10540000BDE8F04D064BFBF766B800000000F07FEA
:10541000182D4454FB2109C0D2280000FB21F9BFFC
:10542000FB210940FB21F93F075C143326A6A13C70
:105430002DE9F0474FF0684202EB40030C46054669
:10544000B3F1654F3CBF02EB4102B2F1654F7CD234
:10545000C0F3C753C1F3C7529A1A1B2A06DD10F0D6
:10546000004F14BF76487748BDE8F08712F11A0F55
:1054700017DA11F0004F06D010F0004F0CBF724841
:105480007248BDE8F08721462846FAF742FF0446F5
:10549000FFF7A4FC042808BFFFF73FFD2046BDE846
:1054A000F0874200B2EB410F25D910F0004F19BF31
:1054B000674F684E684F694E224685F00044154696
:1054C0000A4680F0004110460A1A5200B2F1807F6D
:1054D00040D248406249DFF88CA110F0004F18D04C
:1054E0004FF03F483846FAF7DCFE07465146304653
:1054F000FAF7D7FE17E011F0004F04BF0026374639
:10550000E2D010F0004F19BF574F584E584F594E28
:10551000DAE74FF07C583846FAF771FE07465146F5
:105520003046FAF76CFE064641462846FAF7BFFEBB
:105530002146FAF764FE824621464046FAF7B7FE56
:105540002946FAF7B1FE514600E037E0FAF7E1FEEE
:10555000044604E021462846FAF7DBFE04460146ED
:10556000FAF7A5FE80464449FAF7A1FE4349FAF747
:1055700046FE4146FAF79BFE4149FAF740FE414696
:10558000FAF795FE3F49FAF73AFE4146FAF78FFEE1
:105590003D49FAF734FE054641462046FAF787FEB4
:1055A0002946FAF784FE3146FAF729FE2146FAF732
:1055B00026FE3946BDE8F047FAF721BE4FF07F429C
:1055C000B2EB400F28BFB2EB410F03D2BDE8F0476A
:1055D000FFF79DBC40EA01035B0008BF44F0FF41B8
:1055E0000AD0B2EB400F08BFB2EB410F06D125F055
:1055F000804024F0804105460C4629E7B2EB400F7D
:1056000012BF5FEA410245F0FF4004F000413FF461
:105610001FAF4A0092EA40033FF51AAF002AACBF21
:105620004FF09F464FF03E563146FAF740FE054692
:1056300031462046FAF73BFE04462846214607E756
:10564000DB0FC9BFDB0FC93FDB0F4940DB0F49C090
:105650000000C9BF22AAFDB90000C93F22AAFD3936
:105660000060ED3EC30ACE37000049C022AA7DBAD1
:105670000000494022AA7D3A2DAD65BD8FB8D53DC9
:105680000FB511BE61C84C3EA8AAAABE30B583B002
:105690000446FFF747FC05460020CDE9000002461E
:1056A00021466846FBF7D5F82846FFF751FCDDE9AF
:1056B000000103B030BD00002DE9F0410446E07860
:1056C00000F0C006E07800F03F05607800F00100CF
:1056D00098B1EF102846E91705EB5171C910A5EBF9
:1056E000C101491C01F0FF080B48006820B10A48BD
:1056F000414602683846904700BF607800F00800D5
:1057000030B10548406818B1B011034A5168884764
:105710000020BDE8F0810000C001002038B504463B
:1057200064B120208DF8000028208DF80100302081
:105730008DF8020038208DF8030004E0A322042134
:105740006846FAF7FFFC6A46042140F69E2001F005
:1057500045FB00F0BDFF38BD3EB5044602208DF884
:105760000000CA208DF80100E3208DF80200092016
:105770008DF803006A460421682001F02FFBA32066
:105780008DF8000004F0400048B1C0208DF8010001
:10579000C8208DF80200C2208DF8030006E0A32087
:1057A0008DF801008DF802008DF8030004F4C0703C
:1057B00048B1C4208DF80400CC208DF80500C62027
:1057C0008DF8060006E0A3208DF804008DF8050092
:1057D0008DF80600A3208DF807008DF808008DF8DD
:1057E00009006A460A2140F6A72001F0F7FA04F002
:1057F000030018B120208DF8000002E0D8208DF8B9
:1058000000006A46012140F6B62001F0E7FA04F0F4
:10581000200018B1012000F0ADF802E0002000F0F7
:10582000A9F804F4C07008B304F4807060B1B22029
:105830008DF800008B208DF80100B6208DF8020055
:105840009B208DF803000BE0B0208DF80000802035
:105850008DF80100B4208DF8020090208DF803002F
:105860006A46042140F6A22001F0B8FA04F00100D3
:1058700020B3F8208DF800006A4601214FF40B6038
:1058800001F0ACFAFA21072000F000FB072000F03D
:10589000C7FA012000F0E7FA642000F0C7FB4FF4DC
:1058A000FA7000F0D6FBC821304800F077FA2820C3
:1058B00000F090FA0A2000F0A0FA08E0D8208DF855
:1058C00000006A4601214FF40B6001F087FA04F0F2
:1058D000020018B1D9208DF8000002E0D8208DF820
:1058E00000006A46012140F23D7001F077FA04F0B1
:1058F000040018B1012000F069F802E0002000F077
:1059000065F804F0100018B10120FFF707FF02E06E
:105910000020FFF703FF44F008001549488100F01C
:10592000D7FE00201249887304F0400018B10846E1
:10593000807B801D887304F4C07020B10C48807B8C
:10594000801D0B49887304F0140020B10848807B47
:1059500010300749887304F0030020B10448807BAD
:10596000001D0349887300203EBD000009E3CA0200
:10597000C00100203EB504466CB10EA1D1E9002063
:105980008968CDE9002002916A4609214FF49760A9
:1059900001F024FA3EBD0AA2D2E900109268CDE9D6
:1059A000010200916A4609214FF4976001F016FA4E
:1059B000F0E70000B8AAB38DB4980D355D00000083
:1059C000B8AAAAAAB088C3C5C700000038B5044663
:1059D00064B1C0208DF80000C2208DF80100C42001
:1059E0008DF80200C6208DF8030004E08B2204210C
:1059F0006846FAF7A7FB6A46042140F6982001F0B2
:105A0000EDF900F065FE38BD10B5C8234FF4806293
:105A1000024940F6F63000F0EFFC10BD6C6F000854
:105A20002DE9F04F8DB00746884615469946DDE9C9
:105A3000166B0024002030806D49887B5A4605A9EA
:105A400000F0A6FD18B1601E0DB0BDE8F08F6848EB
:105A5000807A00F01400002867D09DF8140000063A
:105A60009DF8151040EA01409DF8161040EA01200B
:105A70009DF81710084328609DF8180000069DF84F
:105A8000191040EA01409DF81A1040EA01209DF8E3
:105A90001B10084368609DF81C0000069DF81D104F
:105AA00040EA01409DF81E1040EA01209DF81F10B9
:105AB0000843A8609DF8200000069DF8211040EAE8
:105AC00001409DF8221040EA01209DF82310084370
:105AD000E86004F11000C4B22868001401906868FE
