:020000040800F2
:10000000380D002001010008E55300085B390008A5
:10001000E1530008F10F0008A16300080000000090
:10002000000000000000000000000000C15A0008AD
:100030006110000800000000B5590008415D00088B
:100040001B0100081B0100081B0100081B01000820
:100050001B0100081B0100081B0100081B01000810
:10006000631000081B0100081B0100081B010008A9
:100070001B0100081B0100081B0100081B010008F0
:10008000F50F00081B0100081B0100081B010008F8
:100090001B0100081B0100081B0100081B010008D0
:1000A0001B0100081B0100081B0100081B010008C0
:1000B0001B010008B15D00081B0100087139000830
:1000C000613900081B0100081B0100081B01000822
:1000D0001B0100081B0100081B01000891630008B8
:1000E0001B0100081B0100081B010008DFF80CD0F1
:1000F00000F008FD00480047A1750008380D0020F9
:100100000648804706480047FEE7FEE7FEE7FEE7B1
:10011000FEE7FEE7FEE7FEE7FEE7FEE7AF5D00086D
:10012000ED000008202A04DB203A21FA02F0002129
:10013000704721FA02F3D040C2F1200291400843F7
:100140001946704740EA01039B0703D009E008C93C
:10015000121F08C0042AFAD203E011F8013B00F88C
:10016000013B521EF9D27047D2B201E000F8012BD8
:10017000491EFBD270470022F6E710B513460A4627
:1001800004461946FFF7F0FF204610BD10B50022C7
:1001900000E0521C835C8C5CA34201D1002BF8D19F
:1001A000D8B2E1B2401A10BD30B504460020034673
:1001B00000E05B1C934203D2E05CCD5C401BF8D0B6
:1001C00030BD000070B50F4D00B92868002412E062
:1001D0000A4602E09E4203D0521C1378002BF9D14C
:1001E000DAB2224305D02BB124B1002100F8011B63
:1001F00004E00446401C0678002EE9D12860204621
:1002000070BD0000B401002070B5064606F0F8F895
:10021000046805460A220021304600F08FFB2C605E
:1002200070BDF0B480EA0102D40F4200B2EB410F7E
:1002300002D20246084611464A0042D0C30DDDB242
:10024000C1F3C752AD1A202D35DAC1F3160141F4BE
:10025000000204B15242C5F1200602FA06F12A4119
:100260001044B3EBD05F23D0C4B1012DA0EBC35039
:1002700009DCF0BC4FF0004202EAC352DBB200F5E9
:10028000000000F09CBB400000F1807000EBC35008
:10029000A0F1807040EAD170490009E0490841EAC4
:1002A000C071A0EBC35000F50000400800EBC35044
:1002B000F0BC00F07BBB6142012202EB4101001B5C
:1002C000F6E7F0BC704781F00041AAE780F00040FB
:1002D000A7E780EA010210B502F00043400022D0F7
:1002E0004A001FD0010E01EB1261C0F35600C2F3A9
:1002F000560240F4000042F40002A0FB0220000479
:100300007F39140400D0401C50EA124001D4400050
:10031000491EC2B20C0604EBD010401C4008802AD3
:1003200002D003E0002010BD20F00100002900DA17
:100330000020184310BD30B480EA010202F00045ED
:1003400030F0004221F0004013D090B1C30DD40D25
:10035000C2F31601C0F31600E41A41F4000140F4A0
:1003600000027D34914201D3641C00E04900002C5E
:1003700002DA30BC002070474FF4000000239142A5
:1003800001D3891A034340084FEA4101F7D151B123
:10039000914202D14FF0004105E002D24FF001013D
:1003A00001E06FF0010103EBC450284430BC00F0C1
:1003B000FDBA2DE9FE4F804681EA0300C00F0C46CE
:1003C000009021F0004123F00045B8EB0200A94164
:1003D00005D24046214690461C460B46024623F075
:1003E0000040104347D0270DC7F30A00C3F30A515A
:1003F0000290401A019040286BDAC3F3130040F4D6
:10040000801B0098924620B10023D2EB030A63EBD5
:100410000B0B01985946C0F14002504600F01FFAFC
:1004200006460D4650465946019A00F027FA10EB51
:1004300008006141002487EA115284EAE7731A43F5
:1004400040D0009A62B3019A012A4FEA075215DCA4
:10045000001B61EB02014FF0004202EA0752CDE9B6
:100460000042001C41F5801132462B4600F0E4FAB0
:1004700003B0BDE8F08F40462146F9E7001B61EB71
:100480000201001C41F5801300185B412018A2F501
:10049000001747EB030140EAD570B6196D4111E032
:1004A0006D084FEA360645EAC0754FEA0752001B51
:1004B00061EB0201001C41F5801149084FEA300050
:1004C0000019514132462B4603B0BDE8F04F00F011
:1004D000A4BA0098012240000023D0EB020263EB93
:1004E000E073009821464FEAE074B8EB000061EB3E
:1004F0000401E9E783F000435BE781F0004158E73E
:100500002DE9FE4F81EA030404F0004421F000418C
:1005100000944FF0000B23F0004350EA01045ED03A
:1005200052EA03045BD0C3F30A54C1F30A552C44C6
:10053000A4F2F3340194A0FB0254C1F3130141F47B
:100540008011C3F3130343F4801301FB024400FB47
:10055000034E840A970A44EA815447EA8357A4FB6E
:10056000076802958D0A05FB07854FEA932C04FB6B
:100570000C542705029D4FEA065847EA1637B5EB9B
:1005800008056EEB070C870E920E47EA811742EAC8
:100590008312A7FB0201B6EB0B0164EB00042B0DE9
:1005A00043EA0C335E1844EB1C50DA465146E7FB35
:1005B0000201C5F313044FEA0B3343EA14534FEA25
:1005C0000432019C43EA0603A4F10C040294009C4B
:1005D000CDE900B400F030FA03B0BDE8F08F0020A0
:1005E0000146F9E72DE9F04D81EA030404F0004BE0
:1005F00021F0004514464FF0000A23F0004150EA74
:10060000050220D054EA01021DD0C5F30A57024664
:10061000C5F31303C1F31300C1F30A5640F4801568
:1006200043F48013A7EB0608101BD64608F2FD38EA
:1006300073EB050002D308F1010801E092185B4159
:10064000B8F1000F03DA00200146BDE8F08D00206C
:100650004FF48011064684460EE0171B73EB050726
:1006600005D3121B63EB050306434CEA010C490852
:100670004FEA300092185B4150EA0107EDD152EA8F
:10068000030012D082EA040083EA0501084305D082
:10069000101BAB4106D20122002306E000224FF0DE
:1006A000004302E06FF0010253101AEB06004CEB1E
:1006B000085110EB0A0041EB0B01BDE8F04D00F0D2
:1006C000ACB9C10F80EAE0700844CA079623002144
:1006D00000F075B996230022114600F070B90EB5EE
:1006E000C10F80EAE0700844CA07002140F233439A
:1006F0008DE80E000A460B4600F09EF903B000BDDF
:100700000EB540F2334102910021CDE900110A46B5
:100710000B4600F091F903B000BD20F00040C10D80
:10072000C0F3160040F400007F2901DA0020704772
:10073000962903DCC1F19601C8407047963988407C
:10074000704700F0004230F000400AD0C10D01F5C2
:100750006071C0F3160042EA0151C208400711431C
:10076000704700200146704730B5041E71F1000447
:1007700004DB4FF00044404264EB0101141E73F1AE
:10078000000405DB1C464FF00043524263EB0403B8
:10079000994208BF904230BD01F0004330B421F0CF
:1007A000004150EA010206D00A0DA2F56072C1F3C1
:1007B0001301002A02DC30BC00207047440F44EAD9
:1007C000C104C100E01830BC00EBC25000F0EEB82C
:1007D00030B50B46014600202022012409E021FA11
:1007E00002F59D4205D303FA02F5491B04FA02F50E
:1007F0002844151EA2F10102F1DC30BD2DE9F05FA5
:100800000546002092469B4688460646814640247F
:100810001BE02846414647462246FFF783FC5346E5
:100820005A46C01A914110D311461846224600F08C
:1008300016F82D1A67EB01084F46224601200021C9
:1008400000F00DF817EB00094E41201EA4F1010441
:10085000DFDC484631462A464346BDE8F09F202A61
:1008600004DB203A00FA02F1002070479140C2F107
:10087000200320FA03F3194390407047202A06DB37
:10088000CB17203A41FA02F043EAE07306E041FA5E
:1008900002F3D040C2F1200291400843194670474C
:1008A0000FB4002300B589B00CA900910B996FF02B
:1008B0000042CB601E4B06931E4B07930423CDE9E9
:1008C00001321D4A089202466B46002000F0CEF924
:1008D00009B05DF814FB70B586B006464FF0FF30E6
:1008E0000091CDE90101002015460C4604903246E6
:1008F000694604A8FFF7D4FF02460498211825B1E1
:1009000008B1084600E020462860049800280DD071
:10091000002A02DD0098884208D0081B0094CDE927
:1009200001043246694604A8FFF7BAFF06B070BD5D
:10093000A50E0008C30E0008310B00082DE9F04792
:1009400091460F4680460446002614F8015B2DB1FF
:1009500000F0EAF80068405DC007F6D12B2D02D008
:100960002D2D18D0641E4A463946204600F0BAFAAA
:1009700027B13968A14201D1C7F8008071054FF055
:1009800002040BD54042002803DD05F039FD046068
:10099000A007BDE8F08746F48066E4E70028F8DAAF
:1009A00005F02EFD04606FF00040F2E70029A8BFBB
:1009B0007047401C490008BF20F00100704710B488
:1009C000B0FA80FC00FA0CF050EA010404BF10BC3D
:1009D000704749B1CCF1200421FA04F411FA0CF16A
:1009E00018BF012121430843A3EB0C01CB1D4FEAA3
:1009F00000614FEA102042BF002010BC704700EB9E
:100A0000C35010440029A4BF10BC7047401C4900CB
:100A100008BF20F0010010BC704710B5141E73F120
:100A2000000408DA401C41F1000192185B411A43AE
:100A300001D120F0010010BD2DE9F04D92469B46FA
:100A400011B1B1FA81F202E0B0FA80F220329046A0
:100A5000FFF705FF04460F4640EA0A0041EA0B0192
:100A600053465A46084313D0114653EA010019D0A1
:100A7000C8F140025046FFF755FB05460E4650466A
:100A800059464246FFF7EBFE084305D0012004E03B
:100A900020463946BDE8F08D0020054346EAE07661
:100AA0002C4337430A986305E40AA0EB08000022B0
:100AB000FD0A44EA47540A3002D500200146E9E71E
:100AC000010510196941DDE9084500196941BDE8D2
:100AD000F04DA2E7C1F30A52C1F3130140F2FF3314
:100AE00041F480119A4202DA00200146704740F238
:100AF00033439A42A2F2334202DC5242FFF712BB66
:100B0000FFF7ADBE064C074D06E0E06840F001037C
:100B100094E8070098471034AC42F6D3FFF7EAFA9E
:100B20003097000850970008004870472C9700083D
:100B300010B50446FFF7F8FF0068005D00F0010003
:100B400010BD00002DE9FF4F087883B09946FF28BB
:100B500005D0491C2D2804D00024002008E00020E6
:100B60000BE00124F9E700EB800003EB4000491C97
:100B70000B78FF2BF7D104B1404200230293147885
:100B800019461D462D2C01D02B2C04D1521C2D2C86
:100B900013D000240294AA461478FF2C0FD00A2503
:100BA000A3FB057801FB05814FF0000C03FB0C1142
:100BB000521CE3194AEB0101EEE70124EAE7814404
:100BC00053EA010002D019F5C87F06DA0398002124
:100BD000C0E9001107B0BDE8F08F0025AE4E2F46EA
:100BE000DFF8B882184600F0DAF9CDE90001B9F172
:100BF000000002DAC9F1000400E004460023A74A1D
:100C00001AEB030B42EB045A12E0E00707D02A4626
:100C1000334638464146FFF773FC074688462A4666
:100C2000334610461946FFF76BFC05460E46641026
:100C3000002CEAD1DDE90001B9F1000F5A46534614
:100C400006DAFFF7CFFC3A464346FFF7CBFC05E058
:100C5000FFF756FC3A464346FFF752FC029A0AB1A8
:100C600081F00041039AC2E90001B3E72DE9FF4F8B
:100C70001F468DB0D7E901464FF0FF382E2045467C
:100C80004FF000090B90B9696D1C0E988847396ABE
:100C9000824688470028F6D1BAF1FF3F0AD024F4F3
:100CA000D064002E11DDBAF12B0F08D0BAF12D0F50
:100CB0000BD102E0404611B08DE744F48064B9697D
:100CC0006D1C0E9888478246761E6946600501D5E0
:100CD0002D2000E02B208DF8000001F1010B0DF11B
:100CE000200809E0B9696D1C0E98884782460F9864
:100CF00044F40074761E0560002E02DDBAF1300F58
:100D0000F0D00B998A453ED144F0800406E00F995B
:100D1000681CA9F1010944F400740860B9696D1CEC
:100D2000761E0E98884782463028F0D02BE00B992B
:100D30008A4505D1200603D444F08004761E18E0CD
:100D4000504605F03FFC08B30DF11301761E44F444
:100D500000748B4508D2AAF130000BF8010B200675
:100D600007D5A9F1010003E0200602D409F1010032
:100D70008146A00502D50F99681C0860B9696D1CF1
:100D80000E9888478246002ED1DC53E0002E51DDBC
:100D9000BAF1650F02D0BAF1450F4BD1A00549D584
:100DA000B9696D1C24F44074761E0E9888478246FB
:100DB000002E0CDD2B2804D0BAF12D0F07D144F4FE
:100DC0008074B9696D1C0E9888478246761EE005CE
:100DD00001D52D2100E02B2108F8011BCDF82C8036
:100DE00021E00DF12901761E44F4007488450CD2EF
:100DF000AAF1300010F0FF0088F8000002D10B9932
:100E0000884509D908F1010806E0E00501D5244824
:100E100001E042F20F708146B9696D1C0E98884757
:100E200082460F980560002E04DD504605F0CAFB8F
:100E30000028D6D1F9690E988847FF208BF800006A
:100E400088F800000020069007904B466A4608A9E3
:100E500006A8FFF777FEA00502D46FF001002AE78D
:100E600014F0240F0AD0E00714D1DDE90612386827
:100E7000031D3B600068C0E900120BE0DDE90601DC
:100E8000FFF78AFC0146E00704D13868021D3A608A
:100E90000068016028460EE7000014400000F03FA3
:100EA000F1D8FFFF426842B1016811F8013B23B15C
:100EB000521EC0E90012184670470121C160881E09
:100EC000704742685AB1C368016843B983688B426E
:100ED00005D0491E521CC0E90012002070474FF097
:100EE000FF3070472DE9F05F8246007800271546F5
:100EF0008B460AF10104B946302801D09DB113E0B8
:100F000014F8010B0127782803D0582801D045B1E7
:100F10000AE00DB1102D07D10027102514F8010BA0
:100F200002E0082500E00A250026B0460EE005FB99
:100F3000080005FB06F1012701EB10461FFA80F8B7
:100F4000B6F5803F00D3B94614F8010B294600F0EE
:100F500018F80028EBDABBF1000F05D00FB1641EC2
:100F600000E05446CBF80040B9F1000F06D005F080
:100F700047FA02210160C81EBDE8F09F48EA06401A
:100F8000FAE73A2800D2303820F02002412A01D373
:100F9000A2F13700884201D34FF0FF3070470EB501
:100FA00040F2334202920022CDE900221346FFF7BD
:100FB00043FD03B000BD30B58C1810F8012B12F0C2
:100FC0000F0301D110F8013B120906D110F8012BD3
:100FD00003E010F8015B01F8015B5B1EF9D101E051
:100FE00001F8013B521EFBD1A142E6D3002030BDE7
:100FF00000BFFEE710B5024800F0C2F810BD0000C7
:101000008807002030B590F840500124AC40C56BF3
:101010006C60046863604468102C04D10468A260AA
:101020000468E16003E00468A1600468E26030BD28
:101030000948006840F08070074908600748006868
:1010400020F001000549086000204860084600685B
:1010500040F0010008607047FCED00E0001000E087
:10106000704710B5042000F041FA10BD72B600BF01
:10107000FEE70146002291F82100022808D0042052
:10108000886300BF002081F8200000BF0120704766
:101090000868006820F00E000B6818600868006897
:1010A00020F001000B68186091F840300120984052
:1010B000CB6B5860012081F8210000BF002081F82F
:1010C000200000BF1046E2E770B50446002594F802
:1010D0002100022803D00420A063012548E02068F5
:1010E000006820F00E00216808602068006820F089
:1010F0000100216808601F492068884201D1012051
:1011000026E01C4914312068884201D110201FE0DC
:10111000184928312068884201D1801518E0154906
:101120003C312068884201D1801411E011495031CE
:101130002068884202D14FF4803009E00D496431C3
:101140002068884202D14FF4801001E04FF0807097
:10115000084908394860012084F8210000BF0020B8
:1011600084F8200000BF606B10B12046616B884797
:10117000284670BD08000240014691F821007047E2
:1011800070B50446E06B05682068066894F8401066
:10119000042088402840002846D006F0040000289B
:1011A00042D02068006800F0200028B9206800685C
:1011B00020F004002168086057492068884201D166
:1011C000042027E0544914312068884201D140208E
:1011D00020E0514928312068884201D1001519E0EA
:1011E0004D493C312068884202D14FF4804011E0E3
:1011F000494950312068884202D14FF4802009E0EB
:10120000454964312068884202D14FF4800001E0F2
:101210004FF08060404908394860E06A00287AD081
:101220002046E16A884776E094F840100220884022
:101230002840A0B306F0020088B32068006800F0E0
:10124000200040B92068006820F00A00216808608A
:10125000012084F8210030492068884201D1022011
:1012600028E02D4914312068884201D1202021E056
:10127000294928312068884201D140151AE02649C1
:101280003C312068884202D14FF4005012E02249DC
:1012900050312068884203D14FF400300AE017E053
:1012A0001D4964312068884202D14FF4001001E0EA
:1012B0004FF0007018490839486000BF002084F8DA
:1012C000200000BFA06A30B32046A16A884722E010
:1012D00094F84010082088402840E0B106F008004B
:1012E000C8B12068006820F00E002168086094F8FA
:1012F000401001208840E16B48600120A06384F821
:10130000210000BF002084F8200000BF206B10B136
:101310002046216B884770BD08000240014600222C
:1013200009B901207047164B0868C01A1423B0FB96
:10133000F3F08000086412480838C863022081F87E
:1013400021000868026843F6F0708243D1E9010386
:101350001843CB6818430B6918434B6918438B69D2
:101360001843CB6918430243086802600020886371
:10137000012081F82100002081F8200000BFD1E782
:10138000080002402DE9F04104460D4616461F466E
:101390004FF0000800BF94F82000012802D102207D
:1013A000BDE8F081012084F8200000BF94F82100FE
:1013B00001282CD1022084F821000020A06320689D
:1013C000006820F00100216808603B46324629464B
:1013D0002046FFF717FEE06A30B12068006840F051
:1013E0000E00216808600BE02068006820F004000F
:1013F000216808602068006840F00A0021680860E1
:101400002068006840F001002168086006E000BF25
:10141000002084F8200000BF4FF002084046BFE7DC
:1014200070B5044600F00EFA06462546681C10B159
:1014300004480078054400BF00F004FA801BA8426D
:10144000FAD370BDAC01002070B5044601F008F875
:101450000749B0FBF1F000FB04F54FF0E02086698E
:1014600000BF4FF0E0208069301AA842F9D370BD68
:1014700040420F002DE9F04782460421144800F055
:10148000D3F9012807D100201249096848621148A0
:1014900001F064FB1AE00F4801F0D2FB0D48006830
:1014A000406A0D49088008460088FFF729F9804600
:1014B0000A4A0B4BFFF724F806460022094BFFF7B8
:1014C00091F80446FFF768F907490860BDE8F0871E
:1014D000000801405C080020580000209CC420B097
:1014E0007268913F000059405C00002010B504462E
:1014F00004480068204020B1024804602046FFF7FD
:10150000B9FF10BD140401402DE9F847034600223D
:1015100094466EE14FF0010808FA02F4D1F8008019
:1015200008EA0400A0427DD1DFF8DCA2D1F80480F3
:10153000A8EB0A09D0453AD014DCB8F1030F50D01B
:1015400009DCB8F1000F31D0B8F1010F1CD0B8F1AF
:10155000020F49D120E0B8F1110F18D0B8F1120FE5
:1015600042D11EE0B9F5881F25D006DCB9F5803FD1
:1015700020D0B9F5801F37D11AE0B9F5001F18D077
:10158000B9F5041F30D117E0D1F80CC02DE0D1F827
:101590000C8008F1040C28E0D1F80C8008F1080C4C
:1015A00023E0D1F80C8008F10C0C1EE000BF00BF56
:1015B00000BF00BF00BF00BFD1F80880B8F1000F26
:1015C00002D14FF0040C0BE0D1F80880B8F1010F04
:1015D00003D14FF0080C1C6102E04FF0080C5C6175
:1015E00003E04FF0000C00E000BF00BFFF2801D86F
:1015F000984601E003F104084646FF2802D84FEA66
:10160000820803E0A2F108084FEA88084746D6F8A6
:1016100000804FF00F0909FA07F928EA09080CFAC7
:1016200007F900E088E048EA0908C6F80080D1F828
:10163000048008F08058B8F1805F7DD100BFDFF8EA
:10164000CC81D8F8188048F00108DFF8C091C9F8BB
:101650001880C846D8F8188008F00108CDF8008036
:1016600000BF00BF4FEAB9384FEA920958F8295035
:101670004FEA82784FEA18794FF00F0808FA09F814
:1016800025EA0805DFF88881434502D14FF00008BC
:1016900016E0DFF88081434502D14FF001080FE0EA
:1016A000DFF87481434502D14FF0020808E0DFF80B
:1016B0006C81434502D14FF0030801E04FF004086C
:1016C0004FEA82794FEA197908FA09F848EA0505DC
:1016D000DFF84C814FEA920948F82950D1F804808C
:1016E00008F48018B8F5801F0AD1DFF83881D8F8DF
:1016F000008048EA0008DFF82C91C9F8008009E072
:10170000DFF82081D8F8008028EA0008DFF814917B
:10171000C9F80080D1F8048008F40018B8F5001F5B
:1017200010D1DFF8008108F10408D8F8008048EAF9
:101730000008DFF8F09000E05AE009F10409C9F868
:1017400000800DE0DFF8DC8008F10408D8F80080A4
:1017500028EA0008DFF8CC9009F10409C9F80080F4
:10176000D1F8048008F40038B8F5003F0ED1DFF856
:10177000B480A8F10408D8F8008048EA0008DFF82F
:10178000A490A9F10409C9F800800DE0DFF8948065
:10179000A8F10408D8F8008028EA0008DFF884904F
:1017A000A9F10409C9F80080D1F8048008F4803850
:1017B000B8F5803F0ED1DFF86C80A8F10808D8F8A2
:1017C000008048EA0008DFF85C90A9F10809C9F830
:1017D00000800DE0DFF84C80A8F10808D8F8008000
:1017E00028EA0008DFF83C90A9F10809C9F8008050
:1017F000521CD1F8008028FA02F8B8F1000F7FF4EB
:1018000089AEBDE8F887000000001110001002400A
:1018100000080140000C014000100140001401408C
:101820000800014008040140024693680B400BB1D8
:10183000012000E0002070470AB1016101E00B04C3
:10184000036170470148006870470000A401002050
:10185000704770472DE9F84F0446206847692068B3
:10186000D0F80480002594F83E90C7F3002070B1B2
:10187000C8F3002058B145F001056FF4807021686D
:1018800048612068006840F4004021680860C7F3A0
:10189000402040B1C8F3002028B145F002056FF4A4
:1018A000007021684861C7F3802070B3C8F300203E
:1018B00058B3CA46B4F82AB094F83D60206B009043
:1018C000BAF1200F0FD1BBF1000F0CD1212E06D0A1
:1018D000292E04D0282E06D10098212803D1204695
:1018E00002F070FF11E06FF480602168486145F0FC
:1018F0000405B9F1100F02D0B9F1400F05D12068ED
:10190000006840F4007021680860C7F3C02040B14F
:10191000C8F3002028B145F008056FF40060216885
:1019200048612DB1206C28432064204602F07EF9E6
:10193000BDE8F88F2DE9F04705464FF0000928680B
:101940004668D5F82CA095F83E7095F83D80102F8C
:1019500001D0402F75D12868D0F8189028684469C4
:1019600004F0010060B9BAF52A0F02D0BAF12A4F8B
:1019700001D1012000E00020012801D1BDE8F0875D
:1019800004F0010048B1C6F3402030B1284601F010
:10199000F7FF284602F0CBFDB7E0C4F3C00030B13A
:1019A000C6F3402018B1284602F06CFCADE0C4F349
:1019B000400030B1C6F3402018B1284602F077FC51
:1019C000A3E0C9F3800040B32868406800F40060D9
:1019D000B0F5006FE0D0C4F3C01048B1C6F380206A
:1019E00030B1C4F3800018B9284602F0DFFB8CE068
:1019F000C4F380000028CFD0C6F340200028CBD00D
:101A0000B8F1210F03D1284602F080FB7DE0402F82
:101A10007BD1284602F0DAFD77E02868406800F4C0
:101A20000060B0F5006F70D0C4F3801050B1C6F301
:101A3000802038B1C4F3800020B9284602F083FA30
:101A400063E00BE0C4F3800000285ED0C6F34020C2
:101A500000285AD0284602F0DEF956E0286C10B172
:101A60002868446904E02868D0F818902868446918
:101A7000C4F3400060B1C6F3402048B1286C10B1F7
:101A80002868D0F818904946284602F062FE3CE0EB
:101A9000C4F3001030B1C6F3402018B1284602F05C
:101AA000E5FE32E0B8F1210F02D0B8F1290F16D1CE
:101AB000C4F3C01048B1C6F3802030B1C4F3800035
:101AC00018B9284602F022FE1FE0C4F38000E0B1FE
:101AD000C6F34020C8B1284602F00BFE15E0C4F35F
:101AE000801048B1C6F3802030B1C4F3800018B92B
:101AF000284602F0DBFD08E0C4F3800028B1C6F3FD
:101B0000402010B1284602F0C4FD00BF36E7704700
:101B100070B504460CB9012070BD94F83D0028B999
:101B2000002084F83C00204600F08AFA242084F843
:101B30003D002068006820F00100216808602068EE
:101B4000006840F40040216808602068006820F4C4
:101B500000402168086000F089FC05465C49606827
:101B6000884206D85B48854201D2012007E0002068
:101B700005E05948854201D2012000E000200128FB
:101B800000D1C9E75548B5FBF0F62068406820F061
:101B90003F003043216848604D496068884201D861
:101BA000701C07E04FF4967070434FF47A71B0FBED
:101BB000F1F0401C2168096A21F03F0108432168C7
:101BC000086243496068884214D8681E6168490009
:101BD000B0FBF1F0401CC0F30B00042801D204203C
:101BE0003DE0681E61684900B0FBF1F0401CC0F3A5
:101BF0000B0034E0A06838B9681E616801EB410150
:101C0000B0FBF1F0401C0AE0681E616801EBC10204
:101C100002EB0111B0FBF1F0401C40F48040C0F336
:101C20000B0008B901201AE0A06848B9681E616875
:101C300001EB4101B0FBF1F0401CC0F30B000CE0E4
:101C4000681E616801EBC10202EB0111B0FBF1F00B
:101C5000401CC0F30B0040F4804040F40040216879
:101C6000C9694CF6FF72914308432168C861D4E901
:101C7000070108432168096821F0C0010843216871
:101C80000860D4E9031008432168896848F2FF32EC
:101C90009143084321688860D4E90501084321681D
:101CA000C96821F0FF0108432168C8602068006806
:101CB00040F001002168086000202064202084F8A2
:101CC0003D000020206384F83E0000BF24E70000B0
:101CD000A086010080841E0000093D0040420F00E4
:101CE00070477047054A0168914205D10121044AB5
:101CF00011700021034A51707047000000540040E9
:101D000000000020020000202DE9F8430446894627
:101D100016461F46DDF82080FFF794FD054694F82F
:101D20003D0020287ED119230122514920460095EB
:101D300002F095FE10B10220BDE8F88300BF94F8D0
:101D40003C00012801D10220F6E7012084F83C0084
:101D500000BF2068006800F0010028B92068006812
:101D600040F00100216808602068006820F40060ED
:101D700021680860212084F83D00102084F83E008E
:101D80000020206466626785608D20853948E062A6
:101D90002B4642464946204602F058F908B1012038
:101DA000CAE700BF002000902068406900902068CA
:101DB0008069009000BF00BF44E02A4641462046AB
:101DC00002F052FF50B1206C042805D12068006851
:101DD00040F40070216808600120ADE7606A007877
:101DE00021680861606A401C6062608D401E6085E9
:101DF000208D401E208520684069C0F3800070B1AE
:101E0000208D60B1606A007821680861606A401CBA
:101E10006062608D401E6085208D401E20852A46B0
:101E2000414600E022E0204602F0E6FD50B1206C81
:101E3000042805D12068006840F40070216808601B
:101E4000012079E7208D0028B7D12068006840F490
:101E5000007021680860202084F83D00002084F88C
:101E60003E0000BF84F83C0000BF65E7022063E746
:101E7000020010000000FFFF2DE9F84304460E4663
:101E8000174698460020009094F83D0020286FD116
:101E9000664800681921B0FBF1F04FF47A71B0FB8D
:101EA000F1F000EBC00101EB0010009000BF0098C2
:101EB000401E0090009870B900202063202084F814
:101EC0003D00002084F83E00206C40F0200020649B
:101ED0000220BDE8F88320688069C0F34000002834
:101EE000E5D100BF94F83C00012801D10220F0E7C1
:101EF000012084F83C0000BF2068006800F0010069
:101F000028B92068006840F0010021680860206856
:101F1000006820F4006021680860212084F83D00FA
:101F2000102084F83E00002020646762A4F82A8014
:101F3000608D20853E48E0626664208D002859D07F
:101F4000606BB0B13B48616B88623B48616B086372
:101F50000020616BC862616B4863238DD4F800C0B8
:101F60000CF11002616A606BFFF70CFA054611E094
:101F700059E0202084F83D00002084F83E00206CC9
:101F800040F08000206400BF002084F83C0000BFC7
:101F900001209EE7EDB900BF002084F83C0000BF9F
:101FA0002068406840F440702168486020684068BC
:101FB00040F40060216848602068006840F4806058
:101FC000216808602068006840F48070216808601B
:101FD00027E0202084F83D00002084F83E00206C9B
:101FE00040F01000206400BF002084F83C0000BFD7
:101FF00001206EE72068006840F480602168086076
:102000002068006840F480702168086000BF0020EC
:1020100084F83C0000BF2068406840F4E06021681C
:102020004860002055E7022053E70000B00100207F
:102030000000FFFFDB3A0008953A00087047704740
:1020400010B586B0044600200290039004900590DD
:102050003049206888425AD100BF2F48806940F03B
:1020600008002D4988610846806900F00800019049
:1020700000BF00BF4FF44070029012200390032075
:10208000059002A92548FFF73FFA00BF2449486898
:1020900040F0E06040F00200486000BF00BF1E4812
:1020A000C06940F400101C49C8610846C06900F4CA
:1020B0000010019000BF00BF1A481B4908601020A3
:1020C00048600021184881608021C16000210161C1
:1020D000416181614FF40051C161FFF71FF908B1FF
:1020E000FEF7C4FF00BF10486063446200BF0022D7
:1020F00002211F2000F09CF81F2000F089F8002228
:102100000221202000F094F8202000F081F806B091
:1021100010BD00000054004000100240000C0140BF
:10212000000001406C0002408807002070477047A3
:10213000034800680349097808440149086070476A
:10214000A4010020AC01002010B50848006840F050
:10215000100006490860032000F0A8F8002000F0F5
:1021600007F800F02BF8002010BD0000002002400E
:1021700070B504460E4800784FF47A71B1FBF0F068
:102180000C490968B1FBF0F5284600F0F9FB08B1ED
:10219000012070BD102C07D200222146501E00F0F5
:1021A00047F80548046001E00120F2E70020F0E76D
:1021B000AC010020B0010020A801002008B500BF3C
:1021C0001148806940F001000F4988610846806924
:1021D00000F00100009000BF00BF00BF0846C069CA
:1021E00040F08050C8610846C06900F080500090FF
:1021F00000BF00BF00BF0549486820F0E06040F024
:102200000070486000BF08BD00100240000001409F
:1022100001460846002809DB00F01F0301229A400E
:1022200043099B0003F1E023C3F8002100BF70477E
:102230002DE9F05F80460D461646002704F0C4F8ED
:10224000074639462A46334601F00700C0F1070A1F
:10225000BAF1040F02D94FF0040A01E0C0F1070AF5
:10226000D14600F1040ABAF1070F02D24FF0000A7A
:1022700001E0A0F1030AD4464FF0010A0AFA09FA74
:10228000AAF1010A0AEA020A0AFA0CFA4FF0010B53
:102290000BFA0CFBABF1010B0BEA030B4AEA0B0444
:1022A0002146404604F098F8BDE8F09F00BF00F0DA
:1022B0000702064B19684FF6FF031940044B0B4306
:1022C00043EA0221014B196000BF70470CED00E0AA
:1022D0000000FA0570B504460D460CB9012070BD2A
:1022E0005A48006800F00700A8420ED2574800681C
:1022F00020F007002843554908600846006800F0B0
:102300000700A84201D00120E9E7207800F0020090
:1023100002281DD1207800F00400042805D14C4883
:10232000406840F4E0604A494860207800F00800C6
:10233000082805D14648406840F460504449486048
:102340004348406820F0F000A168084340494860D5
:10235000207800F0010078B36068012806D13C487D
:10236000006800F4003090B90120B8E760680228E6
:1023700006D13748006800F0007040B90120AEE790
:102380003348006800F0020008B90120A7E7304890
:10239000406820F00300616808432D494860FFF75A
:1023A00051FA064609E0FFF74DFA801B41F28831E9
:1023B000884202D9032092E707E02548406800F0F0
:1023C0000C006168B0EB810FEDD12048006800F08F
:1023D0000700A8420ED91D48006820F007002843D6
:1023E0001A4908600846006800F00700A84201D0BA
:1023F000012074E7207800F00400042807D1144875
:10240000406820F4E060E1680843114948602078A2
:1024100000F00800082808D10D48406820F46050FA
:10242000216940EAC1000A49486000F03FF80849C4
:102430004968C1F30311074A515CC8400649086066
:1024400006480068FFF794FE002048E7002002409D
:102450000010024090960008B0010020A801002062
:102460000148006870470000B001002000B5FFF788
:10247000F7FF04494968C1F30221034A515CC8408F
:1024800000BD000000100240A096000800B5FFF754
:10249000E7FF04494968C1F3C221034A515CC840BF
:1024A00000BD000000100240A096000870B5002199
:1024B0000022002400230020134D696801F00C0560
:1024C000F5B1042D02D0082D19D101E00F4819E013
:1024D0000F4DC1F38346AB5D01F4803555B10A4D14
:1024E0006D68C5F340450B4E725D084D5D43B5FB0D
:1024F000F2F402E0084D03FB05F4204602E000BFC1
:10250000024800BF00BF70BD0010024000127A00F8
:102510007E9600088E96000800093D00F8B5044636
:102520000CB90120F8BD207800F00100002878D017
:10253000F848406800F00C0004280CD0F5484068CA
:1025400000F00C00082811D1F248406800F48030F7
:10255000B0F5803F0AD1EF48006800F40030002851
:102560005FD0606800285CD10120DBE700BF6068B5
:10257000B0F5803F06D1E748006840F48030E54977
:10258000086028E0606858B9E248006820F48030AC
:10259000E04908600846006820F4802008601AE0DE
:1025A0006068B0F5A02F0BD1DA48006840F48020B5
:1025B000D84908600846006840F4803008600AE0A6
:1025C000D448006820F48030D2490860084600688A
:1025D00020F48020086000BF606888B1FFF732F9FE
:1025E000054606E0FFF72EF9401B642801D90320B9
:1025F00098E7C848006800F400300028F2D010E0E6
:10260000FFF720F9054606E0FFF71CF9401B642898
:1026100001D9032086E7BF48006800F40030002895
:10262000F2D1207800F00200022857D1B948406862
:1026300000F00C0050B1B748406800F00C000828CA
:1026400018D1B448406800F4803098B9B1480068A7
:1026500000F0020020B12069012801D0012061E7CB
:10266000AC48006820F0F800616940EAC100A9495F
:10267000086033E02069E8B10120A7490860FFF74E
:10268000E1F8054606E0FFF7DDF8401B022801D916
:10269000032047E79F48006800F002000028F2D0BE
:1026A0009C48006820F0F800616940EAC10099493F
:1026B000086013E0002098490860FFF7C3F805465A
:1026C00006E0FFF7BFF8401B022801D9032029E7E5
:1026D0009048006800F002000028F2D1207800F055
:1026E000080008282DD1A069B8B101208B490860E5
:1026F000FFF7A8F8054606E0FFF7A4F8401B0228FC
:1027000001D903200EE78348406A00F00200002848
:10271000F2D0012003F050F913E000207F49086057
:10272000FFF790F8054606E0FFF78CF8401B0228FB
:1027300001D90320F6E67748406A00F0020000283D
:10274000F2D1207800F00400042873D100277148EA
:10275000C06900F0805070B900BF6E48C06940F099
:1027600080506C49C8610846C06900F080500090F4
:1027700000BF00BF01276A48006800F48070B0B94C
:102780006748006840F4807065490860FFF75AF8B0
:10279000054606E0FFF756F8401B642801D90320E0
:1027A000C0E65F48006800F480700028F2D000BFE7
:1027B000E068012806D15748006A40F001005549F9
:1027C000086227E0E06858B95248006A20F001002A
:1027D000504908620846006A20F00400086219E0C7
:1027E000E06805280BD14B48006A40F004004949D5
:1027F00008620846006A40F0010008620AE04548A5
:10280000006A20F00100434908620846006A20F08F
:102810000400086200BFE068A0B1FFF713F80546A6
:1028200009E0FFF70FF8401B41F28831884202D9D6
:10283000032077E622E03748006A00F00200002813
:10284000EFD012E0FEF7FEFF054608E0FEF7FAFFC4
:10285000401B41F28831884201D9032062E62D48AD
:10286000006A00F002000028F0D1012F05D12948AC
:10287000C06920F080502749C86100BFE069C8B333
:102880002448406800F00C00082860D0E069022865
:1028900048D1002020490866FEF7D4FF054606E02F
:1028A000FEF7D0FF401B022801D903203AE6194861
:1028B000006800F000700028F2D1206AB0F5803F77
:1028C00007D11448406820F40030A168084311493A
:1028D0004860D4E9080108430E49496821F474119D
:1028E00008430C49486001200B490866FEF7AAFF1F
:1028F000054607E03DE0FEF7A5FF401B022801D991
:1029000003200FE60348006800F000700028F2D0B2
:102910002FE00000001002400000424280044242CA
:1029200000700040002014490866FEF78BFF054642
:1029300006E0FEF787FF401B022801D90320F1E5DE
:102940000E48006800F000700028F2D111E0E06944
:10295000012800D1E6E50948466806F48031206A7E
:10296000814204D106F47011606A814201D00120D5
:10297000D8E50020D6E500000000424200100240E9
:1029800070B504462546681EB0F1807F01D3012052
:102990000FE0681E4FF0E02148610F214FF0FF303B
:1029A00003F01AFD00204FF0E02188610720086144
:1029B000002070BD7047704710B50346002200BF6D
:1029C00093F83C00012801D1022010BD012083F8BA
:1029D0003C0000BF22F0FF00CC6840EA040222F471
:1029E00040708C6840EA040222F480604C6840EA3F
:1029F000040222F400600C6840EA040222F48050D1
:102A00000C6940EA040222F400504C6940EA0402D6
:102A100022F48040CC6940EA04021868426400BF96
:102A2000002083F83C0000BF00BFCEE730B502466F
:102A30000B4600BF92F83C00012801D1022030BDB6
:102A4000012082F83C0000BF022082F83D0010689F
:102A500044681068816824F07004186804431068A2
:102A60004460104D1068A8420BD01068B0F1804F40
:102A700007D00D4D1068A84203D00C4D1068A84235
:102A800005D121F080015868014310688160012060
:102A900082F83D0000BF002082F83C0000BF00BF6C
:102AA000CDE70000002C0140000400400008004079
:102AB00010B504460CB9012010BD94F83D0028B9AA
:102AC000002084F83C00204600F026F8022084F81C
:102AD0003D00211D206803F073F9012084F84600B1
:102AE00000BF84F83E0001213F20015540200155E0
:102AF0004120015500BF00BF012084F8420043205F
:102B00000155442001554520015500BF012084F89E
:102B10003D000020D0E7000038B504460D4920688C
:102B2000884215D100BF0C48C06940F002000A4934
:102B3000C8610846C06900F00200009000BF00BFF5
:102B4000002211461D20FFF773FB1D20FFF760FBDD
:102B500038BD00000004004000100240014691F81A
:102B60003D00012801D001207047022081F83D007E
:102B7000124B086898420BD00868B0F1804F07D01C
:102B80000F4B0868984203D00E4B086898420CD14E
:102B90000868806800F00702062A0CD00868006800
:102BA00040F001000B68186005E00868006840F01C
:102BB00001000B6818600020D6E70000002C0140DF
:102BC0000004004000080040014691F83D00012843
:102BD00001D001207047022081F83D000868C068DC
:102BE00040F001000B68D860124B086898420BD087
:102BF0000868B0F1804F07D00F4B0868984203D0A7
:102C00000E4B086898420CD10868806800F00702F3
:102C1000062A0CD00868006840F001000B681860B4
:102C200005E00868006840F001000B6818600020AB
:102C3000D0E70000002C01400004004000080040E4
:102C4000014600BF0868006A41F21112104050B9F5
:102C50000868006A9210104028B90868006820F0DF
:102C600001000A68106000BF012081F83D000020CB
:102C700070472DE9F04104460D46002700BF94F847
:102C80003C00012802D10220BDE8F081012084F837
:102C90003C0000BF022084F83D002068866826F0D2
:102CA000770626F47F46206886602868502833D04F
:102CB0000CDC202850D004DC00284BD0102851D147
:102CC00049E0302849D040284CD139E060282DD047
:102CD000702807D0B0F5805F03D0B0F5005F41D118
:102CE0000DE041E0D5E902136A68206803F0BBF803
:102CF0002068866846F077062068866034E0D5E96B
:102D000002136A68206803F0AEF82068806840F417
:102D100080402168886027E0EA686968206803F0DD
:102D200073F95021206803F0A9F81DE0EA6869688A
:102D3000206803F07CF96021206803F09FF813E01D
:102D4000EA686968206803F05FF94021206803F0B1
:102D500095F809E000BF00BF00BF2968206803F0B4
:102D60008DF801E0012700BF00BF012084F83D007D
:102D700000BF002084F83C0000BF384684E72DE9FE
:102D8000F04104460D4614B90120BDE8F08194F8E5
:102D90003D0028B9002084F83C00204600F052F89D
:102DA000022084F83D002068806844F207018843CF
:102DB00021688860211D206803F002F82068D0F89F
:102DC0000880206886692068076A286840EA080841
:102DD00040F203308643A969A86840EA012006430F
:102DE00040F60C4086434FF2F0008643E969E868FC
:102DF00040EA0120064328690001296A40EA0130BF
:102E0000064327F022076969686840EA0110074312
:102E10002068C0F808802068866120680762012069
:102E200084F8460084F83E0001213F20015501202E
:102E300084F8420043200155012084F83D00002021
:102E4000A3E7000010B586B004460020029003906E
:102E5000049005902068B0F1804F24D100BF27482E
:102E6000C06940F001002549C8610846C06900F00A
:102E70000100019000BF00BF00BF0846806940F01C
:102E8000040088610846806900F00400019000BFDA
:102E900000BF0320029000200390049002A918486C
:102EA000FEF732FB27E017492068884223D100BF94
:102EB0001248C06940F004001049C8610846C06962
:102EC00000F00400019000BF00BF00BF0846806909
:102ED00040F0080088610846806900F00800019011
:102EE00000BF00BFC020029000200390049002A900
:102EF0000548FEF709FB06B010BD000000100240B7
:102F00000008014000080040000C01402DE9F0439A
:102F100004460D4694F83E603F20075D94F84280D9
:102F2000432010F804906DB9012E02D1B8F1010FC1
:102F300002D00120BDE8F083022084F83E0084F82E
:102F4000420025E0042D0CD1012F02D1B9F1010F6F
:102F500001D00120EEE702213F2001554320015519
:102F600016E0012E07D1012F05D1B8F1010F02D1D2
:102F7000B9F1010F01D00120DCE7022084F83E0006
:102F800002213F200155022084F8420043200155D0
:102F900015B1042D0CD105E001220021206802F0BA
:102FA00051FF10E001220421206802F04BFF0AE0EB
:102FB00001220021206802F045FF0122042120683F
:102FC00002F040FF00BF00BF2068006840F0010031
:102FD000216808600020ADE7704770B5044620689E
:102FE000C5682068066906F00200022819D105F0BC
:102FF0000200022815D1401F2168086101202077B6
:103000002068806900F0030018B12046FFF7E4FF54
:1030100005E0204600F0C4F8204600F08FF90020BB
:10302000207706F00400042819D105F004000428D4
:1030300015D1C0432168086102202077206880698B
:1030400000F4407018B12046FFF7C6FF05E02046A7
:1030500000F0A6F8204600F071F90020207706F075
:103060000800082819D105F00800082815D1C04328
:1030700021680861042020772068C06900F00300FF
:1030800018B12046FFF7A8FF05E0204600F088F8B9
:10309000204600F053F90020207706F01000102899
:1030A00019D105F01000102815D1C043216808611E
:1030B000082020772068C06900F4407018B12046CD
:1030C000FFF78AFF05E0204600F06AF8204600F08E
:1030D00035F90020207706F0010048B105F0010025
:1030E00030B16FF0010021680861204600F092F9CC
:1030F00006F08000802809D105F08000802805D1E5
:10310000C043216808612046FFF754FC06F04000E8
:10311000402809D105F04000402805D1C04321686E
:103120000861204600F0BAF906F02000202809D1F5
:1031300005F02000202805D1C04321680861204601
:10314000FFF739FC70BD000010B586B004460020C2
:1031500002900390049005900E492068884217D190
:1031600000BF0D48806940F004000B4988610846A3
:10317000806900F00400019000BF00BF4FF41060B0
:10318000029002200390059002A90448FEF7BCF9C2
:1031900006B010BD002C01400010024000080140A4
:1031A00070472DE9F04104460D461646002700BF42
:1031B00094F83C00012802D10220BDE8F0810120F2
:1031C00084F83C0000BF36B1042E1BD0082E31D04D
:1031D0000C2E5ED145E02946206802F059FE206899
:1031E000806940F00800216888612068806920F0CB
:1031F0000400216888612068806929690843216882
:10320000886148E02946206802F072FE20688069E3
:1032100040F40060216888612068806920F4806043
:103220002168886120688069296940EA0120216855
:10323000886130E02946206802F08EFE2068C0696F
:1032400040F008002168C8612068C06920F00400CF
:103250002168C8612068C069296908432168C8617C
:1032600019E02946206802F0ABFE2068C06940F4EE
:1032700000602168C8612068C06920F4806021680E
:10328000C8612068C069296940EA01202168C861D5
:1032900001E0012700BF00BF00BF002084F83C0010
:1032A00000BF384689E710B504460CB9012010BDAF
:1032B00094F83D0028B9002084F83C00204600F036
:1032C00025F8022084F83D00211D206802F078FDD9
:1032D000012084F8460000BF84F83E0001213F2011
:1032E0000155402001554120015500BF00BF01207C
:1032F00084F84200432001554420015545200155E2
:1033000000BF012084F83D000020D0E708B5094A3D
:10331000016891420DD100BF0749896941F40061FC
:10332000054A91611146896901F40061009100BF6D
:1033300000BF08BD002C0140001002407047000093
:1033400070B504460D4615B994F83E000BE0042D07
:1033500002D13F20005D06E0082D02D14020005D33
:1033600001E04120005D012801D0012070BD1DB9A0
:10337000022084F83E000EE0042D03D102213F20FC
:10338000015508E0082D03D102214020015502E03B
:1033900002214120015501222946206802F052FDF8
:1033A00019492068884201D1012000E0002028B19D
:1033B0002068406C40F4004021684864124920684D
:1033C00088420BD02068B0F1804F07D00F492068A9
:1033D000884203D00E49206888420CD1206880685A
:1033E00000F00706062E0CD02068006840F00100AF
:1033F0002168086005E02068006840F0010021684D
:1034000008600020B2E70000002C014000040040EA
:103410000008004010B504461949206888422DD1A3
:1034200018480068006900F0010030B10120164919
:103430000870C01E13490968086112480068406A94
:103440001249088012480088401C1149088008462B
:1034500000880A2804DB0020088001200D4908703C
:103460000D480088401C0C49088008460088B0F5CB
:103470007A7F03DB0020088002F0B2FA10BD000062
:10348000000400405C080020C2000020C4000020AE
:10349000A0010020ED000020A2010020704770472D
:1034A000704700002DE9F84F044620680568206841
:1034B000C668206847694FF00009CA4605F00F0941
:1034C000B9F1000F0AD105F0200038B106F0200054
:1034D00020B1204602F00FFEBDE8F88FB9F1000FD1
:1034E0007BD007F0010018B906F49070002874D062
:1034F00005F0010030B106F4807018B1606C40F046
:103500000100606405F0040030B107F0010018B15B
:10351000606C40F00200606405F0020030B107F01A
:10352000010018B1606C40F00400606405F0080010
:1035300048B106F0200010B907F0010018B1606C26
:1035400040F008006064606C002845D005F0200061
:1035500028B106F0200010B1204602F0CCFD206812
:103560004069C0F3801A606C00F0080010B9BAF12D
:10357000000F2CD0204602F078FD2068406900F052
:10358000400000B300BF00BF2168143151E8001FA4
:1035900021F040002168143141E80002002AF3D1F3
:1035A00000BFE06B50B17748E16B4863E06BFDF71B
:1035B0008BFD88B1E06B416B88470DE02046FFF73B
:1035C0006FFF09E009E02046FFF76AFF04E02046AC
:1035D000FFF766FF002060647EE7206B012877D14B
:1035E00005F01000002873D006F010000028FAD073
:1035F00000BF0020009020680068009020684068AC
:10360000009000BF00BF2068406900F04000002823
:103610005FD0E06B006840681FFA80F8B8F1000FD7
:1036200055D0A08D404552DDA4F82E80E06B806916
:10363000202843D000BF00BF21680C3151E8001F93
:1036400021F4807021680C3141E80002002AF3D196
:1036500000BF00BF00BF2168143151E8001F21F0F6
:1036600001002168143141E80002002AF3D100BFB3
:1036700000BF00BF2168143151E8001F21F0400055
:103680002168143141E80002002AF3D100BF202054
:1036900084F842000020206300BF00BF21680C3185
:1036A00051E8001F21F0100021680C3141E80002B0
:1036B000002AF3D100BFE06BFDF7DBFC0220606362
:1036C000A08DE28D801A81B22046FFF7E8FE03E765
:1036D00042E0A08DE18D401A1FFA80F8E08DD0B352
:1036E000B8F1000F37D000BF00BF21680C3151E89E
:1036F000001F21F4907021680C3141E80002002A7B
:10370000F3D100BF00BF00BF2168143151E8001F92
:1037100021F001002168143141E80002002AF3D1B0
:1037200000BF202084F842000020206300BF00BFBB
:1037300021680C3151E8001F21F0100021680C3184
:1037400041E80002002AF3D100BF02206063414635
:103750002046FFF7A4FEBFE605F0800030B106F07A
:10376000800018B1204602F0E3FDB5E605F0400008
:1037700030B106F0400018B1204602F0ACFCABE6D8
:1037800000BFA9E65760000810B504460CB9012037
:1037900010BDA06900B100E000BF94F8410028B955
:1037A000002084F84000204600F02AF8242084F805
:1037B00041002068C06820F400502168C86020469D
:1037C00002F018FD2068006920F49040216808612B
:1037D0002068406920F02A00216848612068C0689C
:1037E00040F400502168C86000206064202084F804
:1037F000410084F842000020606300BFC8E7000079
:1038000010B586B004460020029003900490059005
:103810001E492068884236D100BF1D48C06940F467
:1038200080201B49C8610846C06900F480200190CF
:1038300000BF00BF00BF0846806940F008008861F3
:103840000846806900F00800019000BF00BF08151D
:103850000290022003900320059002A90D48FDF775
:1038600053FE4FF40060029000200390049002A9E0
:103870000848FDF749FE002203212720FEF7D8FC67
:103880002720FEF7C5FC06B010BD00000048004030
:1038900000100240000C014070B504460D4616466B
:1038A00094F8420020280BD105B10EB9012070BD5B
:1038B0000020206332462946204602F019FDF6E733
:1038C0000220F4E710B504461C492068884233D131
:1038D0001B48007868B91B4800785B2827D11A4834
:1038E000007820BB01201649087000201749087095
:1038F0001DE013480078012819D1124800785D288E
:103900000AD100200E4908701149104A12788854D3
:1039100001200D4908700AE00A4800780C490B4A5A
:103920001278885409480078401C08490870012220
:1039300004490848FFF7B0FF10BD000000480040F0
:103940009E010020D0000020D20000209F01002016
:10395000D0060020EC080020704700BFFEE7000002
:1039600010B50248FDF776FF10BD000034070020B7
:1039700010B50248FDF7DEFF10BD0000340700203F
:10398000C16AB1F52A0F02D10121C16205E0C16A05
:10399000B1F12A4F01D10821C1627047F8B505463F
:1039A000002000906C6A94F83D6039480068192145
:1039B000B0FBF1F04FF47A71B0FBF1F0C0EBC00056
:1039C00000EB8000009000BF009820B9206C40F010
:1039D0002000206409E00098401E009020680068E4
:1039E00000F40070B0F5007FEED000BF606B10B146
:1039F0000020616B8862A06B10B10020A16B88620F
:103A00002068006820F480602168086000206085DC
:103A1000606B10B10020616B4863A06B10B1002097
:103A2000A16B48632068006820F0010021680860ED
:103A300094F83D0060280AD1202084F83D00002041
:103A400084F83E0020642046FDF702FF1EE006F0E9
:103A50002800282811D12068006840F00100216862
:103A600008602068006840F48060216808600020D9
:103A70002063282084F83D0005E0202084F83D00E4
:103A8000002084F83E002046FEF741F8F8BD000013
:103A9000B001002070B505466C6A606B10B1002063
:103AA000616B8862A06B10B10020A16B88622068F6
:103AB000006820F480602168086000206085202074
:103AC00084F83D00002084F83E00206C40F0100097
:103AD00020642046FEF71BF870BD2DE9F041074633
:103AE0007C6A94F83D6094F83E80E56A20684068FE
:103AF00020F4407021684860606B10B10020616B59
:103B00008862A06B10B10020A16B886206F02100D2
:103B1000212806D006F02200222826D1B8F1200F55
:103B200023D12068406820F40060216848600020AC
:103B30006085292E08D121202063282084F83D00AB
:103B40002046FEF7F4FA09E02A2E07D1222020634E
:103B5000282084F83D002046FEF7E8FA20684068F7
:103B600040F440702168486054E094F83E0000281A
:103B700050D0608D012805D12068006820F4806055
:103B8000216808602068406820F44070216848601F
:103B900015F5803F06D0082D04D0B5F12A4F01D08D
:103BA000202D05D12068006840F40070216808606D
:103BB0002068406820F48050216848602068406890
:103BC00020F400602168486000206085206C18B1F6
:103BD0002046FDF79CFF1DE0202084F83D0094F86E
:103BE0003E00402807D1002084F83E002063204694
:103BF000FEF724FA0EE0002084F83E00082D01D0E4
:103C0000202D02D10020206301E0122020632046F5
:103C1000FEF767F8BDE8F08101684969C1F3C0119A
:103C200011B1002102681161704700002DE9F041D7
:103C3000044694F83D6094F83E70102F01D0402F58
:103C400007D1222E05D12068006820F40060216889
:103C5000086006F02800282805D1002020632820CD
:103C600084F83D0010E02068406800F40060B0F582
:103C7000006F07D0602E05D0202084F83D00002082
:103C800084F83E00002020632068406800F4006053
:103C9000B0F5006F40D12068406820F400602168D2
:103CA0004860606B90F82100012814D04848616B8F
:103CB0004863606BFDF708FA00285BD02068006855
:103CC00020F0010021680860202084F83D00606B2E
:103CD000416B88474EE03E48A16B4863A06BFDF7FF
:103CE000F3F9002846D020684069C0F3801030B155
:103CF00020680069616A0870606A401C6062206820
:103D0000006820F0010021680860202084F83D0050
:103D1000A06B416B88472DE094F83D0060281AD1D4
:103D2000202084F83D000020206420684069C0F312
:103D3000801030B120680069616A0870606A401CB8
:103D400060622068006820F0010021680860204659
:103D5000FDF77EFD0EE020684069C0F3801030B1B1
:103D600020680069616A0870606A401C60622046D1
:103D7000FDF7CDFE256C05F0010058B905F00200F5
:103D8000022807D005F00400042803D005F008003D
:103D9000082805D12068406820F4E0602168486068
:103DA00094F83D60206C00F0040004280ED1282E09
:103DB0000CD10848E06200202063202084F83D00F8
:103DC000002084F83E002046FDF78AFFBDE8F08120
:103DD0009D3900080000FFFF014608684069C0F3F4
:103DE0008020B0B16FF480600A68506100200863E1
:103DF000202081F83D00002081F83E00086C40F052
:103E00000400086400BF002081F83C0000BF0120CE
:103E100070470020FCE770B50446E56A608D042811
:103E200010D12068406820F48060216848602068D4
:103E30000069616A0870606A401C6062608D401EA3
:103E400060857FE0608D03281AD12068406820F4E7
:103E5000806021684860042D07D0022D05D02068BD
:103E6000006820F480602168086020680069616A49
:103E70000870606A401C6062608D401E608561E071
:103E8000608D022854D1012D01D0102D06D120685B
:103E9000006820F480602168086010E0042D01D0E3
:103EA000022D06D12068006840F480602168086017
:103EB00005E02068006840F4007021680860206810
:103EC0000069616A0870606A401C6062608D401E13
:103ED000608520680069616A0870606A401C6062E1
:103EE000608D401E60852068406820F44070216825
:103EF0004860202084F83D0094F83E00402807D117
:103F0000002084F83E0020632046FEF797F819E071
:103F1000002084F83E00082D01D0202D02D1002081
:103F2000206301E0122020632046FDF7DAFE09E05D
:103F300020680069616A0870606A401C6062608D78
:103F4000401E608570BD70B5044694F83D0022287F
:103F50007AD1E66A658D032D13D920680069616AFC
:103F60000870606A401C6062608D401E6085608DD4
:103F7000032868D12068406820F480602168486088
:103F800061E0E06A022858D0012D01D0002D54D103
:103F9000204600F041FEA0BB2068006820F480604D
:103FA000216808602068406820F4E060216848606B
:103FB00020680069616A0870606A401C6062608DF8
:103FC000401E6085202084F83D0094F83E00402883
:103FD00007D1002084F83E0020632046FEF72EF82B
:103FE00031E0002084F83E00082E01D0202E02D1BE
:103FF0000020206301E0122020632046FDF771FEBF
:1040000021E0FFE72068406820F4E0602168486014
:1040100020680069616A0870606A401C6062608D97
:10402000401E6085202084F83D00002084F83E007A
:104030002046FDF76CFD06E006E02068406820F4AD
:1040400080602168486000BF70BD00002DE9F84322
:1040500004460D4617469846E66A082E04D0012EFF
:1040600002D016F5803F06D12068006840F48070C9
:104070002168086008E0206B122805D120680068DC
:1040800040F48070216808603B4600224FF0011127
:104090002046CDF8008000F0E2FC60B120680068A6
:1040A00000F48070B0F5807F02D14FF4007020647E
:1040B0000320BDE8F8832069B0F5804F04D105F0F6
:1040C000FE002168086112E005F44070F02141EA29
:1040D000E0102168086143463A460B49204600F04B
:1040E0001DFD08B10120E4E7E8B2216808614346FC
:1040F0003A460549891F204600F010FD08B101200D
:10410000D7E70020D5E700000800010070B504469D
:10411000E56A94F83D00212847D1608D50B1606A6E
:10412000007821680861606A401C6062608D401EF2
:1041300060853AE0082D16D0202D14D015F5803F6B
:1041400011D02068406820F4E060216848601120A8
:104150002063002084F83E00202084F83D002046A3
:10416000FDF7C0FD21E02068406820F4E060216890
:1041700048602068006840F40070216808600020F2
:104180002063202084F83D0094F83E00402806D1AA
:10419000002084F83E002046FDF751FF05E0002096
:1041A00084F83E002046FDF79DFD70BD2DE9F041ED
:1041B000044694F83D5094F83E70E66A208DB0BBFA
:1041C000212D3CD1082E16D0202E14D016F5803F7C
:1041D00011D02068406820F4E06021684860112018
:1041E0002063002084F83E00202084F83D00204613
:1041F000FDF778FD44E02068406820F4E060216825
:1042000048602068006840F4007021680860002061
:104210002063202084F83D0094F83E00402807D118
:10422000002084F83E002046FDF709FF28E006E064
:10423000002084F83E002046FDF754FD20E0212DAB
:1042400003D0402F1CD1222D1AD1608D30B92068A7
:10425000406820F480602168486011E094F83E00D6
:10426000402803D1204600F0B1F909E0606A0078E7
:1042700021680861606A401C6062608D401E608534
:10428000BDE8F081416CC9B202681161416B11B1A6
:10429000416B896A21B9816B41B1816B896A29B10E
:1042A0000168496841F4006102685160704738B59F
:1042B00090F83E20C16A036B90F83D40222C73D1E8
:1042C000046D64B9402A0AD100BF00240094046838
:1042D000646900940468A469009400BF26E1046D39
:1042E000C4B90469B4F5404F14D100BF0024009450
:1042F0000468646900940468A469009400BF00BF66
:104300000468246844F4807405682C60046D641C9F
:1043100004650BE1448D8CB900BF0024009404684F
:10432000646900940468A469009400BF00BF046835
:10433000246844F4007405682C60E9E0448D012C85
:1043400072D111F5803F30D10468246824F4806470
:1043500005682C600468646804F40064B4F5006FB8
:1043600010D10468246824F4806405682C6000BFC0
:10437000002400940468646900940468A4690094AB
:1043800000BFC5E000BF0024009404686469009485
:104390000468A469009400BF00BF0468246844F462
:1043A000007405682C60B3E0B5E0082923D020290B
:1043B00021D0122B01D101291DD104290AD00229B3
:1043C00008D0102906D00468246824F480640568A5
:1043D0002C6005E00468246844F4806405682C605F
:1043E00000BF002400940468646900940468A46910
:1043F000009400BF8CE00468246824F4806405689D
:104400002C6000BF00240094046864690094046870
:10441000A469009400BF00BF0468246844F40074D9
:1044200005682C6074E0FFE7448D022C47D1042915
:104430001BD0022919D0102917D00468246844F42D
:10444000006405682C6000BF00240094046864695F
:1044500000940468A469009400BF00BF0468246845
:1044600024F4806405682C6010E00468246844F437
:10447000806405682C6000BF0024009404686469AF
:1044800000940468A469009400BF00BF04686468D5
:1044900004F40064B4F5006F3AD111F5803F07D001
:1044A000012905D0082903D0102901D020292FD1B6
:1044B0000468646844F4805405686C6028E004680B
:1044C000246844F4806405682C600468646804F41B
:1044D0000064B4F5006F10D111F5803F07D00129B9
:1044E00005D0082903D0102901D0202905D104685E
:1044F000646844F4805405686C6000BF0024009434
:104500000468646900940468A469009400BF00BF53
:10451000002404650AE000BF002400940468646974
:1045200000940468A469009400BF00BF38BD90F8EF
:104530003E1040290ED1016D29B9416C01F0FE01F8
:104540000268116141E0416CC9B241F001010268A9
:1045500011613AE00169B1F5804F20D190F83D102A
:10456000212905D1416C01F0FE010268116105E0CD
:10457000416CC9B241F0010102681161416B11B196
:10458000416B896A21B9816BF9B1816B896AE1B1AB
:104590000168496841F400610268516015E0016DED
:1045A00041B9416C01F44071F02242EAE111026824
:1045B00011610AE0016D012907D1416C01F44071DC
:1045C000F12242EAE11102681161704770B50446B8
:1045D00094F83D50206D98B9E06C012807D1A06C8B
:1045E000C0B221680861206D801C206550E0A06C7D
:1045F000C0F3072021680861206D401C206547E05A
:10460000206D012807D1A06CC0B221680861206D1F
:10461000401C20653CE0206D022836D1222D09D1B6
:104620002068006840F4807021680860206D401C9C
:1046300020652DE0608D60B1212D0AD1606A00787F
:1046400021680861606A401C6062608D401E608560
:104650001EE0608DE0B9212D1AD12068406820F459
:10466000E060216848602068006840F400702168BC
:10467000086000202063202084F83D00002084F89A
:104680003E002046FDF7DBFC02E02046FFF7C4FABF
:1046900070BD418D49B101680969426A1170416A72
:1046A000491C4162418D491E4185704770B50446E1
:1046B00094F83D50608DD8B120680069616A087037
:1046C000606A401C6062608D401E6085608D78B9B4
:1046D0002A2D0DD12068406820F480602168486050
:1046E00022202063282084F83D002046FDF71EFD8F
:1046F00070BD418D49B1416A097802681161416A12
:10470000491C4162418D491E4185704770B5044680
:1047100094F83D50608DD8B1606A007821680861D6
:10472000606A401C6062608D401E6085608D78B953
:10473000292D0DD12068406820F4806021684860F0
:1047400021202063282084F83D002046FDF7EFFC5F
:1047500070BDF8B504460D46002794F83D0000F002
:10476000280028281CD12068406820F48060216837
:104770004860C5F3800000B90127C5F3C01010B927
:10478000A08986B201E0208B86B200BF002084F8A9
:104790003C0000BF324639462046FDF75AF80FE08C
:1047A00000BF002000902068406900902068806968
:1047B000009000BF00BF00BF002084F83C0000BF95
:1047C000F8BD000070B5044694F83D50E66A082E26
:1047D00001D0202E1FD1282D1DD12348E062206852
:1047E000406820F4E060216848606FF480602168D0
:1047F00048612068006820F480602168086000201B
:104800002063202084F83D00002084F83E002046EC
:10481000FDF766FA26E0212D20D11348E062212021
:104820002063202084F83D00002084F83E002068AA
:10483000406820F4E060216848606FF4806021687F
:1048400048612068006820F4806021680860204684
:10485000FFF7E2F92046FDF76AFC03E06FF48060A1
:104860002168486170BD00000000FFFF38B50446B4
:1048700094F83D502068406820F4E060216848606A
:1048800000BF002000902068406900902068006808
:1048900040F001002168086000BF00BF2068006888
:1048A00020F48060216808602068406800F400609F
:1048B000B0F5006F42D1222D01D02A2D1FD1A06B5F
:1048C000006840686085608D18B1206C40F004007D
:1048D00020642068406820F4006021684860A06B74
:1048E000FCF74AFC012829D04148A16B4863A06B22
:1048F000FCF7EAFB10B3A06B416B88471EE0606BCE
:10490000006840686085608D18B1206C40F004003C
:1049100020642068406820F4006021684860606B73
:10492000FCF72AFC012809D03148616B4863606BB1
:10493000FCF7CAFB10B1606B416B8847608D18B300
:1049400020684069C0F3800048B120680069616A4E
:104950000870606A401C6062608D401E608520683F
:104960004069C0F3801048B120680069616A08702E
:10497000606A401C6062608D401E6085608D18B169
:10498000206C40F004002064206C18B12046FFF732
:104990004DF92BE02A2D07D100202063282084F830
:1049A0003D002046FDF7C2FB94F83D0028280DD1BC
:1049B0001048E06200202063202084F83D000020A1
:1049C00084F83E002046FDF78BF90FE0206B22288B
:1049D00001D0222D0AD100202063202084F83D0040
:1049E000002084F83E002046FDF7A0FB38BD000003
:1049F0009D3900080000FFFF70B504460D461646BD
:104A000025E02046FFF7E8F908B1012070BD681CD9
:104A1000E8B1FCF717FF801BA84200D8BDB9206899
:104A20004069C0F3800090B900202063202084F802
:104A30003D00002084F83E00206C40F020002064FF
:104A400000BF002084F83C0000BF0120DEE72068A2
:104A50004069C0F380000028D3D00020D6E72DE9BC
:104A6000F04104460D4617461E46DDF8188038E032
:104A7000701CA8B3FCF7E6FEA0EB0800B04200D81B
:104A800076BBC5F3074001280AD120684069A9B266
:104A90000840A9B2884201D101200BE0002009E0C2
:104AA00020688069A9B20840A9B2884201D10120DA
:104AB00000E00020B84214D100202063202084F8B8
:104AC0003D00002084F83E00206C40F0200020646F
:104AD00000BF002084F83C0000BF0120BDE8F08149
:104AE000FFE7C5F3074001280AD120684069A9B251
:104AF0000840A9B2884201D101200BE0002009E062
:104B000020688069A9B20840A9B2884201D1012079
:104B100000E00020B842ABD00020DFE72DE9F041F3
:104B200004460D4616461F4658E020684069C0F30B
:104B30008020E8B12068006840F4007021680860B7
:104B40006FF480602168486100202063202084F891
:104B50003D00002084F83E00206C40F004002064FA
:104B600000BF002084F83C0000BF0120BDE8F081B8
:104B7000701C90B3FCF766FEC01BB04200D866BB49
:104B8000C5F3074001280AD120684069A9B208404E
:104B9000A9B2884201D101200BE0002009E0206881
:104BA0008069A9B20840A9B2884201D1012000E081
:104BB000002090B900202063202084F83D000020D0
:104BC00084F83E00206C40F02000206400BF0020EC
:104BD00084F83C0000BF0120C8E7FFE7C5F30740A9
:104BE00001280AD120684069A9B20840A9B28842C8
:104BF00001D101200BE0002009E020688069A9B202
:104C00000840A9B2884201D1012000E0002000281C
:104C10008BD00020AAE7000008B5014600200090D4
:104C2000104800681922B0FBF2F04FF47A72B0FB22
:104C3000F2F000EB8000009000BF0098401E009052
:104C4000009828B9086C40F020000864012008BDD5
:104C50000868006800F40070B0F5007FEDD0002017
:104C6000F5E70000B001002070B504460D46164679
:104C700025E02046FFF7B0F808B1012070BD681CA0
:104C8000E8B1FCF7DFFD801BA84200D8BDB9206861
:104C90004069C0F3C01090B900202063202084F840
:104CA0003D00002084F83E00206C40F0200020648D
:104CB00000BF002084F83C0000BF0120DEE7206830
:104CC0004069C0F3C0100028D3D00020D6E710B54B
:104CD000012000F09FF8012000F08EF86420FCF71E
:104CE0009FFB10BD10B508210448FCF79DFD04464C
:104CF0000520FCF7A9FB204610BD0000000C014078
:104D000010B5012000F086F8012000F075F8FFF7DB
:104D1000E9FF0446002000F06FF8204610BD70B592
:104D20000025012000F076F800240DE0012000F0BD
:104D300063F8FFF7D7FF10B1802020410543002022
:104D400000F05AF8601CC4B2082CEFDB284670BD96
:104D500010B50446002000F04FF8204600F05AF845
:104D6000012000F049F80520FCF76EFB002000F060
:104D700043F810BD70B5044600250DE0002000F09A
:104D80003BF8C4F3C01000F045F86006040E0120A3
:104D900000F032F8681CC5B2082DEFDB002000F0EF
:104DA0002BF8012000F036F8FFF7AAFF70BD10B510
:104DB000012000F02FF8012000F01EF80520FCF77C
:104DC00043FB002000F026F80520FCF73DFB002007
:104DD00000F012F810BD10B5002000F01BF8012003
:104DE00000F00AF80520FCF72FFB012000F012F874
:104DF0000520FCF729FB10BD10B504462246102102
:104E00000348FCF719FD0520FCF71EFB10BD000050
:104E1000000C014010B50446224608210348FCF767
:104E20000BFD0520FCF710FB10BD0000000C01403D
:104E300070B504460D46002C0BDA012251031F48C1
:104E4000FCF7FAFC00224FF480511C48FCF7F4FCFC
:104E50000AE000224FF400511848FCF7EDFC012253
:104E600011031648FCF7E8FC201E01DB014600E0B8
:104E70004142134A12681164002D0BDA012291039A
:104E80000E48FCF7D9FC00224FF400410B48FCF718
:104E9000D3FC0AE000224FF480410848FCF7CCFC28
:104EA0000122D1030548FCF7C7FC281E01DB01469F
:104EB00000E04142024A1268516370BD000C01409B
:104EC000CC0700201CB500200090684602F016FCBC
:104ED00010B14FF0FF301CBD02F0A4F810B14FF03C
:104EE000FF30F8E7C82002F0A9F810B14FF0FF300A
:104EF000F1E74FF4A874204601F03CFF10B14FF0E9
:104F0000FF30E8E7002002F0D1F810B14FF0FF3099
:104F1000E1E7012002F048FF10B14FF0FF30DAE77F
:104F20000020D8E710B5FFF7D2FE80216B2000F0FB
:104F300039F86420FCF774FA00216B2000F032F895
:104F40000421192000F02EF803211A2000F02AF87D
:104F500018211B2000F026F800211C2000F022F868
:104F600010BD000010B504460D480078844200D101
:104F700010BD022C07D1FFF7A5FF00B1F8E7022012
:104F8000074908700AE006480078022802D100208C
:104F900002F00AFFFFF7C6FF0148047000BFE7E711
:104FA0004C00002070B505460C46FFF700FFD020EE
:104FB000FFF7E0FEFFF7A4FE2846FFF7DBFEFFF752
:104FC0009FFE2046FFF7D6FEFFF79AFEFFF703FF8E
:104FD00070BD000008B500BF0A48406940F00100FC
:104FE000084948610846406900F00100009000BF90
:104FF00000BF002211461020FDF71AF91020FDF71E
:1050000007F908BD0010024000B585B000200190EE
:1050100002900390049000BF4748806940F0100060
:10502000454988610846806900F01000009000BF83
:1050300000BF00BF0846806940F020008861084634
:10504000806900F02000009000BF00BF00BF08464C
:10505000806940F0040088610846806900F004001F
:10506000009000BF00BF00BF0846806940F0080004
:1050700088610846806900F00800009000BF00BF0A
:1050800000224FF400512D48FCF7D6FB00220821E6
:105090002B48FCF7D1FB00224FF470412948FCF764
:1050A000CBFB012218212748FCF7C6FB4FF4005028
:1050B000019001200290002003900220049001A999
:1050C0001E48FCF721FA042001901F48029000209E
:1050D000039001A91A48FCF717FA08200190012053
:1050E000029003900320049001A91548FCF70CFAE4
:1050F0004FF47040019001200290002003900220A4
:10510000049001A90F48FCF7FFF918200190112025
:105110000290012003900220049001A90948FCF7A5
:10512000F3F9002201210820FDF782F80820FDF79D
:105130006FF805B000BD00000010024000100140F3
:1051400000080140000C01400000311010B50B4870
:105150000B4908600B484860002109488160C16024
:105160004FF480410161002141618161C1610162AF
:10517000FCF7CEFC08B1FBF779FF10BD00540040EE
:1051800034070020801A060000B591B000200F906F
:1051900010901C2108A8FAF7EEFF20216846FAF7C4
:1051A000EAFF274827490860232048600021254856
:1051B00081606321C16000210161416180218161C1
:1051C000FEF771F808B1FBF751FF00200F90109027
:1051D0000FA91C48FDF72AFC08B1FBF747FF602028
:1051E0000890002009900A900B900C900D900E9062
:1051F000002208A91348FDF7D4FF08B1FBF736FFDA
:105200000C2208A90F48FDF7CCFF08B1FBF72EFFD1
:105210000020009001900290039004904FF4005001
:1052200005900020079069460648FDF7C5FB08B1C8
:10523000FBF71CFF0348FDF787FF11B000BD00001E
:10524000002C0140CC07002000B58BB0242102A81F
:10525000FAF791FF0020009001904FF0804017492D
:105260000860002048600021144881604FF6FF71FB
:10527000C160002101618161032002900020039040
:1052800001200490002005900690079001200890CE
:10529000002009900A9002A90848FDF770FD08B1A6
:1052A000FBF7E4FE00200090019069460348FDF7FB
:1052B000BDFB08B1FBF7DAFE0BB000BD14080020FF
:1052C00000B587B0002003900490059006900190EF
:1052D0000290144814490860472048600021124891
:1052E00081606321C1600021016180218161FDF73E
:1052F000DFFB08B1FBF7BAFE4FF48050039003A91F
:105300000948FDF7B6FC08B1FBF7B0FE002001909C
:10531000029001A90448FDF789FB08B1FBF7A6FE3E
:1053200007B000BD000400405C08002000B58BB051
:10533000242102A8FAF71FFF0020009001901848CE
:1053400018490860002048600021164881604FF627
:10535000FF71C16000210161816103200290002082
:1053600003900120049000200590069007900120F2
:105370000890002009900A9002A90A48FDF7FFFC56
:1053800008B1FBF773FE00200090019069460548C4
:10539000FDF74CFB08B1FBF769FE0BB000BD000048
:1053A00000080040A408002010B50B480B49086015
:1053B0004FF416504860002108488160C1600161C7
:1053C0000C21416100218161C161FEF7DDF908B165
:1053D000FBF74CFE10BD000000480040EC08002028
:1053E00000BFFEE700BFFEE710B54FF48061034841
:1053F000FAF7C1FE01200249087010BDBC0100206F
:10540000010000200448007820B10448407808B921
:10541000012070470020FCE700000020020000206F
:1054200010B5002404E00549085D00F0B1FA641CE1
:10543000172CF8D3FFF7D8FF10BD0000050000209F
:10544000F0B5C3B004460D4616461F4649A8029063
:1054500003A8029A489900F0A5FF00200290E9B243
:10546000E0B23B4603AA009600F0E4F943B0F0BD79
:105470007FB58348007820B1FFF7B6FF0020804950
:1054800008708048007810B101287DD1E1E07EA04D
:105490000C230022114600901046FFF7D1FF7C49F3
:1054A0000868FBF74EF9CDE902017AA00C2300222F
:1054B000012100901046FFF7C3FF75494868FBF7CC
:1054C00040F9CDE9020176A00C23002202210090D0
:1054D0001046FFF7B5FF6E498868FBF732F9CDE952
:1054E000020172A00C230022032100901046FFF756
:1054F000A7FF71A00C230022114600902B20FFF77C
:105500009FFF6F490868FBF71CF9CDE9020161A014
:105510000C230022012100902B20FFF791FF684906
:105520004868FBF70EF9CDE902015DA00C230022CB
:10553000022100902B20FFF783FF61498868FBF769
:1055400000F9CDE9020159A00C23002203210090AB
:105550002B20FFF775FF5BA00C2300221146009063
:105560005520FFF76DFF59490868FBF7EAF8CDE9C8
:10557000020148A00C230022012100905520FFF7D2
:105580005FFF5249486800E077E0FBF7DAF8CDE9C1
:10559000020143A00C230022022100905520FFF7B6
:1055A0004FFF4A498868FBF7CCF8CDE902013FA0DC
:1055B0000C230022032100905520FFF741FF3449BE
:1055C0000869FBF7BEF8CDE9020141A00C230022D7
:1055D000042100901046FFF733FF41480068FBF7B5
:1055E000B0F8CDE902013FA00C2300220521009074
:1055F0001046FFF725FF3F480068FBF7A2F8CDE90A
:1056000002013DA00C230022062100901046FFF766
:1056100017FF3D4800783DA10C230022CDE9001082
:1056200007211046FFF70CFF3B4800883BA10C23E5
:105630000022CDE9001007212B20FFF701FF00F029
:1056400067F901200F490870FCF7FCF8354908603C
:1056500013E000F05DF90446022C03D10020094953
:10566000087009E0FCF7EEF82E490968401A642832
:1056700002D900200349087000BF00BF7FBD0000B1
:105680009D01002084010020416E676C65000000D0
:10569000F4000020503A2530352E3266000000001C
:1056A000493A2530352E326600000000443A253054
:1056B000352E3266000000005370656564000000FE
:1056C000240100205475726E000000005401002077
:1056D00050697463683A2530352E32660000000048
:1056E000E400002053706565643A2530352E32663B
:1056F000000000005C00002044697374616E636503
:105700003A2530352E326600C2000020466C6167B3
:105710003A25316400000000C4000020433A2530DF
:1057200035640000880100202DE9F04304460E4650
:10573000079D3146A2F12007FAB27F2C02DD00243A
:10574000B71CFEB20C2B22D100201DE002EB420C54
:10575000DFF8D08008EB4C0C1CF800701DB16FEA2C
:10576000070C0CF0FF07802C0CDA08290ADADFF8A6
:10577000B8C00CEBC119A44604F1010808F0FF04FD
:1057800009F80C70471CF8B20628DFDB43E0102B49
:1057900041D1002016E000EB021CDFF8908018F8E1
:1057A0000C701DB16FEA070C0CF0FF07802C07DAB4
:1057B000082905DADFF870C00CEBC11C0CF8047086
:1057C000471CF8B20828E6DBA4F10807FCB2002069
:1057D0001FE000EB021C0CF1080CDFF8508018F8F9
:1057E0000C701DB16FEA070C0CF0FF07802C0ADA71
:1057F00001F1010CBCF1080F05DADFF82C8008EB91
:10580000CC1C0CF8047004F1010C0CF0FF04471CD4
:10581000F8B20828DDDB0127DFF814C08CF800702F
:10582000BDE8F0832C820008BC01002054840008ED
:10583000010000202DE9F84304460E4617461D4698
:10584000DDF820904FF0000822E0CDF8009017F826
:1058500008202B4631462046FFF766FF0C2D02D16B
:10586000A01DC4B202E004F10800C4B27A2C04DD29
:105870000C2D02D10024701CC6B2782C04DD102D32
:1058800002D10024701CC6B208F1010000F0FF082C
:1058900017F808000028D8D1BDE8F8832DE9F041B9
:1058A00006460F4614461648007810B11548407851
:1058B00010B10020BDE8F08113480670802C00DD97
:1058C0008024224639461048401CFAF73BFC002051
:1058D0000B49087001200B494870601C83B20A4ACA
:1058E00078210A48FCF7C8FA054635B10120044979
:1058F0000870002003494870DCE70120DAE7000067
:105900000000002002000020BC0500203407002019
:1059100010B51B48007828B900201A4908700120EA
:1059200017490870FFF76EFD38B31648007808284D
:105930001CDA1449097841F0B00000F029F8002081
:1059400000F026F8102000F023F80F480D4A1278D6
:1059500000EBC21180224020FFF7A0FF68B1094888
:105960000078401C07490870012010BD0020044940
:105970000870064908700220F7E70020F5E70000EC
:105980001D0000201C000020BC01002001000020A0
:105990001CB50446002001908DF805400A20022322
:1059A00001AA782100900248FCF7AEF91CBD000066
:1059B000340700207047000008B508490968C90885
:1059C0004FF47A72B1FBF2F14143009100BF00BF86
:1059D00000994A1E00920029F9D108BDB0010020AB
:1059E0002DE9F041274800F063F82749086027486F
:1059F00000F05EF840422649086023480068FAF744
:105A000060FE07462349FAF796FC06464FF08141AF
:105A1000FAF791FC05462049FAF78DFC04461F4928
:105A2000FAF789FC1E49086019480068FAF749FE30
:105A300007461849FAF77FFC06464FF08141FAF70E
:105A40007AFC05461449FAF776FC04461349FAF73E
:105A500072FC144908600846016811480068FAF7AA
:105A6000E0FB04464FF08041FAF765FC0E49086000
:105A70000C4801680A480068FAF725FC0B490860E1
:105A8000BDE8F08114080020C8000020A408002010
:105A9000CC000020000050410000A041CDCC4C3D86
:105AA000DC000020E0000020E4000020E8000020EE
:105AB00001460A68526A10B200220B685A627047A7
:105AC000704700002DE9F84F74480078012875D11F
:105AD00073A17448FAF776FB009073A10098FAF767
