:020000040800F2
:100000008007002001010008133700086B27000853
:1000100011370008FD0E0008313F00080000000005
:10002000000000000000000000000000613900082E
:10003000510F0008000000005F390008FD3900087A
:100040001B0100081B0100081B0100081B01000820
:100050001B0100081B0100081B0100081B01000810
:10006000530F00081B0100081B0100081B010008BA
:100070001B0100081B0100081B0100081B010008F0
:100080001B0100081B0100081B0100081B010008E0
:100090001B0100081B0100081B0100081B010008D0
:1000A0001B0100081B0100081B0100081B010008C0
:1000B0001B0100081B0100081B0100081B010008B0
:1000C0001B0100081B0100081B0100081B010008A0
:1000D0001B0100081B0100081B010008253F000848
:1000E0001B0100081B0100081B010008DFF80CD0F1
:1000F00000F0B6FC004800478D590008800700203A
:100100000648804706480047FEE7FEE7FEE7FEE7B1
:10011000FEE7FEE7FEE7FEE7FEE7FEE75F3A0008E0
:10012000ED000008202A04DB203A21FA02F0002129
:10013000704721FA02F3D040C2F1200291400843F7
:1001400019467047D2B201E000F8012B491EFBD2DC
:1001500070470022F6E710B513460A4604461946D2
:10016000FFF7F0FF204610BD10B5002200E0521C42
:10017000835C8C5CA34201D1002BF8D1D8B2E1B2F0
:10018000401A10BD30B504460020034600E05B1C59
:10019000934203D2E05CCD5C401BF8D030BD000040
:1001A00070B50F4D00B92868002412E00A4602E03D
:1001B0009E4203D0521C1378002BF9D1DAB22243AD
:1001C00005D02BB124B1002100F8011B04E0044646
:1001D000401C0678002EE9D12860204670BD000042
:1001E000E8000020F0B480EA0102D40F4200B2EB34
:1001F000410F02D20246084611464A0042D0C30DC2
:10020000DDB2C1F3C752AD1A202D35DAC1F31601A4
:1002100041F4000204B15242C5F1200602FA06F18F
:100220002A411044B3EBD05F23D0C4B1012DA0EB21
:10023000C35009DCF0BC4FF0004202EAC352DBB20B
:1002400000F5000000F051BB400000F1807000EBB1
:10025000C350A0F1807040EAD170490009E049081C
:1002600041EAC071A0EBC35000F50000400800EB6C
:10027000C350F0BC00F030BB6142012202EB4101EF
:10028000001BF6E7F0BC704781F00041AAE780F060
:100290000040A7E780EA010210B502F000434000E9
:1002A00022D04A001FD0010E01EB1261C0F35600AC
:1002B000C2F3560240F4000042F40002A0FB022008
:1002C00000047F39140400D0401C50EA124001D4CD
:1002D0004000491EC2B20C0604EBD010401C40087E
:1002E000802A02D003E0002010BD20F00100002988
:1002F00000DA0020184310BD30B480EA010202F099
:10030000004530F0004221F0004013D090B1C30D01
:10031000D40DC2F31601C0F31600E41A41F4000133
:1003200040F400027D34914201D3641C00E0490096
:10033000002C02DA30BC002070474FF4000000238C
:10034000914201D3891A034340084FEA4101F7D192
:1003500051B1914202D14FF0004105E002D24FF07D
:10036000010101E06FF0010103EBC450284430BCEF
:1003700000F0B2BA420005D0C0F3C75252429142D7
:1003800001DC0020704700EBC15070472DE9FE4FA3
:10039000804681EA0300C00F0C46009021F0004126
:1003A00023F00045B8EB0200A94105D240462146A2
:1003B00090461C460B46024623F00040104347D0AF
:1003C000270DC7F30A00C3F30A510290401A0190A7
:1003D00040286BDAC3F3130040F4801B0098924668
:1003E00020B10023D2EB030A63EB0B0B01985946B3
:1003F000C0F14002504600F000FA06460D46504655
:100400005946019A00F008FA10EB080061410024F7
:1004100087EA115284EAE7731A4340D0009A62B324
:10042000019A012A4FEA075215DC001B61EB020119
:100430004FF0004202EA0752CDE90042001C41F5AC
:10044000801132462B4600F08DFA03B0BDE8F08FE4
:1004500040462146F9E7001B61EB0201001C41F513
:10046000801300185B412018A2F5001747EB030129
:1004700040EAD570B6196D4111E06D084FEA3606B5
:1004800045EAC0754FEA0752001B61EB0201001CF0
:1004900041F5801149084FEA3000001951413246B8
:1004A0002B4603B0BDE8F04F00F04DBA0098012292
:1004B00040000023D0EB020263EBE073009821467A
:1004C0004FEAE074B8EB000061EB0401E9E783F068
:1004D00000435BE781F0004158E72DE9FE4F81EAD8
:1004E000030404F0004421F0004100944FF0000B9D
:1004F00023F0004350EA01045ED052EA03045BD0CB
:10050000C3F30A54C1F30A552C44A4F2F334019402
:10051000A0FB0254C1F3130141F48011C3F3130390
:1005200043F4801301FB024400FB034E840A970A44
:1005300044EA815447EA8357A4FB076802958D0A71
:1005400005FB07854FEA932C04FB0C542705029DFD
:100550004FEA065847EA1637B5EB08056EEB070C6D
:10056000870E920E47EA811742EA8312A7FB020127
:10057000B6EB0B0164EB00042B0D43EA0C335E1861
:1005800044EB1C50DA465146E7FB0201C5F3130465
:100590004FEA0B3343EA14534FEA0432019C43EA17
:1005A0000603A4F10C040294009CCDE900B400F011
:1005B000D9F903B0BDE8F08F00200146F9E72DE935
:1005C000F04D81EA030404F0004B21F0004514468D
:1005D0004FF0000A23F0004150EA050220D054EA0F
:1005E00001021DD0C5F30A570246C5F31303C1F338
:1005F0001300C1F30A5640F4801543F48013A7EBAF
:100600000608101BD64608F2FD3873EB050002D32E
:1006100008F1010801E092185B41B8F1000F03DA1C
:1006200000200146BDE8F08D00204FF48011064601
:1006300084460EE0171B73EB050705D3121B63EB13
:10064000050306434CEA010C49084FEA30009218B2
:100650005B4150EA0107EDD152EA030012D082EA71
:10066000040083EA0501084305D0101BAB4106D204
:100670000122002306E000224FF0004302E06FF069
:10068000010253101AEB06004CEB085110EB0A0064
:1006900041EB0B01BDE8F04D00F055B9C10F80EA08
:1006A000E0700844CA079623002100F01EB9962383
:1006B0000022114600F019B90EB540F23341029103
:1006C0000021CDE900110A460B4600F04BF903B0BA
:1006D00000BD20F00040C10DC0F3160040F4000042
:1006E0007F2901DA00207047962903DCC1F19601C9
:1006F000C840704796398840704700F0004230F09B
:1007000000400AD0C10D01F56071C0F3160042EA45
:100710000151C2084007114370470020014670474D
:1007200001F0004330B421F0004150EA010206D04C
:100730000A0DA2F56072C1F31301002A02DC30BC7D
:1007400000207047440F44EAC104C100E01830BCE7
:1007500000EBC25000F0C0B8002801DBC0F100403F
:10076000002901DBC1F100418842704730B50B46DA
:10077000014600202022012409E021FA02F59D42D1
:1007800005D303FA02F5491B04FA02F52844151EA5
:10079000A2F10102F1DC30BD2DE9F05F0546002039
:1007A00092469B4688460646814640241BE02846E2
:1007B000414647462246FFF7B5FC53465A46C01A03
:1007C000914110D311461846224600F016F82D1A12
:1007D00067EB01084F4622460120002100F00DF88A
:1007E00017EB00094E41201EA4F10104DFDC48464E
:1007F00031462A464346BDE8F09F202A04DB203AD2
:1008000000FA02F1002070479140C2F1200320FA63
:1008100003F3194390407047202A06DBCB17203A98
:1008200041FA02F043EAE07306E041FA02F3D040F5
:10083000C2F1200291400843194670470FB40023CB
:1008400000B589B00CA900910B996FF00042CB6004
:100850001E4B06931E4B07930423CDE901321D4A1C
:10086000089202466B46002000F0A6F909B05DF838
:1008700014FB70B586B006464FF0FF300091CDE90D
:100880000101002015460C4604903246694604A832
:10089000FFF7D4FF02460498211825B108B1084695
:1008A00000E020462860049800280DD0002A02DDD0
:1008B0000098884208D0081B0094CDE90104324614
:1008C000694604A8FFF7BAFF06B070BDF10D000835
:1008D0000F0E0008850A00080029A8BF7047401CB9
:1008E000490008BF20F00100704710B4B0FA80FC46
:1008F00000FA0CF050EA010404BF10BC704749B183
:10090000CCF1200421FA04F411FA0CF118BF0121F2
:1009100021430843A3EB0C01CB1D4FEA00614FEAD2
:10092000102042BF002010BC704700EBC3501044A1
:100930000029A4BF10BC7047401C490008BF20F02C
:10094000010010BC704710B5141E73F1000408DAE2
:10095000401C41F1000192185B411A4301D120F083
:10096000010010BD2DE9F04D92469B4611B1B1FA40
:1009700081F202E0B0FA80F220329046FFF73DFFAC
:1009800004460F4640EA0A0041EA0B0153465A4624
:10099000084313D0114653EA010019D0C8F14002B0
:1009A0005046FFF7BFFB05460E46504659464246A5
:1009B000FFF723FF084305D0012004E02046394615
:1009C000BDE8F08D0020054346EAE0762C4337432E
:1009D0000A986305E40AA0EB08000022FD0A44EA35
:1009E00047540A3002D500200146E9E701051019F5
:1009F0006941DDE9084500196941BDE8F04DA2E70C
:100A0000C1F30A52C1F3130140F2FF3341F48011E4
:100A10009A4202DA00200146704740F233439A427C
:100A2000A2F2334202DC5242FFF77CBBFFF7E5BE85
:100A300030B5041E71F1000404DB4FF00044404265
:100A400064EB0101141E73F1000405DB1C464FF03A
:100A50000043524263EB0403994208BF904230BD09
:100A6000064C074D06E0E06840F0010394E80700FB
:100A700098471034AC42F6D3FFF73CFB9879000856
:100A8000B8790008C0B24FF4F05100F017BA000076
:100A90002DE9FF4F087883B09946FF2805D0491CFF
:100AA0002D2804D00024002008E000200BE00124C1
:100AB000F9E700EB800003EB4000491C0B78FF2BAB
:100AC000F7D104B1404200230293147819461D4621
:100AD0002D2C01D02B2C04D1521C2D2C13D00024F2
:100AE0000294AA461478FF2C0FD00A25A3FB0578A0
:100AF00001FB05814FF0000C03FB0C11521CE319A4
:100B00004AEB0101EEE70124EAE7814453EA0100E0
:100B100002D019F5C87F06DA03980021C0E9001158
:100B200007B0BDE8F08F0025AE4E2F46DFF8B88243
:100B3000184600F0D7F9CDE90001B9F1000002DA5A
:100B4000C9F1000400E004460023A74A1AEB030B96
:100B500042EB045A12E0E00707D02A4633463846F3
:100B60004146FFF7BAFC074688462A4633461046F8
:100B70001946FFF7B2FC05460E466410002CEAD178
:100B8000DDE90001B9F1000F5A46534606DAFFF7D6
:100B900016FD3A464346FFF712FD05E0FFF79DFCC0
:100BA0003A464346FFF799FC029A0AB181F00041A8
:100BB000039AC2E90001B3E72DE9FF4F1F468DB04C
:100BC000D7E901464FF0FF382E2045464FF0000987
:100BD0000B90B9696D1C0E988847396A8246884720
:100BE0000028F6D1BAF1FF3F0AD024F4D064002ED9
:100BF00011DDBAF12B0F08D0BAF12D0F0BD102E0A5
:100C0000404611B08DE744F48064B9696D1C0E98BC
:100C100088478246761E6946600501D52D2000E092
:100C20002B208DF8000001F1010B0DF1200809E0E7
:100C3000B9696D1C0E98884782460F9844F4007479
:100C4000761E0560002E02DDBAF1300FF0D00B9950
:100C50008A453ED144F0800406E00F99681CA9F152
:100C6000010944F400740860B9696D1C761E0E9881
:100C7000884782463028F0D02BE00B998A4505D171
:100C8000200603D444F08004761E18E0504603F09A
:100C9000FBFA08B30DF11301761E44F400748B4582
:100CA00008D2AAF130000BF8010B200607D5A9F1F4
:100CB000010003E0200602D409F101008146A005ED
:100CC00002D50F99681C0860B9696D1C0E98884799
:100CD0008246002ED1DC53E0002E51DDBAF1650FC3
:100CE00002D0BAF1450F4BD1A00549D5B9696D1CA9
:100CF00024F44074761E0E9888478246002E0CDD40
:100D00002B2804D0BAF12D0F07D144F48074B969AF
:100D10006D1C0E9888478246761EE00501D52D2170
:100D200000E02B2108F8011BCDF82C8021E00DF10B
:100D30002901761E44F4007488450CD2AAF13000D3
:100D400010F0FF0088F8000002D10B99884509D9FE
:100D500008F1010806E0E00501D5244801E042F26F
:100D60000F708146B9696D1C0E98884782460F98AE
:100D70000560002E04DD504603F086FA0028D6D127
:100D8000F9690E988847FF208BF8000088F800006A
:100D90000020069007904B466A4608A906A8FFF770
:100DA00077FEA00502D46FF001002AE714F0240FAB
:100DB0000AD0E00714D1DDE906123868031D3B6054
:100DC0000068C0E900120BE0DDE90601FFF7A8FCAE
:100DD0000146E00704D13868021D3A6000680160EE
:100DE00028460EE7000014400000F03FF1D8FFFF56
:100DF000426842B1016811F8013B23B1521EC0E9BB
:100E00000012184670470121C160881E7047426871
:100E10005AB1C368016843B983688B4205D0491E43
:100E2000521CC0E90012002070474FF0FF3070479D
:100E3000F0B4002802DCF0BC00207047C0F3C751BA
:100E4000C0F3160040F40000CA0701D14000491E5B
:100E50003F2202EB6105002211464FF4000626FAFC
:100E600001F31344D418844201D8001B1A464000F1
:100E7000491C1729F3DD5100814202D24FF0FF31A6
:100E800000E0002102EBC550F0BCFFF725BD70B5B6
:100E900021F0004303430CD0C1F30A550024D5EBE5
:100EA000040564EB0403D617AD1AB34102DB00203E
:100EB000014670BD201841EB025170BD7F2801D959
:100EC000002208E0064A02EB5002C007127800D167
:100ED000120902F00F020120904008407047000004
:100EE000587900080EB540F2334202920022CDE953
:100EF00000221346FFF736FD03B000BDFEE70000F9
:100F000010B500F0F7F90F4A9168884219D30A31F9
:100F100002F114044FF07C509160E06001F032FF68
:100F2000206101F029FF60622069FFF7E6FB0246BD
:100F30000B4605A002F0FEFF2046BDE8104002F07F
:100F4000C3BC10BD6400002025660D0A000000002F
:100F50007047042000F0C8B872B6FEE710B590F8EC
:100F600021100022022905D00421816380F820206D
:100F7000012010BD01680B6823F00E030B600168AF
:100F80000B6823F001030B6090F84030C46B012123
:100F900001FA03F3636080F8211080F820201046E6
:100FA00010BD000010B590F821100024022903D0D4
:100FB0000421816301243DE001680A6822F00E02E9
:100FC0000A6001680A6822F001020A601A4A016890
:100FD000914201D1012121E0174A1432914201D1FD
:100FE00010211BE0144A2832914201D1891515E0E5
:100FF000114A3C32914201D189140FE00E4A50321D
:10100000914202D14FF4803108E00B4A64329142A0
:1010100002D14FF4801101E04FF08071064A083A86
:101020005160012180F82110002180F82010416BCF
:1010300001B18847204610BD0800024070B5044643
:1010400000F058F90546601C02D0044800780444BA
:1010500000F050F9401BA042FAD370BDD800002028
:1010600010B5044600F00EFC05494FF0E022B0FB3D
:10107000F1F1906961439369C31A8B42FBD310BDB0
:1010800040420F0010B50421114800F029F9114C1D
:10109000012815D0204600F0ADFE2068406A0E4CB5
:1010A00080B22080FFF708FB0C4A0D4BFFF715FAC2
:1010B00000220C4BFFF783FAFFF732FB606010BD94
:1010C000216800204862BDE81040024800F06ABE76
:1010D00000080140980200205C0000209CC420B061
:1010E0007268913F00005940044910B50A680242F5
:1010F00002D00860FFF7C6FF10BD000014040140D5
:101100002DE9F84FDFF8B8910024A9F1040B23462C
:101110000F2709F1040AABF1040EC9E00125A5402F
:101120002A40AA427DD1674ED1F804C0ACEB060834
:10113000B44532D014DCBCF1030F3AD009DCBCF169
:10114000000F2AD0BCF1010F1CD0BCF1020F31D12D
:101150001DE0BCF1110F17D0BCF1120F2AD119E01C
:10116000B8F5881F19D006DCB8F5803F15D0B8F562
:10117000801F1FD111E0B8F5001F0ED0B8F5041F75
:1011800018D10AE0CB6815E0CB681B1D12E0CB68D4
:1011900008330FE0CB680C330CE08B682BB1012BCC
:1011A0004FF0080303D0456104E0042302E0056129
:1011B00000E00023FF2A01D8064601E000F1040602
:1011C0004FEA840501D9A5F12005D6F8008007FA79
:1011D00005FC28EA0C0803FA05F548EA0508C6F8F4
:1011E00000804D68ED0062D5374DAE6946F00106CE
:1011F000AE61AD6924F0030605F001050095334D9D
:1012000006EB050CDCF80850A607360F07FA06F8BF
:1012100025EA0805DFF8B880404503D14FF0000803
:1012200017E044E0DFF8AC80404502D14FF0010800
:101230000FE0DFF8A480404502D14FF0020808E03B
:10124000DFF89880404502D14FF0030801E04FF0ED
:10125000040808FA06F848EA0508CCF808804D6842
:10126000D9F80060ED024D4601D5164300E09643E3
:101270002E604D68DAF80060AD02554601D5164380
:1012800000E096432E604D68DBF80060AD035D46DC
:1012900001D5164300E096432E604D68DEF80060ED
:1012A000ED03754601D5164300E096432E60641C9D
:1012B0000D682A46E5407FF431AFBDE8F88F0000A5
:1012C000080401400000111000100240000001401D
:1012D00000080140000C01400010014000140140D2
:1012E0008068084000D0012070470AB10161704752
:1012F0000904FBE70148806870470000D80000201F
:1013000070B5040025D094F83D00002520B984F87C
:101310003C50204600F050F9242084F83D0020681D
:10132000016821F0010101602068016841F4004179
:1013300001602068016821F40041016000F0A8FA12
:101340004D4A6168914201D84C4900E04C498842BD
:1013500001D2012070BD4B492368B0FBF1F15E68FA
:1013600026F03F060E435E606368934206D94FF451
:10137000967359434FF47A73B1FBF3F12368491C18
:101380001E6A26F03F06314319626168914210D807
:101390004900401EB0FBF1F2521CC2F30B02042ABA
:1013A00001D2042022E0B0FBF1F0401CC0F30B009E
:1013B0001CE0A268F2B301EBC10303EB0116431E6C
:1013C000B3FBF6F35B1C43F480431B0549D092B397
:1013D00001EBC10202EB0111401EB0FBF1F0401C19
:1013E000C0F30B0040F4804040F400402168CA691B
:1013F0004CF6FF739A431043C861D4E907100143C8
:101400002068026822F0C00211430160D4E90301A0
:1014100001432068826848F2FF339A431143816098
:10142000D4E9050108432168CA6822F0FF0210438D
:10143000C86001E00EE016E02068016841F001019B
:1014400001602564202084F83D00256384F83E5027
:10145000002070BD01EB4106431EB3FBF6F35B1C9D
:10146000B3E70120C2E701EB4101401EB0FBF1F000
:10147000401CC0F30B00B7E7A086010080841E006B
:1014800000093D0040420F002DE9FF4F83B09A460E
:10149000DDE9119793460446DDF84080FFF72AFF07
:1014A000054694F83D0020287FD1192301224049A8
:1014B0002046009501F0F2F9002876D194F83C001E
:1014C000012872D0012084F83C0020680168C90717
:1014D00003D1016841F0010101602068016821F435
:1014E00000610160212084F83D00402084F83E0026
:1014F00000262664C4F82480A4F82A90608D2085F4
:101500002C48E062CDE9007553465A4620460499BE
:1015100001F044F970B930E02A463946204601F01E
:1015200063FA58B1206C042804D12068016841F4A2
:1015300000710160012007B0BDE8F08F606A21688A
:1015400000780861606A401C6062218D491E89B282
:101550002185628D521E628522685369DB435B07D9
:101560000BD469B100781061606A401C6062208D04
:10157000401E2085608D401E6085208D0028CBD1C7
:101580002A463946204601F05DF90028CAD154F8B0
:101590003D0B016841F400710160202004F81E0930
:1015A000E67766770020C6E7FFE70220C3E7000082
:1015B000020010000000FFFF10B586B0002100916E
:1015C00001910291039100681349884222D1134C82
:1015D000A06940F00800A061A069694600F0080019
:1015E00004904FF44070009012200190032003906B
:1015F0000B48FFF785FD0B48416841F0E06141F081
:1016000002014160E06940F40010E061E06900F42B
:101610000010049006B010BD0054004000100240BD
:10162000000C01400000014002488168027811442A
:1016300081607047D8000020074810B5016841F06C
:1016400010010160032000F075F8002000F006F89A
:1016500000F024F8002010BD0020024070B50D4DB0
:1016600004464FF47A712878B1FBF0F00A49096812
:10167000B1FBF0F000F0E2FA48B9102C07D20022DA
:101680002146501E00F036F800206C6070BD01202D
:1016900070BD0000D8000020E40000200C4808B510
:1016A000816941F001018161816901F001010091CD
:1016B000C16941F08051C161C06900F08050009063
:1016C0000448416821F0E06141F00071416008BDCB
:1016D0000010024000000140002809DB00F01F025A
:1016E000012191404009800000F1E020C0F8001184
:1016F00070470000F0B40E4B1B680C46C3F3022386
:10170000C3F10705042D00D90425191D072901D2AD
:10171000002300E0DB1E012606FA05F1491E2140E8
:1017200099409E40761E16403143F0BC02F04DBCFD
:101730000CED00E0064900F0070208684FF6FF03D1
:10174000184040EA0220034A104308607047000036
:101750000CED00E00000FA052DE9F0470F4605000A
:1017600061D0434E306800F00700B84209D23068BB
:1017700020F0070038433060306800F00700B842BE
:1017800051D128683B4C810712D5400703D56068CA
:1017900040F4E06060602878000703D5606840F49A
:1017A000605060606068A96820F0F00008436060E5
:1017B0002878C00728D06868012810D0216802283E
:1017C00010D0890700292EDA616821F00301014356
:1017D0006160FFF78FFD804641F288390DE0216896
:1017E0008903EFE78901EDE7FFF784FDA0EB08012E
:1017F000494502D90320BDE8F0876068696800F0B8
:101800000C00B0EB810FEFD1306800F00700B84258
:101810000BD9306820F0070038433060306800F0A2
:101820000700B84201D00120E5E72878400705D538
:101830006068E96820F4E060084360602878000789
:1018400006D56068296920F4605040EAC1006060F4
:1018500000F03EF86168084AC1F30311515CC840CA
:101860000649086006480068FFF7F8FE0020C2E756
:101870000020024000100240A0780008E400002090
:10188000DC0000200148006870470000E4000020F0
:101890000448054900684968044AC1F30221515CC3
:1018A000C8407047E400002000100240B0780008F3
:1018B0000448054900684968044AC1F3C221515CE3
:1018C000C8407047E400002000100240B0780008D3
:1018D0000E4A51680E4801F00C03042B11D0082B5E
:1018E0000FD10C48C1F38343C903C05C0AD55168CA
:1018F000084AC1F34041921E515C054A5043B0FB77
:10190000F1F070470449484370470000001002405E
:1019100000127A009078000800093D002DE9F84F88
:10192000040070D02078C04DC00749D06868C0F36B
:101930008100012807D06868C0F38100022809D11E
:101940006868C00306D52868800339D56068002818
:10195000E7D035E06068B0F5803F0BD010B1B0F54E
:10196000A02F11D0286820F480302860286820F447
:10197000802002E0286840F480302860606890B1E0
:10198000FFF7B8FC06460AE0286840F4802028608B
:10199000F0E700BFFFF7AEFC801B642873D828680F
:1019A0008003F7D50CE0FFF7A5FC064605E000BF75
:1019B000FFF7A0FC801B6428F0D828688003F7D4C8
:1019C00020789A4E80074FF001094FF0000839D572
:1019D000686810F00C0F07D06868C0F38100022817
:1019E00009D16868C00306D42868800714D5206927
:1019F000012808D110E02069B0B1C6F80090FFF7C7
:101A000079FC074605E00AE1FFF774FCC01B0228D9
:101A1000C4D828688007F7D52868616920F0F800E5
:101A200040EAC10028600DE0C6F80080FFF762FCC4
:101A3000074604E0FFF75EFCC01B022823D8286895
:101A40008007F7D4207800072CD57948A169D9B14F
:101A5000C0F80090FFF74EFC074604E0FFF74AFC91
:101A6000C01B02280FD8686A8007F7D571484FF469
:101A7000FA510068B0FBF1F0009000BF0098411EE1
:101A80000091FAD20EE080E0C0F80080FFF732FC4F
:101A9000074604E0FFF72EFCC01B022875D8686AD1
:101AA0008007F7D42078400760D5E8690027C00098
:101AB00008D4E86940F08050E861E869012700F047
:101AC000805000905C480168C90513D401688346C2
:101AD00041F480710160FFF70DFC824606E000BF13
:101AE000FFF708FCA0EB0A0064284ED8DBF80000E2
:101AF000C005F5D5E06801280AD008B1052813D043
:101B0000286A20F001002862286A20F0040002E020
:101B1000286A40F001002862E06841F2883B98B1F1
:101B2000FFF7E8FB82460BE0286A40F004002862D9
:101B3000EEE700BFFFF7DEFBA0EB0A0159455AD8DC
:101B4000286A8007F6D50CE0FFF7D4FB824605E053
:101B5000FFF7D0FBA0EB0A0159454CD8286A800753
:101B6000F6D41FB1E86920F08050E861E06988B3DD
:101B70006968C1F38101022944D00228C6F8608057
:101B800004D0FFF7B7FB044638E034E0FFF7B2FBC0
:101B9000074604E0FFF7AEFBC01B02282BD82868DD
:101BA0008001F7D4206AB0F5803F05D16868A1684C
:101BB00020F4003008436860D4E9080108436968EC
:101BC00021F4741108436860C6F86090FFF792FB37
:101BD000044606E025E000BFFFF78CFB001B02284F
:101BE00009D828688001F7D51BE000BFFFF782FB0A
:101BF000001B022802D90320BDE8F88F2868800165
:101C0000F4D40EE00128F7D06868226A00F480312D
:101C1000914204D1616A00F47010884201D0012021
:101C2000EAE70020E8E7000000100240000042421E
:101C300080044242E40000200070004010B5401EC5
:101C4000B0F1807F01D3012010BD4FF0E02460612E
:101C50000F21601702F0B9F90020A0610720206170
:101C6000002010BD10B590F83C20012A22D001229E
:101C700080F83C20CA688C6822F4407222434C6889
:101C800022F4806222430C6822F4006222430C6931
:101C900022F4805222434C6922F400522243C96943
:101CA000002322F480420A4301684A6480F83C30F1
:101CB000002010BD022010BD70B590F83C20012A14
:101CC00026D0012480F83C40022280F83D200368A1
:101CD0005A689D6822F070060A6832435A600D4BBC
:101CE00002689A4208D0B2F1804F05D00A4B9A425E
:101CF00002D00A4B9A4204D1496825F08003194367
:101D0000916080F83D40002180F83C10084670BD8D
:101D1000022070BD002C014000040040000800407B
:101D200010B5040003D094F83D0010B107E0012085
:101D300010BD002084F83C00204600F01FF802206F
:101D400084F83D00211D206801F08AFE012084F8FE
:101D5000460084F83E0084F83F0084F8400084F890
:101D6000410084F8420084F8430084F8440084F879
:101D7000450084F83D00002010BD000008B5006853
:101D80000649884208D10648C16941F00201C16193
:101D9000C06900F00200009008BD0000000400408F
:101DA0000010024090F83D10012901D00120704739
:101DB000022180F83D1000680B49884208D0B0F13C
:101DC000804F05D00949884202D00949884204D190
:101DD000816801F00701062903D0016841F0010183
:101DE0000160002070470000002C0140000400400A
:101DF0000008004001680A6A41F211131A4207D133
:101E00000A6A9B101A4203D10A6822F001020A6092
:101E1000012180F83D100020704770B5044690F80D
:101E20003C000025012817D0012684F83C600220E0
:101E300084F83D002068826822F0770222F47F4215
:101E400082600868502838D00DDC20284FD005DC8F
:101E500090B3102811D14AE0022070BD302846D03E
:101E600040280AD13BE060282FD070280DD0B0F573
:101E7000805F03D0B0F5005F12D0012584F83D608B
:101E8000002084F83C00284670BDCB68D1E90121D0
:101E9000206801F02EFE2068816841F0770109E09A
:101EA000CB68D1E90121206801F023FE2068816818
:101EB00041F480418160E1E719E0CA68496820681F
:101EC00001F0CCFE5021206806E0CA68496820680D
:101ED00001F0D5FE6021206801F015FECEE7CA684A
:101EE0004968206801F0BAFE40212068F4E72268C2
:101EF00001461046F0E72DE9F0410D46040003D0FD
:101F000094F83D0018B108E00120BDE8F081002000
:101F100084F83C00204600F041F8022084F83D009F
:101F20002068816844F2070291438160211D206886
:101F300001F096FD226890689169166A2B68AF6976
:101F4000034340F20330814341EA0721A868EF6967
:101F500008434FF6FC418843E96840EA0720014303
:101F600028692F6A000140EA0730084369686D69F3
:101F700026F0220646EA05152943936022689061FF
:101F800054F8460B0162012004F81F09E075207621
:101F9000E0762077A0750020B7E7000000B585B097
:101FA0000021009101910291039101681A48B1F159
:101FB000804F1BD0194A914216D1C16941F00401EA
:101FC000C161C16901F004010491816941F0080116
:101FD00081618069694600F008000490C02000908B
:101FE0000F4800BFFFF78CF805B000BDC16941F094
:101FF0000101C161C16901F001010491816941F0F0
:10200000040181618069694600F0040004900320A6
:1020100000900448E6E7000000100240000800407D
:10202000000C01400008014070B590F83E60044685
:1020300090F83F5090F8423090F84320022021B1B0
:1020400004290ED0012E1BD114E0012E18D1012B32
:1020500016D184F83E0084F8420001220021206855
:1020600020E0012D0CD1012A0AD184F83F0084F828
:10207000430014E0012D03D1012B01D1012A01D02D
:10208000012070BD84F83E0084F83F0084F84200CF
:1020900084F8430001220021206801F01DFD012287
:1020A0000421206801F018FD2068016841F0010159
:1020B0000160002070BD000000B585B000210091D6
:1020C00001910291039100680B49884212D10B489B
:1020D000816941F0040181618069694600F0040072
:1020E00004904FF410600090022001900390044887
:1020F000FFF706F805B000BD002C014000100240BB
:102100000008014070B5044690F83C0000260D46DA
:1021100001280FD0012084F83C006AB1042A1DD0A8
:10212000082A2FD00C2A3FD00126002084F83C003A
:10213000304670BD022070BD206801F0EDFC2068C3
:10214000816941F0080181612068816921F0040101
:102150008161206881692A69114311E0206801F0DA
:1021600003FD2068816941F4006181612068816913
:1021700021F480618161206881692A6941EA022134
:102180008161D2E7206801F01BFD2068C16941F040
:102190000801C1612068C16921F00401C1612068A2
:1021A000C1692A69114311E0206801F035FD2068FA
:1021B000C16941F40061C1612068C16921F4806195
:1021C000C1612068C1692A6941EA0221C161ACE7A5
:1021D00010B5040003D094F83D0010B107E00120D1
:1021E00010BD002084F83C00204600F01FF80220BB
:1021F00084F83D00211D206801F032FC012084F8A4
:10220000460084F83E0084F83F0084F8400084F8DB
:10221000410084F8420084F8430084F8440084F8C4
:10222000450084F83D00002010BD000008B500689E
:102230000649884208D10648816941F400618161FC
:10224000806900F40060009008BD0000002C01408F
:102250000010024010B50446022249B104290ED0F4
:10226000082913D094F84100012816D0012010BD90
:1022700094F83E000128F9D184F83E200FE094F84C
:102280003F000128F2D184F83F2008E094F8400094
:102290000128EBD184F8402001E084F8412001229C
:1022A000206801F019FC0F492068884203D1426C74
:1022B00042F4004242642068884208D0B0F1804F66
:1022C00005D00949884202D00849884204D1816872
:1022D00001F00701062903D0016841F00101016006
:1022E000002010BD002C0140000400400008004008
:1022F00070477047F8B5016804460868CA684B69BA
:1023000010F00F0F4FF0000559D003F0010602F452
:102310009077374365D0C10705D0D10503D5616CEF
:1023200041F001016164410705D5D90703D0616C13
:1023300041F002016164810705D5D90703D0616CC2
:1023400041F004016164010707D502F02001314327
:1023500003D0616C41F008016164616C00293AD0DE
:10236000800604D5900602D5204601F0C9FC2068FD
:102370004069616CC0F38010090700D460B3204647
:1023800001F097FC20684069400621D52068143090
:1023900050E8001F21F0400140E80012002AF5D16A
:1023A000E06BA8B16D494163E06BFEF7FBFD0028CF
:1023B00011D0E06B416B01B0BDE8F04008478306E7
:1023C0000FD593060DD52046BDE8F84001F098BC26
:1023D0002046FFF78EFFF8BD2046FFF78AFF6564B1
:1023E000F8BD266B2023012E7CD1C6067AD5D606F1
:1023F00078D508684868009048694FF002064006A2
:1024000040D5E16B086840680004000CE8D0A28D5C
:102410008242E5D9E085886920282DD020680C30DB
:1024200050E8001F21F4807140E80012002AF5D125
:102430002068143050E8001F21F0010140E800122C
:10244000002AF5D12068143050E8001F21F0400127
:1024500040E80012002AF5D184F842302563206854
:102460000C3050E8001F21F0100140E80012002A53
:10247000F5D1E06BFEF772FD6663A08DE18D401A29
:1024800081B22AE0A08DE18D401A81B2E08D002852
:10249000A6D00029A4D022680C3252E8000F20F404
:1024A000907042E80007002FF5D12068143050E802
:1024B000002F22F0010240E80027002FF5D184F818
:1024C0004230256320680C3050E8002F22F01002C3
:1024D00040E80023002BF5D166632046FFF708FF94
:1024E000F8BDFFE705062BD5150629D594F8410060
:1024F0002128F5D1A068B0F5805F01D12069B0B185
:10250000206A411C2162216800784860E08C401EEE
:102510000004000CE084E3D12068C16821F0800150
:10252000C1602068C16841F04001C160D8E7206AFD
:102530000088C0F308004860206A801C2062E5E73C
:102540004006CDD55006CBD5CA68204622F04002C1
:10255000CA6084F8413000F007F9C1E7A33C0008E5
:1025600070B5040004D094F84100002510B106E0D5
:10257000012070BD84F84050204600F023F824204C
:1025800084F841002068C16821F40051C1602046F0
:1025900001F018FC2068016921F490410161206874
:1025A000416921F02A0141612068C16841F400516C
:1025B000C1606564202084F8410084F842006563AE
:1025C000002070BD30B585B00024009401940294C1
:1025D00003940068184988422CD11848C16941F415
:1025E0008021C161C16901F480210491816941F0B8
:1025F000080181618069124D00F0080004904FF4D9
:1026000080600090022001900320039069462846D4
:10261000FEF776FDE814CDE90004694628460294E9
:10262000FEF76EFD002211462720FFF763F82720F2
:10263000FFF752F805B030BD0048004000100240DE
:10264000000C014090F84230202B01D0022070474E
:1026500021B11AB10023036301F010BC01207047BF
:1026600030B400681349884222D11348134A00232A
:1026700001781278012411B1012907D00EE05B2AFC
:102680000CD1817851B90470437007E00A490C4DB0
:102690005D2A497808D06A54491C417030BC012237
:1026A00006490848FFF7CEBF03706B548470F5E706
:1026B00030BC70470048004064000020A8000020A3
:1026C00050010020280300202DE9F843044690F82B
:1026D0004100984616460D46202802D00220BDE84B
:1026E000F88385B17EB100206064212084F8410028
:1026F000FEF700FEA6848146E684A0682027B0F598
:10270000805F02D003E00120E9E7206910B12E4686
:1027100000250EE000260CE08021204601F0C9FBD8
:10272000A8B9C6B116F8010B21684860E08C401EBC
:10273000E084E08C4B464FF00002CDF8008000288A
:10274000EAD14FF04001204601F0B3FB40B184F8DC
:1027500041700320C3E735F8020BC0F30800E3E73C
:1027600084F841700020BAE77047FEE701684A69C3
:10277000D24352050FD46FF480624A61002140F8C1
:10278000301F202242738173026942F00402026109
:102790000173012070470020704700002DE9F843C5
:1027A000044600680D46DDE908970168984616461C
:1027B00041F4807101604B4600224FF00111204628
:1027C000009700F06BF848B120680068C00502D59A
:1027D0004FF4007020640320BDE8F883216805F001
:1027E000FE0008613B464A461549204600F09EF827
:1027F00088B920684169806900903A464946204678
:1028000000F0F2F848B1206C042804D12068016877
:1028100041F4007101600120DEE7F5B2B8F1010F6B
:1028200009D02168300A08613A464946204600F03E
:10283000DBF80028E7D1206805610020CCE7000024
:102840000200010070B516460D4604461EE0204603
:10285000FFF78CFF08B1012070BD681C16D0FEF791
:1028600049FD801BA84200D885B920684069C04353
:1028700040070BD5002044F8300F20216173A0736E
:10288000216941F0200121612073E4E7206840695B
:10289000C0434007DBD4002070BD00002DE9F047A5
:1028A000984617460D460446C1F30746DDF82090CA
:1028B0002AE000BFB8F1FF3F26D0FEF71BFDA0EBDA
:1028C0000901414502D8B8F1000F1DD12068012E41
:1028D00016D0806925EA00000004000C12D0002008
:1028E000B84211D1002044F8300F20216173A07349
:1028F000216941F02001216120730120BDE8F087AA
:102900004069E7E70120EBE72068012E0AD08069E3
:1029100025EA00000004000C06D00020B842C9D00F
:102920000020EBE74069F3E70120F7E72DE9F047E6
:10293000984616460D4604464FF000094FF0200A0F
:10294000C1F3074723E020684069C043400515D420
:102950002068016841F40071016021686FF48060B3
:102960004861C4F8309084F83DA084F83E90216C12
:1029700041F00401216484F83C9021E0701C06D0F1
:10298000FEF7B8FCA0EB0800B04203D816B1012F47
:102990001FD021E02068012F15D0806925EA0000B2
:1029A0000004000C18D000BF44F8309F84F80DA03C
:1029B00084F80E90216941F02001216184F80C9087
:1029C0000120BDE8F087406925EA00000004000C02
:1029D000EAD12068406901E02068806925EA0000AA
:1029E0000004000CAFD1ECE770B516460D46044666
:1029F0001EE02046FFF7BAFE08B1012070BD681C3A
:102A000016D0FEF777FC801BA84200D885B9206855
:102A10004069C04300060BD5002044F8300F202148
:102A20006173A073216941F0200121612073E4E703
:102A300020684069C0430006DBD4002070BD10B59B
:102A40006420FEF7FBFA012000F088F8012000F076
:102A500077F8BDE810403220FEF702BB10B5082120
:102A60000448FEF73DFC04460A20FEF7F9FA20462A
:102A700010BD0000000C014010B5012000F06EF800
:102A8000012000F05DF8FFF7E9FF0446002000F0A8
:102A900057F8204610BD70B50025012000F05EF803
:102AA00000248026012000F04BF8FFF7D7FF10B17B
:102AB00026FA04F00543002000F042F8641CE4B25A
:102AC000082CEFD3284670BD10B500F047F8012060
:102AD00000F036F8BDE81040002000F031B870B5C5
:102AE00000240646802525FA04F0304000D001205D
:102AF00000F034F8012000F023F8002000F020F866
:102B0000641CE4B2082CEED370BD10B5012000F0B7
:102B100025F8012000F014F8002000F01FF8BDE8AF
:102B20001040002000F00CB810B5002000F016F89E
:102B3000012000F005F8BDE81040012000F00EB8BB
:102B400010B5024610210448FEF7CFFBBDE8104047
:102B50000A20FEF785BA0000000C014010B50246BD
:102B600008210448FEF7C1FBBDE810400A20FEF72B
:102B700077BA0000000C0140064901600649416037
:102B8000064981600021C160016141618161C161CB
:102B9000016270476F12833AA69B443B8FC2F53C9B
:102BA0002DE9F04791460A46044601691046FDF7B3
:102BB0006BFB4946FDF76EFBE168FDF713FBE06038
:102BC000276A48463946FDF765FBA66980463146C7
:102BD000FDF75AFBE5692946FDF756FB2168FDF72D
:102BE00001FB4946FDF756FB6169FDF7FBFA6061A1
:102BF00040463146FDF74BFBA06140462946FDF7B4
:102C000046FBE06149466068FDF744FB3946FDF745
:102C1000E9FA2062BDE8F0872DE9F0478A46D0F84E
:102C20001480044681684046FDF7DCFA05460146FB
:102C30004046FDF761FBE769064629463846FDF741
:102C40005BFBD4F80C90054649465046FDF71CFB4B
:102C5000824630465146FDF71DFB4946FDF7C2FA54
:102C6000E06028465146FDF715FB2169FDF7BAFAE9
:102C7000206131464FF07E50D4F818A0D4F820904F
:102C8000FDF702FB06464146FDF704FB6061304656
:102C90005146FDF7FFFAA06128464146FDF7FAFAD2
:102CA0003946FDF7F4FAE06128465146FDF7F2FA9D
:102CB0004946FDF7ECFA2062BDE8F0872DE9F041C6
:102CC0000D461B4E04004FF400514FF4805705D5BC
:102CD00001223046FEF709FB002204E000223046C4
:102CE000FEF703FB012239463046FEF7FEFA002CC0
:102CF00000DA64420F4F386804644FF480414C009E
:102D0000002D05DA01223046FEF7EFFA002204E03A
:102D100000223046FEF7E9FA012221463046FEF74E
:102D2000E4FA002D00DA6D4238684563BDE8F081B1
:102D3000000C0140080200201CB5002000906846ED
:102D400002F0CEFE4FF0FF34A0B902F02BFB88B9A1
:102D5000322002F0D5FB68B94FF4A87002F0FAF9FE
:102D600040B9002002F0FEFB20B9012003F084F9F5
:102D7000002800D020461CBD0148C06A70470000F2
:102D8000180000200148C06B7047000018000020A8
:102D900010B5FFF754FE80216B2000F0F5FA642097
:102DA000FEF74CF900216B2000F0EEFA18211B20F1
:102DB00000F0EAFA0021BDE810401C2000F0E4BA5F
:102DC0000648007828B1012805D0022805D100F076
:102DD0002FBA00F005B800F0ADB870471800002019
:102DE0002DE9F05FFEF786FA4D4CA16888427CD34E
:102DF000491DA16000F092F9606BFDF77EFC494E21
:102E0000DFF8248132464346FDF767FB05460F464F
:102E1000A06BFDF772FC2A463B46FDF7B7FAFDF7BB
:102E20007FFC8246E06AFDF768FC32464346FDF7C8
:102E300054FB05460F46E06BFDF75FFC2A463B4618
:102E4000FDF7A4FAFDF76CFC8146206BFDF755FCFD
:102E500032464346FDF741FB06460D46206CFDF722
:102E60004CFC32462B46FDF732FBFDF759FC804601
:102E7000606AFDF742FC06460D46206AFDF73DFC00
:102E800032462B4601F046FF4FF06042274BFDF7DC
:102E900096FBDFF89CB000225B46FDF71EFBFDF7BA
:102EA0003FFC0646606AFDF728FC07460D46E069D0
:102EB000FDF723FC3A462B4601F02CFF4FF0604211
:102EC0001A4BFDF77CFB00225B46FDF706FBFDF786
:102ED00027FCC4F838A0616805468A464FF07E504A
:102EE000FDF7D2F90746314600E017E0FDF7D2F9C9
:102EF000064649465046FDF7CDF93146FDF772F9D1
:102F0000E06338462946FDF7C5F905464146504677
:102F1000FDF7C0F92946FDF765F92064BDE8F09F8B
:102F2000180000207B14AE47E17A743FF02109407D
:102F3000008066402DE9F047FEF7DCF9524CE1686D
:102F400088427DD3491DE16000F0E8F8606AFDF732
:102F5000D4FB06460D46206AFDF7CFFB32462B46D2
:102F600001F0D8FEDFF824914FF0604842464B460E
:102F7000FDF725FB464F00223B46FDF7AEFAFDF775
:102F8000CFFB8246606AFDF7B8FB05460E46E06956
:102F9000FDF7B3FB2A46334601F0BCFE42464B46E2
:102FA000FDF70DFB00223B46FDF797FAFDF7B8FB56
:102FB0008146606BFDF7A1FB364FDFF8DC803A46B7
:102FC0004346FDF78AFA05460E46A06BFDF795FBD2
:102FD0002A463346FDF7DAF9FDF7A2FB2061E06AE5
:102FE000FDF78BFB3A464346FDF777FA05460E465A
:102FF000E06BFDF782FB33462A46FDF7C7F9FDF784
:103000008FFB6061206BFDF778FB3A464346FDF786
:1030100064FA05460E46206CFDF76FFB2A463346E0
:10302000FDF755FAFDF77CFBA061607850B91B48AD
:10303000FFF7A2FD19482430FFF79EFD012000E0B4
:1030400020E06070164D15482A46E16AFFF7A8FD9A
:1030500051461248FFF7E0FD206B2A4680F0004100
:103060000E482430FFF79CFD0C4849462430FFF7FA
:10307000D3FD2069A0630948C068E0630748243095
:10308000C0682064BDE8F08718000020F0210940E6
:10309000008066407B14AE47E17A743FF400002064
:1030A0000AD7A33B10B50446FFF72FFDD020FFF74A
:1030B00016FDFFF7E1FC2046FFF711FDFFF7DCFCF2
:1030C000FFF723FDD120FFF70AFDFFF7D5FCFFF73F
:1030D000E2FC04460120FFF7F7FCFFF725FD204640
:1030E00010BD000070B50C4D0446287884420AD00B
:1030F000022C02D0022807D009E0FFF71DFE0028AD
:1031000001D10220287070BD002002F0B5FFFFF74A
:103110003FFE2C7070BD0000180000202DE9F0412A
:103120003C20FFF7BFFF04463B20FFF7BBFF44EA0C
:10313000002004B23E20FFF7B5FF05463D20FFF713
:10314000B1FF45EA002006B24020FFF7ABFF05467D
:103150003F20FFF7A7FF45EA002005B22046FDF714
:103160009DFA2E4F3946FDF795F82D4CE06130461B
:10317000FDF794FA3946FDF78DF820622846FDF7F1
:103180008DFA3946FDF786F860624220FFF78AFF24
:1031900005464120FFF786FF45EA002000B2FDF713
:1031A0007DFA2049FDF7A8F81F49FDF71BF8A0623A
:1031B0004420FFF777FF05464320FFF773FF45EAFA
:1031C000002007B24620FFF76DFF05464520FFF7B8
:1031D00069FF45EA002006B24820FFF763FF054675
:1031E0004720FFF75FFF45EA002005B23846FDF7AC
:1031F00055FA0E4F3946FDF74DF8E0623046FDF7BF
:103200004DFA3946FDF746F820632846FDF746FAA1
:103210003946FDF73FF86063BDE8F081D5FF7F38A0
:10322000180000205CEFA6430000A841D6FF793DBE
:103230002DE9F04F8DB00CA902A8CDE900010BAB30
:1032400003AA09A907A802F0B7F800287ED1BDF8A3
:103250000800C0057AD50398FDF720FA6FF01D0429
:103260002146FDF787F881460498FDF717FA2146B5
:10327000FDF780F880460598FDF710FA2146FDF726
:1032800079F806460698FDF709FA2146FDF772F827
:10329000054631460846FCF7FDFF834641465C463D
:1032A0000846FCF7F7FF2146FCF79CFF0121FDF7DC
:1032B00061F84FF07E573946FCF7E9FF044629468E
:1032C0003046FCF7E7FF824641464846FCF7E2FFFE
:1032D0005146FCF787FF0121FDF74CF8214601F02C
:1032E000D9FDDFF894A05146FCF7D4FF234C4146AA
:1032F00020642846FCF7CEFF009031464846FCF794
:10330000C9FF0099FCF7C0FF0121FDF733F8FDF775
:10331000F4F91B4A1B4BFDF7E0F8FDF701FA01F049
:1033200057FB2946E0630846FCF7B4FF01465846C0
:10333000FCF758FF0121FDF71DF83946FCF7A7FF00
:10334000074631464046FCF7A5FF00E011E006467F
:1033500029464846FCF79EFF3146FCF743FF012112
:10336000FDF708F8394601F095FD5146FCF792FF4C
:10337000A0630DB0BDE8F08FE12E6542180000207B
:10338000CB67791EDCA54C4070B50D460446FFF7AF
:10339000BCFBD020FFF7A3FBFFF76EFB2046FFF737
:1033A0009EFBFFF769FB2846FFF799FBFFF764FBDD
:1033B000BDE87040FFF7B8BB2DE9F04186B00025AD
:1033C00035480095019502950395816941F01001FA
:1033D0008161816901F010010491816941F020014E
:1033E0008161816901F020010491816941F004014A
:1033F0008161816901F004010491816941F0080152
:1034000081618069254F00F00800049000220821A6
:103410003846FDF76AFFDFF888804FF470460022D7
:1034200031464046FDF761FF012218214046FDF775
:103430005CFF042000901B48CDE901056946384631
:10344000FDF75EFE08200124CDE900040320CDE94C
:10345000024069463846FDF753FE0096CDE9014526
:103460000225694640460395FDF74AFE1820009064
:1034700001AA112082E8310069464046FDF740FE6E
:10348000002211460820FEF735F90820FEF724F93E
:1034900006B0BDE8F08100000010024000080140C5
:1034A000000C0140000031100D4810B50B490160BF
:1034B0000C49416000214FF480428160C0E9031251
:1034C00041618161C1610162FDF71AFF002803D0EB
:1034D000BDE81040FDF740BD10BD000000540040A5
:1034E000B4010020A086010010B592B000240F9412
:1034F0001C2168461094FCF72CFE202107A8FCF73D
:1035000028FE25482349C0E9001441F61F41C0E9BF
:103510000241046144618461FEF75AFE08B1FDF77F
:103520001BFD0F940FA91C481094FEF7C5FB08B1B2
:10353000FDF712FD602000904FF4E150CDE9010449
:103540000394049405940022694613480694FEF7F8
:10355000D9FD08B1FDF700FD0C2269460E48FEF7C3
:10356000D1FD08B1FDF7F8FC0794089409944FF4D5
:1035700000500A94CDE90B4007A907480E94FEF7C6
:1035800071FB08B1FDF7E8FC0348FEF795FD12B0AA
:1035900010BD0000002C01400802002010B58CB0C6
:1035A00024216846FCF7D5FD0024154809944FF006
:1035B00080410A94C0E900144FF6FF71C0E902414E
:1035C000046184610320CDE900040120CDE90204F7
:1035D0000494CDE905400794694609480894FEF72C
:1035E0008AFC08B1FDF7B8FC099409A904480A94BB
:1035F000FEF762FB002801D0FDF7AEFC0CB010BD59
:103600005002002010B586B00024174800940194A1
:103610000294039404941349059401604721C0E97E
:1036200001144FF6FF71C0E903148461FEF778FBC3
:1036300008B1FDF791FC4FF48050009069460A48AC
:10364000FEF7EBFB08B1FDF787FC049404A90648DC
:103650000594FEF731FB002801D0FDF77DFC06B094
:1036600010BD0000000400409802002010B58CB08E
:1036700024216846FCF76DFD00241648099414497E
:103680000A94C0E900144FF6FF71C0E902410461D9
:1036900084610320CDE900040120CDE902040494F3
:1036A000CDE90540079469460A480894FEF723FCD3
:1036B00008B1FDF751FC099409A906480A94FEF7E0
:1036C000FBFA002801D0FDF747FC0CB010BD00004C
:1036D00000080040E00200200C4810B50A490160D3
:1036E0004FF416514160002181600C22C160C0E995
:1036F00004128161C161FEF733FF002803D0BDE8E9
:103700001040FDF729BC10BD0048004028030020F0
:10371000FEE7FEE770B5002404F1B000C0B200F08F
:10372000AFF8002000F0ACF8102000F0A9F8002558
:10373000002000F0B7F86D1CEDB2802DF8D3641CAA
:10374000E4B2082CE8D370BD70B5C820FDF776FC54
:10375000044D0024285D00F093F8641CE4B2172C9B
:10376000F8D370BD0000002010B50446B031C8B2D7
:1037700000F086F8102040EA141000F081F804F000
:103780000F00BDE8104000F07BB800002DE9F047C5
:10379000203A0024089E0F468146D5B27F2803D9DF
:1037A00000208F1C8146FFB2102B394612D0FFF744
:1037B000DBFF1B4905EB450001EB4005285D0EB121
:1037C000C043C0B200F06EF8641CE4B2062CF5D31E
:1037D000BDE8F087FFF7C8FFDFF8488004EB05116C
:1037E00018F801000EB1C043C0B200F05BF8641CD1
:1037F000E4B2082CF2D37F1CF9B24846FFF7B4FFBD
:103800000024474604EB05103844007A0EB1C0434B
:10381000C0B200F047F8641CE4B2082CF2D3D7E73A
:103820003C640008646600082DE9F8431E4617460C
:10383000894604460025DDF8208014E033464946D9
:103840002046CDF80080FFF7A1FF0C2E10D00834E1
:10385000E4B27A2C01D90C2E0CD0782C01D9102E80
:1038600008D06D1CEDB27A5D002AE7D1BDE8F8837F
:10387000A41DEDE709F10100002400F0FF09F0E7C5
:1038800001B584B001214FF4807204A88DE80700CF
:103890000B46002278210248FDF7F6FD05B000BD79
:1038A000B401002001B584B001214FF4807204A856
:1038B0008DE807000B46402278210248FDF7E4FD21
:1038C00005B000BDB40100202DE9F0410446D4E963
:1038D0000301FCF7D9FC0546606129462068FCF726
:1038E000D9FC07462946E069FCF77CFC0546E06107
:1038F00029466068FCF7CEFC06462846216AFCF79C
:103900002BFF01D2206AE061206AE16980F000406B
:10391000FCF722FF03D2206A80F00040E061616A78
:10392000A068FCF7B7FC054631463846FCF75AFC60
:103930002946FCF757FCA062E16AFCF70DFF01D2B3
:10394000E06AA062E06AA16A80F00040FCF704FF30
:1039500003D2E06A80F00040A062BDE8F0817047C9
:10396000704700002DE9F041194CA07801282DD1B5
:1039700018A11948FCF714FC18A1FCF7F5FB18BBBB
:1039800014A10020FCF70CFC064612A10020FCF755
:1039900007FC074613A13046FCF7E6FB04F11405CB
:1039A00028B113A13046FCF7DFFB38B10CE03846F4
:1039B00001F09EFBFCF7B4FE286005E0384601F0FC
:1039C00097FBFCF7ADFEA8600020A070BDE8F08179
:1039D000640000202C00000050010020736C69641A
:1039E00065720000616E676C655F6B7000000000BF
:1039F000616E676C655F6B6400000000FDF714BECC
:103A000030B58FB028216846FCF7A3FB14210AA823
:103A1000FCF79FFB01210804CDE90010002402946B
:103A200002250491CDE907504FF4E0100990684653
:103A3000FDF774FF08B172B6FEE70F20CDE90A0565
:103A40004FF48060CDE90C4002210AA80E94FDF7E6
:103A500083FE002801D072B6FEE70FB030BD70477C
:103A6000F0B50268194B1A4C1A4D4FF08047984236
:103A700005D0B84203D0A04201D0A84203D122F021
:103A800070064A683243984205D0B84203D0A0423B
:103A900001D0A84203D122F44074CA6822434C6981
:103AA00022F08002224302608A68C2620A6882624F
:103AB000984201D109690163012141610169C90786
:103AC00003D0016921F001010161F0BD002C01402A
:103AD000000400400008004010B501F01F03012160
:103AE000046A99408C430462016A9A40114301625E
:103AF00010BD10B5846842EA032224F47F440A43CF
:103B00002243826010BD826822F070020A4342F0B4
:103B1000070181607047000030B5036A026A22F035
:103B2000010202624268846924F073050C682C4328
:103B300023F002058B682B430A4DA8420BD123F0DA
:103B40000805CB6822F440722B434D6923F004032F
:103B500015438A692A43426084614968416303626C
:103B600030BD0000002C014030B5026A036A23F02A
:103B700010030362436884690D6824F4E64444EA50
:103B800005248D6822F0200242EA05120B4DA8425E
:103B90000ED1CD6822F0800242EA05124D6923F46D
:103BA000406343EA85038D6922F0400243EA8503BE
:103BB0004360846149688163026230BD002C01402A
:103BC00030B5036A026A22F4807202624268C469F4
:103BD00023F4007324F073050C682C438D6843EACA
:103BE00005230C4DA8420ED1CD6823F4006343EAAF
:103BF00005234D6922F4405242EA05128D6923F4EF
:103C0000806342EA05124260C4614968C16303628D
:103C100030BD0000002C014030B5046A026A22F475
:103C2000805202624268C3690D6823F4E64343EAA6
:103C300005238D6824F4005444EA0534064DA84257
:103C400004D14D6922F4804242EA85124260C36188
:103C500049680164046230BD002C014010B5036A5C
:103C6000046A24F001040462846924F0F00444EA44
:103C7000021423F00A020A438461026210BD10B5E7
:103C8000036A046A24F010040462846923F0A00328
:103C900024F4704444EA023243EA01118261016271
:103CA00010BD10B5406A0021C185C184FEF721FB1B
:103CB00010BD01680C3151E8002F22F4907241E8E8
:103CC0000023002BF5D10168143151E8002F22F0B8
:103CD000010241E80023002BF5D1016B012909D134
:103CE00001680C3151E8002F22F0100241E8002356
:103CF000002BF5D1202180F842100021016370478C
:103D000008B590F84210222901D0022008BD82682F
:103D10004FF480539A4201D1016921B1816A9A42DC
:103D20001BD04AB10AE00268816A5268C2F30802F5
:103D30000A80816A891C08E0026972B102685268CF
:103D400002F07F020A70816A491C8162C18D491E9E
:103D50000904090CC18503D01BE002685268F1E731
:103D60000168CA6822F02002CA600168CA6822F4A9
:103D70008072CA6001684A6922F001024A6120210A
:103D800080F8421000214163026B012A03D0FEF744
:103D900067FC002008BD016301680C3151E8002F69
:103DA00022F0100241E80023002BF5D101680A68D7
:103DB000D20602D50A6849680091818DFEF798FA0B
:103DC000E7E7000070B5044600680169E26821F485
:103DD0004051114301612169A068084361690843AA
:103DE0002168CA6841F20C639A430243CA602068A2
:103DF0004169A26921F44071114341611E49206863
:103E0000884202D1FDF754FD01E0FDF741FD00EBD2
:103E1000C00101EB0012606864218000B2FBF0F386
:103E2000B3FBF1F36FF018067343B2FBF0F5B2FB8E
:103E3000F0F605EB8305322303EB0515B5FBF1F531
:103E4000B6FBF1F605F0F00505EB0615B2FBF0F652
:103E5000B2FBF0F0B0FBF1F06FF01802504306EB4C
:103E6000800003EB0010B0FBF1F0216800F00F00C0
:103E70002844886070BD000000380140816282855E
:103E8000C28500214164222180F84210016921B1DC
:103E90000168CA6842F48072CA6001684A6942F0E7
:103EA00001024A610068C16841F02001C160002040
:103EB00070472DE9F843984617460D460446089E7C
:103EC00024E0701C22D0FDF715FAA0EB0800B042E8
:103ED0001AD8CEB12068C168490717D5802D15D0F2
:103EE000402D13D00168C94309070FD4016800258C
:103EF000406800902046FFF7DCFE0820606484F8EC
:103F000040500120BDE8F8830320FBE720680068EB
:103F100035EA000004D00020B842D2D00020F1E7FA
:103F20000120F9E70148FEF7E5B900002803002069
:103F3000FEE700000FB4054B10B503A9044A029830
:103F400000F0AAF910BC5DF814FB0000AD580008A1
:103F5000EC0000200FB4084B10B504A902AA039886
:103F600000F09AF9044602A9002000F02CFD20463A
:103F700010BC5DF814FB0000C7490008490050EA76
:103F8000C12018BF04204A0D18BF40F0010040F2C4
:103F9000FF72B2EB515F08BF40F00200012808BF7A
:103FA000052070474100080218BF04200A0E18BF00
:103FB00040F001004FF07F4232EA010108BF40F0BB
:103FC0000200012808BF052070470907090E0028D4
:103FD00004DB00F1E02080F80014704700F00F00CF
:103FE00000F1E02080F8141D70472DE9F0414F1ECC
:103FF00000EBC7010446D1E9000115461E4637F023
:1040000006020DD02A463346FCF767FA7F1E04EB02
:10401000C703D3E90023FCF7B9F937F00602F1D161
:10402000022F25D0042F13D0062F18BFBDE8F08132
:104030002A463346FCF751FAD4E90A23FCF7A6F9DD
:104040002A463346FCF749FAD4E90823FCF79EF9DF
:104050002A463346FCF741FAD4E90623FCF796F9E1
:104060002A463346FCF739FAD4E90423FCF78EF9E3
:104070002A463346FCF731FAD4E90223FCF786F9E5
:104080002A463346FCF729FAD4E90023BDE8F0417B
:10409000FCF77CB90122FCF7FABEFCF777B9000007
:1040A000024A00201107FCF7F2BE000001FDFFFFED
:1040B0000121FCF75FB9FCF795B800210846FCF731
:1040C0001BB96FF05E010807FCF754B9014800689E
:1040D00070470000F000002002E008C8121F08C16D
:1040E000002AFAD170477047002001E001C1121F79
:1040F000002AFBD1704700000149086070470000AA
:10410000F00000202DE9FF5F82B00021DDE90430DE
:10411000020DDDF840B0034318D044F61050A2F26F
:10412000FF3242431514119801281FD0A5EB0B0054
:10413000401C5FEA000A4FF000064E4FDFF838914E
:10414000B046504615D5CAF1000413E01198012479
:104150004AA3012801D16FEA0B010298119AC0E924
:104160000031C0E9024206B0BDE8F09FCBF100008B
:10417000DFE704460021404A491842EB0450CDE9EC
:10418000001012E0E00707D032463B464046494661
:10419000FCF7A3F98046894632463B46104619464D
:1041A000FCF79BF906460F466410002CEAD1DDE9C6
:1041B0000401DDE90023BAF1000F06DAFCF78DF9FE
:1041C00042464B46FCF789F905E0FCF7F8F9424610
:1041D0004B46FCF7F4F904460E460022284BFCF748
:1041E00027FC03D84FF0FF30014607E00022254BA3
:1041F00020463146FCF7CAF8FCF702FC102409E01F
:10420000002C0ADB0A220023FCF7C6FA039B30329B
:104210001A55641E50EA0102F2D1641C039AC4F1DB
:1042200011031444119A012A03D0012208430DD12D
:104230000AE0084304D000204FF0110B119072E700
:10424000A3EB0B056D1E0DE05B4504DD4FF0000296
:1042500005F1010504E003DA4FF00002A5F10105C4
:10426000002AECD002981199C0E90231C0E900455A
:1042700079E70000000014400000F03F300000002B
:104280000000F0430000E03F30380A2801D201204E
:1042900070470020704700002DE9FF4F95B09B4606
:1042A0008946064600250FE2252877D100242746B7
:1042B000F84A0121059400E0044316F8013F203B31
:1042C00001FA03F01042F7D130782A2811D06FF0AC
:1042D0002F033078A0F13002092A16D8059A44F04D
:1042E000020402EB820203EB42021044761C0590AA
:1042F000EFE759F8042B0592002A03DA504244F400
:104300000054059044F00204761C30782E2816D113
:1043100016F8010F44F004042A280DD06FF02F0284
:104320003078A0F13003092B09D807EB870302EBA3
:104330004303C718761CF3E759F8047B761C3078E2
:104340006C280FD006DC4C2817D068280DD06A28BE
:1043500014D104E0742810D07A280FD10DE044F471
:1043600000140AE044F4801401E044F4401472782C
:10437000824202D104F58014761C761C30786628BF
:104380000BD013DC582877D009DC002875D04528DD
:10439000F6D04628F4D047281AD19DE118E06328CA
:1043A00035D0642879D0652812D195E1702873D072
:1043B00008DC6728F1D069286FD06E280DD06F28EF
:1043C00006D1B5E073282CD0752875D0782874D024
:1043D0005A46179990476D1C75E1C4F302500228A4
:1043E00009D003280DD0D9F8001004280DD00D6095
:1043F00009F1040967E1D9F80010EA17C1E9005290
:10440000F6E7D9F800100D80F2E70D70F0E719F823
:10441000041B8DF8001000208DF80100EA460120F1
:1044200003E059F804AB4FF0FF3061074FF0000193
:1044300002D40DE008F101018846B9420FDA804547
:10444000F8DB1AF808100029F4D108E008F101019E
:1044500088468142FADB1AF808100029F6D105983F
:104460005B46A0EB080721463846179A00F094FAFD
:10447000284400EB080507E04DE029E10DE01AF8BB
:10448000010B5A4617999047B8F10108F7D25B46DD
:1044900021463846179A13E142E00A220092C4F3FB
:1044A00002524FF0000A022A08D059F804CB032A1E
:1044B0004FEAEC710AD00DE029E02AE009F107018A
:1044C00021F00702F2E802C1914609E00FFA8CFCE4
:1044D0004FEAEC71042A03D14FFA8CFC4FEAEC71DD
:1044E000002907DA0A460021DCF1000C61EB020129
:1044F0002D2202E0220504D52B228DF80420012272
:1045000003E0E20701D02022F7E7904659E00A21B4
:1045100002E010220DE010214FF0000A00910BE0A4
:1045200010224FF0000A44F004040827009203E030
:1045300008224FF0000A0092C4F30252022A05D06A
:1045400059F804CB0021032A08D009E009F107013A
:1045500021F00702F2E802C1914605E01FFA8CFC47
:10456000042A01D10CF0FF0C4FF00008220728D5D7
:10457000702806D0009B83F0100353EA0A0305D08D
:104580000EE040228DF80420012208E05CEA0102DE
:1045900006D030228DF804208DF8050002229046C6
:1045A000009B83F0080353EA0A030AD15CEA010284
:1045B00001D1620705D530228DF804204FF00108A3
:1045C0007F1E582804D034A003900EA802900DE05E
:1045D00036A0F9E753466046009AFCF7DDF88446BA
:1045E0000398825C0298401E029002705CEA01000F
:1045F000F0D1029806A9081A00F1200A600702D536
:1046000024F4803400E00127574502DDA7EB0A00BF
:1046100000E0002000EB0A01009005984144401A98
:104620000590E00306D45B462146179A059800F0F2
:10463000B3F90544002706E001A85A46C05D179962
:1046400090476D1C7F1C4745F6DBE0030CD55B46AD
:104650002146179A059800F09FF9054404E03020A0
:104660005A46179990476D1C0099481E00900029E2
:10467000F5DC08E0029802995A460078491C02913C
:10468000179990476D1CBAF10001AAF1010AF1DCFB
:1046900065E1000009280100303132333435363706
:1046A000383961626364656600000000303132337E
:1046B000343536373839414243444546000000001E
:1046C00000F058F90544761C307800287FF4ECADF2
:1046D00019B02846BDE8F08F620700D4062709F11B
:1046E000070222F0070CFCE80223E14603F0004831
:1046F0005FEA080C02D00FF2702C0DE05FEA045C58
:1047000002D50FF2682C07E05FEAC47C02D00FF2FA
:10471000602C01E0AFF2700C4FF0FF3823F0004343
:10472000CDF850C065280CD006DC452809D04628B5
:104730001DD047283DD13DE0662818D067287ED19E
:1047400038E00021112F01DB112000E0781CCDE9B9
:10475000000106A90EA8FFF7D5FCDDE90F010E9AAE
:1047600003910021009207F1010A04914DE04FF0FE
:1047700000400097CDE9011006A90EA8FFF7C2FC82
:10478000DDE90F0203920E9B11990022DDF80CA0C7
:104790000093049211B9791C00EB010AB7EB0A00EF
:1047A00004D4C0F1FF3007F1010A0490AAEB07001E
:1047B000019044E0012F00DA01270021112F01DDD3
:1047C000112000E03846CDE9000106A90EA8FFF748
:1047D00099FCDDE90F010E9A0391002104910092EA
:1047E000BA4621070CD40399514500DA8A46BAF13A
:1047F000010F05DD009AAAF10101515C302908D0B2
:10480000B84202DA10F1040F06DA0121CDE90110F5
:1048100015E0AAF10101E9E7002805DC049901444B
:104820000491AAEB000102E0411C514500DD8A46DB
:104830000499401A401C01904FF00040029020075C
:1048400004D40198504501DBCDF8048000208DF898
:104850004F0002980DF14F07B0F1004F25D02B20EB
:104860000E9002984FF0020800280CDA40420290A5
:104870002D200E9007E00A210298FBF777FF3031D8
:10488000029007F8011DB8F10001A8F10108F2DC5F
:1048900002980028EFD1791E0E980870307800F049
:1048A000200040F0450007F8020D12A8C01B00F1DF
:1048B00007081498007800B1012000EB0A01019864
:1048C00001EBE07105984144401A401E0590E00359
:1048D00006D45B462146179A059800F05DF805441A
:1048E0001498007818B15A46179990476D1CE00348
:1048F00024D55B462146179A059800F04DF80544EB
:104900001CE00498002807DBDDE90301884203DD91
:104910000098405C179901E0179930205A4690475B
:10492000049805F10105401C04900198401E019077
:1049300004D12E205A46179990476D1CBAF10001F8
:10494000AAF1010ADDDC05E017F8010B5A461799B8
:1049500090476D1CB8F10001A8F10108F4DC5B463A
:104960002146179A0598ABE62D0000002B000000A9
:10497000200000002DE9F041044600251E461746A0
:10498000880404D405E039462020B0476D1C641E1D
:10499000F9D52846BDE8F0812DE9F041044600250F
:1049A0001E469046C80301D5302700E02027880422
:1049B00004D505E041463846B0476D1C641EF9D564
:1049C0002846BDE8F0810A68531C0B6010707047E0
:1049D0002DE9F04104464FF00E4000EB4400B0F1E9
:1049E000506F204655D84FF0FC41B1EB440F1CD21C
:1049F00024F000404FF07E51FBF749FC4FF0FF31AF
:104A0000FBF7B8FC054601F003FD14F0004F1DBF95
:104A10002F4F304E80F000402F4F08BF2F4E4FF0E9
:104A20004041FBF737FC044605E000273E460146BF
:104A3000FBF730FC05462A492846FBF72BFC2949A1
:104A4000FBF7D0FB2946FBF725FC2749FBF7CAFB00
:104A50002946FBF71FFC2549FBF7C4FB2946FBF75A
:104A600019FC2349FBF7BEFB804629462046FBF78D
:104A700011FC4146FBF70EFC054631462046FBF78C
:104A8000B1FB2946FBF7AEFB3946BDE8F041FBF729
:104A9000A9BB4FF0E441B1EB440F08D9FFF782FA0C
:104AA000042808BFFFF70DFB2046BDE8F0814FF05A
:104AB0007F41B1EB440F03D2BDE8F041FFF7F8BAF4
:104AC0000120FFF719FBBDE8F041FFF7F6BA00003F
:104AD0000000C9BF22AAFDB90000C93F22AAFD39C2
:104AE00024FE1C3DC78AD83C1E67383D1B93993D68
:104AF000AFAA2A3E2DE9F84F04460D4621F00040AA
:104B000000917349814211DC7249884201DC06D16F
:104B10002CB120462946BDE8F84FFFF7BBBA6E48D6
:104B2000002DCCBF6D496E49BDE8F88F6D498142BB
:104B300011DD6D498142D8BF4FF0FF366DDD204653
:104B40002946FFF71BFA042808BFFFF7A9FA2046F9
:104B50002946BDE8F88F6549654F25F0004581423B
:104B600033DD6449814219DD002632464FF080432F
:104B700020462946FBF70AFC80468A460122204649
:104B80002946FCF784F900223B46FBF7A0FC42468D
:104B90005346FBF714FD04460D463EE00126002275
:104BA000BA463B4620462946FBF7F0FB80460F46B7
:104BB0000022534620462946FBF789FC42463B46E5
:104BC000FBF7FDFC04460D4627E04B4981421BDD07
:104BD000DFF828A102260022534620462946FBF78B
:104BE0007CFC00223B46FBF7D1FB80460F460022AF
:104BF000534620462946FBF76AFC42463B46FBF7F4
:104C0000DEFC04460D4608E0032622462B46002023
:104C10003B49FBF7D4FC04460D4622462B46104682
:104C20001946FBF75AFC8B46824602460B46FBF7B9
:104C300054FC07460246334888460B460621784412
:104C4000FFF7D3F952465B46FBF747FC82462E48F6
:104C50008B463A46434605217844FFF7C6F93A4663
:104C60004346FBF73AFC02460B46002E5046594697
:104C70000CDAFBF78BFB22462B46FBF72EFC01B030
:104C800022462B46BDE8F04FFBF724BCFBF77EFB2A
:104C900022462B46FBF721FC1C4A7A4402EBC60352
:104CA000D3E90023FBF713FC22462B46FBF70FFC4E
:104CB000174A7A4402EBC603D3E90023FBF70AFC48
:104CC000009A002AB8BF81F00041BDE8F88F0000CB
:104CD000000010440000F07F182D4454FB21F93FE0
:104CE000FB21F9BF0000DC3F0000203E0000F33F45
:104CF0000000F03F0000E63F008003400000F83F66
:104D00000000F0BFDE2C00009C2C00003A2C0000BC
:104D1000022C00002DE9F04D9446CCF1000423F064
:104D200000464CEA0404524F46EAD4749A46884638
:104D300021F00042BC4206D8454240EA050442EA5E
:104D4000D474BC4204D9BDE8F04D6246FFF7A5B962
:104D5000AAF14055A5F17F6555EA0C040BD0022459
:104D600004EAAA74434DDFF810E144EAD87452EA29
:104D7000000B04D00CE0BDE8F04DFFF7BBBE002CEB
:104D800014BF012CBDE8F08D022C30D0032C32D0A2
:104D900056EA0C0B0AD0BE4220D1BA4209D126F005
:104DA000804622F080423346114617E000291ADB84
:104DB00025E0DFF8C8B0FB44002C04BFDBE90001AC
:104DC000BDE8F08D012C02BFDBE9000181F000415C
:104DD000BDE8F08D022C0AD0032C0CD0BA4212D1BF
:104DE000B8F1000F0BDA23482549BDE8F08D2846BD
:104DF0002449BDE8F08D28467146BDE8F08D1D4878
:104E00002149BDE8F08D921B12153C2AC4BF1948F8
:104E10001D490EDCBAF1000FBEBF12F13C0F00209D
:104E2000014606DB6246FBF7CAFB21F00041FFF7B3
:104E300061FE002C08BFBDE8F08D012C04BF81F09D
:104E40000041BDE8F08D114A114B022C07D0FBF751
:104E50003EFB2A46BDE8F04D0A4BFBF738BBFBF79B
:104E600036FB2A46BDE8F04D064BFBF733BB00008E
:104E70000000F07F182D4454FB2109C0962B000040
:104E8000FB21F9BFFB210940FB21F93F075C1433EB
:104E900026A6A13C2DE9F0474FF0684202EB400303
:104EA0000C460546B3F1654F3CBF02EB4102B2F13F
:104EB000654F7CD2C0F3C753C1F3C7529A1A1B2A5D
:104EC00006DD10F0004F14BF76487748BDE8F08744
:104ED00012F11A0F17DA11F0004F06D010F0004F40
:104EE0000CBF72487248BDE8F08721462846FBF7A0
:104EF00003FA0446FFF756F8042808BFFFF7E1F865
:104F00002046BDE8F0874200B2EB410F25D910F0F2
:104F1000004F19BF674F684E684F694E224685F0B3
:104F2000004415460A4680F0004110460A1A520015
:104F3000B2F1807F40D248406249DFF88CA110F086
:104F4000004F18D04FF03F483846FBF79DF9074611
:104F500051463046FBF798F917E011F0004F04BFB7
:104F600000263746E2D010F0004F19BF574F584E79
:104F7000584F594EDAE74FF07C583846FBF732F974
:104F8000074651463046FBF72DF90646414628466E
:104F9000FBF780F92146FBF725F98246214640467A
:104FA000FBF778F92946FBF772F9514600E037E044
:104FB000FBF7A2F9044604E021462846FBF79CF9DA
:104FC00004460146FBF766F980464449FBF762F95F
:104FD0004349FBF707F94146FBF75CF94149FBF709
:104FE00001F94146FBF756F93F49FBF7FBF841460B
:104FF000FBF750F93D49FBF7F5F8054641462046D9
:10500000FBF748F92946FBF745F93146FBF7EAF883
:105010002146FBF7E7F83946BDE8F047FBF7E2B871
:105020004FF07F42B2EB400F28BFB2EB410F03D2EB
:10503000BDE8F047FFF73FB840EA01035B0008BF57
:1050400044F0FF410AD0B2EB400F08BFB2EB410F72
:1050500006D125F0804024F0804105460C4629E722
:10506000B2EB400F12BF5FEA410245F0FF4004F08F
:1050700000413FF41FAF4A0092EA40033FF51AAFE8
:10508000002AACBF4FF09F464FF03E563146FBF72B
:1050900001F9054631462046FBF7FCF80446284650
:1050A000214607E7DB0FC9BFDB0FC93FDB0F4940D4
:1050B000DB0F49C00000C9BF22AAFDB90000C93FEB
:1050C00022AAFD390060ED3EC30ACE37000049C078
:1050D00022AA7DBA0000494022AA7D3A2DAD65BDC5
:1050E0008FB8D53D0FB511BE61C84C3EA8AAAABE67
:1050F00030B583B00446FEF7E9FF05460020CDE950
:105100000000024621466846FBF7B3FB2846FEF73F
:10511000F3FFDDE9000103B030BD08B560B1202028
:105120008DF8000028208DF8010030208DF8020055
:1051300038208DF8030004E0A32204216846FBF721
:1051400001F86A46042140F69E2001F00BF900F0B8
:1051500041FE08BD3EB5044602208DF80000CA207D
:105160008DF80100E3208DF8020009208DF803007E
:105170006A460421682001F0F5F8A3208DF80000AC
:10518000610609D5C0218DF80110C8218DF80210E3
:10519000C2218DF8031005E08DF801008DF80200A2
:1051A0008DF8030014F4C07F09D0C4218DF80410D9
:1051B000CC218DF80510C6218DF8061005E08DF87C
:1051C00004008DF805008DF806008DF808008DF8B4
:1051D00007008DF809006A460A2140F6A72001F071
:1051E000C1F8A0074FF0D80503D020208DF80000AB
:1051F00001E08DF800506A46012140F6B62001F02A
:10520000B1F8A00601D5012000E0002000F08EF8E2
:1052100014F4C07F1ED0E0050AD5B2208DF800003E
:105220008B208DF80100B6208DF802009B2009E04C
:10523000B0208DF8000080208DF80100B4208DF89A
:10524000020090208DF803006A46042140F6A22057
:1052500001F088F8E1074FF40B6022D0F8218DF8B7
:1052600000106A46012101F07DF8FA21072000F0C4
:1052700069FA072000F034FA012000F051FA6420A6
:1052800000F0F4FA4FF4FA7000F000FBC821254852
:1052900000F0EEF9282000F003FA0A2000F010FADE
:1052A00005E08DF800506A46012101F05BF8A00787
:1052B00003D5D9208DF8000001E08DF800506A4632
:1052C000012140F23D7001F04DF8600701D5012049
:1052D00000E0002000F048F8E00601D5012000E0E1
:1052E0000020FFF71AFF104D44F00800688100F01D
:1052F00071FD0020A873600601D50620A87314F480
:10530000C07F02D0A87B801DA87314F0140F02D0B8
:10531000A87B1030A873A00702D0A87B001DA8733B
:1053200000203EBD09E3CA02700300200EB54FF411
:10533000976310B106A107C901E008A207CA8DE86A
:1053400007006A460921184601F00CF80EBD00005E
:10535000B8AAB38DB4980D355D000000B8AAAAAA0A
:10536000B088C3C5C700000008B560B1C0208DF883
:105370000000C2208DF80100C4208DF80200C62074
:105380008DF8030004E08B2204216846FAF7DAFE68
:105390006A46042140F6982000F0E4FF00F01AFD70
:1053A00008BD0000C8234FF48062024940F6F63081
:1053B00000F0F2BB986C00082DE9FF4F89B017464A
:1053C000DDE9165200244D4E884681462C80A246C7
:1053D000B07B694600F08CFC4FF0FF3B18B158469B
:1053E0000DB0BDE8F08F708910F0140F3CD000991B
:1053F00009BA21F0FF039DF803100B433B600199AC
:105400001B1409BA21F0FF029DF807105B430A4301
:105410007A6002999DF80B4009BA21F0FF012143FF
:10542000B960039C091424BA24F0FF0C9DF80F40C6
:1054300012144CEA040CC7F80CC04FEA2C4749433D
:1054400002FB023207FB071111441024A1F1706125
:10545000B1F1007F04D900F0BDFCA5F800A0BEE7C3
:10546000298841F4807129804206694611D50A19BC
:10547000A41D13885BBAA8F8003053885BBAA8F85B
:105480000230928852BAA8F804202A8842F0080212
:105490002A8010F4C07F11D00A19A41D13885BBAAA
:1054A000A9F8003053885BBAA9F80230928852BA42
:1054B000A9F804202A8842F070022A80800716D0BA
:1054C0000C44E07800F0C00500F03F016078C007B0
:1054D00006D0C80801F007013268491C02B19047A4
:1054E0006078000703D5716809B1A8098847FBF700
:1054F00001FF0C990860002072E700007003002093
:1055000030B5044613A285B007CA8DE807004FF0F6
:10551000FF35C82C16D8C820B0FBF4F1491E080A84
:105520008DF80C008DF80D1003AA022140F2162010
:1055300000F018FF30B96A460C2140F6C12000F097
:1055400011FF10B1284605B030BD05488481002008
:10555000F9E70000FEF2ABC4AAF1DFDFBBAFDFDF8B
:10556000700300202DE9FF4104463CA004F0030332
:10557000006802903AA0006803903AA006683AA03A
:10558000056802A8C15C8DF80010C4F3C101425C3B
:105590008DF80120C4F38112805C8DF8020003A80D
:1055A000C35C8DF80430415C8DF80510805C8DF88B
:1055B00006006A46032140F2264000F0D3FE4FF079
:1055C000FF37E0BB01AA032140F22A4000F0CAFEE7
:1055D000A8BBCDE9006560070BD59DF8000040F041
:1055E00001008DF800009DF8040040F001008DF8E6
:1055F0000400A0060BD59DF8010040F001008DF8D5
:1056000001009DF8050040F001008DF80500E0055F
:105610000BD59DF8020040F001008DF802009DF8C6
:10562000060040F001008DF806006A4603214FF4A1
:10563000886000F097FE10B901AA032100E004E0A1
:1056400040F2314000F08EFE18B1384604B0BDE89B
:10565000F081064804810020F8E700004CCD6C0082
:105660000CC92C00365676002646660070030020D2
:105670004FF47A7290FBF2F008B54843010E8DF8B2
:105680000010010C8DF80110010A8DF802108DF840
:1056900003006A4604214FF4AE7000F063FE08BDBB
:1056A0000521B0FBF1F008B5010A8DF800108DF866
:1056B00001006A4602214FF4AD7000F053FE08BDB0
:1056C0000521B0FBF1F008B5010A8DF800108DF846
:1056D00001006A4602214FF4AC7000F043FE08BDA1
:1056E00008B500218DF80010C10702D030218DF8D7
:1056F0000010810705D59DF8001041F00C018DF8D0
:105700000010400705D59DF8000040F003008DF81B
:1057100000006A4601214FF4A47000F023FE08BD8A
:1057200008B560B1042800D90420401E8DF800009F
:105730006A46012140F24F1000F014FE08BD01201E
:10574000F3E700002DE9FC41054640074FF0FF3626
:105750007CD0B1F5C86F79D80846FAF7A8FF3E4962
:10576000FAF7CAFD074601A800F09CF99DF804006D
:10577000022806D004280DD008282ED0102865D184
:1057800034E00E213846FAF7F5FDFAF7A2FF84B2AD
:10579000324907E00D213846FAF7ECFDFAF799FF98
:1057A0002F4984B23846FAF775FDFAF792FF210ABD
:1057B0008DF8001080B28DF80140010A8DF80210BA
:1057C0008DF80300E8076C4620D0224602214FF4F2
:1057D000EA7000F0C7FDC8BB11E00C213846FAF7AB
:1057E000C9FDFAF776FF84B21E49DBE70B21384684
:1057F000FAF7C0FDFAF76DFF84B21B49D2E7A21C8D
:1058000002214FF4927000F0ADFDF8B9A8070DD554
:105810006A4602214FF4EC7000F0A4FDB0B9A21C5E
:1058200002214FF4947000F09DFD78B9680710D5FF
:105830006A4602214FF4EE7000F094FD30B9A21CCC
:1058400002214FF4967000F08DFD10B13046BDE896
:10585000FC810020FBE700000000484300004046B8
:105860000000C045000040450000C0440521B0FBD9
:10587000F1F008B5010A8DF800108DF801006A46B4
:1058800002214FF4EF7000F06DFD08BD0521B0FB63
:10589000F1F008B5010A8DF800108DF801006A4694
:1058A00002214FF4ED7000F05DFD08BD38B50446EF
:1058B0008DF800004FF6FF73012269460248FCF79D
:1058C00003FF204638BD0000280300202DE9F041E9
:1058D0001E46154688460446FDF717F92046FDF793
:1058E000FEF8FDF7C9F84FF0FF3728B94046FDF73D
:1058F000F6F8FDF7C1F820B1FDF716F93846BDE816
:10590000F081FDF702F944F00100FDF7E8F800240A
:105910006F1E0AE0FDF7BFF83055BC4201D10120EF
:1059200000E00020FDF7D0F8641CAC42F2DBFDF78C
:10593000FBF80020E3E72DE9F0411E4615460C4632
:105940000746FDF7E2F83846FDF7C9F8FDF794F889
:105950004FF0FF3768B92046FDF7C1F8FDF78CF826
:1059600038B900240BE0305DFDF7B9F8FDF784F895
:1059700020B1FDF7D9F83846BDE8F081641CAC428F
:10598000F1DBFDF7D1F80020F6E7000008B5FBF7E2
:1059900053FEFEF735F8FDF70FFDFDF785FDFDF72A
:1059A00031FEFDF7A1FDFDF7F9FDFDF75FFEFDF707
:1059B00093FEFDF744F8FDF7C7FEFDF7E9F9FDF7A3
:1059C000A9FE00211948FCF745FC0C211748FCF7FB
:1059D00041FC3C211648FCF727FB3C211548FCF70D
:1059E00023FB012214491548FCF72CFE0021084630
:1059F000FDF764F900240020FDF774FBFDF7E0F9E2
:105A0000FDF7B0FFFDF7BEF9FAF777FE02460B4649
:105A10000BA10E48FEF79EFA002110230B4A084600
:105A20000094FDF701FFFBF76BFAE4E708020020A2
:105A300050020020E0020020A800002028030020DF
:105A400050697463683A2566000000003C0100203C
:105A50002DE9F041124C20F00101002594F82400BA
:105A600010B10020BDE8F081A07A4FF0FF3668B198
:105A70000840277C2074884200D0354641B101207F
:105A800000F09AFC00F0A6F938B127743046E9E737
:105A9000207D00B1012000F08FFC2846E2E70000E5
:105AA000AC0000200D494A7A42B1012A08D0022AEE
:105AB0000FD0032A0FD04FF0FF307047022200E0D2
:105AC00004220270C97C11B11106C90D01700020B9
:105AD00070470822F5E71022F3E70000AC00002031
