:020000040800F2
:100000005008002001010008854200082D3000083A
:10001000814200087F0F0008814B000800000000AB
:10002000000000000000000000000000F94300088C
:10003000CD10000800000000CF430008A5440008D0
:100040001B0100081B0100081B0100081B01000820
:100050001B0100081B0100081B0100081B01000810
:10006000CF1000081B0100081B0100081B0100083D
:100070001B0100081B0100081B0100081B010008F0
:100080001B0100081B0100081B0100081B010008E0
:100090001B0100081B0100081B0100081B010008D0
:1000A0001B0100081B0100081B0100081B010008C0
:1000B0001B0100081B0100081B0100081B010008B0
:1000C0001B0100081B0100081B0100081B010008A0
:1000D0001B0100081B0100081B010008714B0008F0
:1000E0001B0100081B0100081B010008DFF80CD0F1
:1000F00000F0DAFC004800471568000850080020AE
:100100000648804706480047FEE7FEE7FEE7FEE7B1
:10011000FEE7FEE7FEE7FEE7FEE7FEE71345000821
:10012000ED000008202A04DB203A21FA02F0002129
:10013000704721FA02F3D040C2F1200291400843F7
:1001400019467047D2B201E000F8012B491EFBD2DC
:1001500070470022F6E710B513460A4604461946D2
:10016000FFF7F0FF204610BD10B5002200E0521C42
:10017000835C8C5CA34201D1002BF8D1D8B2E1B2F0
:10018000401A10BD30B504460020034600E05B1C59
:10019000934203D2E05CCD5C401BF8D030BD000040
:1001A00070B50F4D00B92868002412E00A4602E03D
:1001B0009E4203D0521C1378002BF9D1DAB22243AD
:1001C00005D02BB124B1002100F8011B04E0044646
:1001D000401C0678002EE9D12860204670BD000042
:1001E00038010020F0B480EA0102D40F4200B2EBE3
:1001F000410F02D20246084611464A0042D0C30DC2
:10020000DDB2C1F3C752AD1A202D35DAC1F31601A4
:1002100041F4000204B15242C5F1200602FA06F18F
:100220002A411044B3EBD05F23D0C4B1012DA0EB21
:10023000C35009DCF0BC4FF0004202EAC352DBB20B
:1002400000F5000000F081BB400000F1807000EB81
:10025000C350A0F1807040EAD170490009E049081C
:1002600041EAC071A0EBC35000F50000400800EB6C
:10027000C350F0BC00F060BB6142012202EB4101BF
:10028000001BF6E7F0BC704781F00041AAE780F060
:100290000040A7E780EA010210B502F000434000E9
:1002A00022D04A001FD0010E01EB1261C0F35600AC
:1002B000C2F3560240F4000042F40002A0FB022008
:1002C00000047F39140400D0401C50EA124001D4CD
:1002D0004000491EC2B20C0604EBD010401C40087E
:1002E000802A02D003E0002010BD20F00100002988
:1002F00000DA0020184310BD30B480EA010202F099
:10030000004530F0004221F0004013D090B1C30D01
:10031000D40DC2F31601C0F31600E41A41F4000133
:1003200040F400027D34914201D3641C00E0490096
:10033000002C02DA30BC002070474FF4000000238C
:10034000914201D3891A034340084FEA4101F7D192
:1003500051B1914202D14FF0004105E002D24FF07D
:10036000010101E06FF0010103EBC450284430BCEF
:1003700000F0E2BA2DE9FE4F804681EA0300C00F8B
:100380000C46009021F0004123F00045B8EB02003C
:10039000A94105D24046214690461C460B460246DE
:1003A00023F00040104347D0270DC7F30A00C3F3E2
:1003B0000A510290401A019040286BDAC3F31300EF
:1003C00040F4801B0098924620B10023D2EB030A30
:1003D00063EB0B0B01985946C0F14002504600F008
:1003E0003CFA06460D4650465946019A00F044FA3A
:1003F00010EB08006141002487EA115284EAE77398
:100400001A4340D0009A62B3019A012A4FEA075278
:1004100015DC001B61EB02014FF0004202EA0752BB
:10042000CDE90042001C41F5801132462B4600F018
:10043000D5FA03B0BDE8F08F40462146F9E7001B2E
:1004400061EB0201001C41F5801300185B4120188C
:10045000A2F5001747EB030140EAD570B6196D41CC
:1004600011E06D084FEA360645EAC0754FEA0752BB
:10047000001B61EB0201001C41F5801149084FEAA5
:1004800030000019514132462B4603B0BDE8F04F11
:1004900000F095BA0098012240000023D0EB020240
:1004A00063EBE073009821464FEAE074B8EB00007C
:1004B00061EB0401E9E783F000435BE781F0004171
:1004C00058E72DE9FE4F81EA030404F0004421F0CF
:1004D000004100944FF0000B23F0004350EA010468
:1004E0005ED052EA03045BD0C3F30A54C1F30A5549
:1004F0002C44A4F2F3340194A0FB0254C1F3130181
:1005000041F48011C3F3130343F4801301FB02444D
:1005100000FB034E840A970A44EA815447EA835752
:10052000A4FB076802958D0A05FB07854FEA932C0B
:1005300004FB0C542705029D4FEA065847EA16377C
:10054000B5EB08056EEB070C870E920E47EA811794
:1005500042EA8312A7FB0201B6EB0B0164EB000435
:100560002B0D43EA0C335E1844EB1C50DA4651461F
:10057000E7FB0201C5F313044FEA0B3343EA1453BC
:100580004FEA0432019C43EA0603A4F10C040294EE
:10059000009CCDE900B400F021FA03B0BDE8F08F73
:1005A00000200146F9E72DE9F04D81EA030404F04B
:1005B000004B21F0004514464FF0000A23F00041A3
:1005C00050EA050220D054EA01021DD0C5F30A57B3
:1005D0000246C5F31303C1F31300C1F30A5640F4F6
:1005E000801543F48013A7EB0608101BD64608F2CB
:1005F000FD3873EB050002D308F1010801E0921801
:100600005B41B8F1000F03DA00200146BDE8F08D30
:1006100000204FF48011064684460EE0171B73EB52
:10062000050705D3121B63EB050306434CEA010CD7
:1006300049084FEA300092185B4150EA0107EDD1BA
:1006400052EA030012D082EA040083EA050108435B
:1006500005D0101BAB4106D20122002306E0002288
:100660004FF0004302E06FF0010253101AEB060056
:100670004CEB085110EB0A0041EB0B01BDE8F04DCB
:1006800000F09DB9C10F80EAE0700844CA079623C4
:10069000002100F05AB996230022114600F055B906
:1006A0000EB540F2334102910021CDE900110A4616
:1006B0000B4600F093F903B000BD00F0004220F0BB
:1006C0000040C10DC0F3160040F400007F2901DA9C
:1006D00000207047962903DCC1F19601C84001E073
:1006E00096398840002AF4D04042704720F00040FC
:1006F000C10DC0F3160040F400007F2901DA00208C
:100700007047962903DCC1F19601C84070479639BD
:100710008840704700F0004230F000400AD0C10D20
:1007200001F56071C0F3160042EA0151C2084007AA
:1007300011437047002001467047000030B5041E89
:1007400071F1000404DB4FF00044404264EB01010E
:10075000141E73F1000405DB1C464FF000435242A7
:1007600063EB0403994208BF904230BD01F000439F
:1007700030B421F0004150EA010206D00A0DA2F582
:100780006072C1F31301002A02DC30BC0020704704
:10079000440F44EAC104C100E01830BC00EBC25071
:1007A00000F0CAB8002801DBC0F10040002901DBDD
:1007B000C1F1004181427047002801DBC0F10040D7
:1007C000002901DBC1F100418842704730B50B467A
:1007D000014600202022012409E021FA02F59D4271
:1007E00005D303FA02F5491B04FA02F52844151E45
:1007F000A2F10102F1DC30BD2DE9F05F05460020D9
:1008000092469B4688460646814640241BE0284681
:10081000414647462246FFF785FC53465A46C01AD2
:10082000914110D311461846224600F016F82D1AB1
:1008300067EB01084F4622460120002100F00DF829
:1008400017EB00094E41201EA4F10104DFDC4846ED
:1008500031462A464346BDE8F09F202A04DB203A71
:1008600000FA02F1002070479140C2F1200320FA03
:1008700003F3194390407047202A06DBCB17203A38
:1008800041FA02F043EAE07306E041FA02F3D04095
:10089000C2F1200291400843194670470FB400236B
:1008A00000B589B00CA900910B996FF00042CB60A4
:1008B0001E4B06931E4B07930423CDE901321D4ABC
:1008C000089202466B46002000F09AF909B05DF8E4
:1008D00014FB70B586B006464FF0FF300091CDE9AD
:1008E0000101002015460C4604903246694604A8D2
:1008F000FFF7D4FF02460498211825B108B1084635
:1009000000E020462860049800280DD0002A02DD6F
:100910000098884208D0081B0094CDE901043246B3
:10092000694604A8FFF7BAFF06B070BD390E00088B
:10093000570E0008CD0A00080029A8BF7047401CC8
:10094000490008BF20F00100704710B4B0FA80FCE5
:1009500000FA0CF050EA010404BF10BC704749B122
:10096000CCF1200421FA04F411FA0CF118BF012192
:1009700021430843A3EB0C01CB1D4FEA00614FEA72
:10098000102042BF002010BC704700EBC350104441
:100990000029A4BF10BC7047401C490008BF20F0CC
:1009A000010010BC7047420005D0C0F3C75252424C
:1009B000914201DC0020704700EBC150704710B538
:1009C000141E73F1000408DA401C41F10001921872
:1009D0005B411A4301D120F0010010BD2DE9F04D1B
:1009E00092469B4611B1B1FA81F202E0B0FA80F270
:1009F00020329046FFF731FF04460F4640EA0A00D6
:100A000041EA0B0153465A46084313D0114653EAB4
:100A1000010019D0C8F140025046FFF783FB05469C
:100A20000E46504659464246FFF717FF084305D089
:100A3000012004E020463946BDE8F08D0020054342
:100A400046EAE0762C4337430A986305E40AA0EBB4
:100A500008000022FD0A44EA47540A3002D500206B
:100A60000146E9E7010510196941DDE9084500196A
:100A70006941BDE8F04DA2E7C1F30A52C1F3130189
:100A800040F2FF3341F480119A4202DA002001461D
:100A9000704740F233439A42A2F2334202DC5242A0
:100AA000FFF740BBFFF7D9BE064C074D06E0E068F4
:100AB00040F0010394E8070098471034AC42F6D3A5
:100AC000FFF718FBD0820008F0820008C0B24FF494
:100AD000F05100F017BA00002DE9FF4F087883B0FD
:100AE0009946FF2805D0491C2D2804D00024002059
:100AF00008E000200BE00124F9E700EB800003EBA5
:100B00004000491C0B78FF2BF7D104B14042002371
:100B10000293147819461D462D2C01D02B2C04D19C
:100B2000521C2D2C13D000240294AA461478FF2CBA
:100B30000FD00A25A3FB057801FB05814FF0000CBF
:100B400003FB0C11521CE3194AEB0101EEE70124EF
:100B5000EAE7814453EA010002D019F5C87F06DABA
:100B600003980021C0E9001107B0BDE8F08F00250F
:100B7000AE4E2F46DFF8B882184600F0D7F9CDE91F
:100B80000001B9F1000002DAC9F1000400E00446F6
:100B90000023A74A1AEB030B42EB045A12E0E007CA
:100BA00007D02A46334638464146FFF78AFC0746B7
:100BB00088462A46334610461946FFF782FC05460A
:100BC0000E466410002CEAD1DDE90001B9F1000FF6
:100BD0005A46534606DAFFF7E6FC3A464346FFF725
:100BE000E2FC05E0FFF76DFC3A464346FFF769FC7F
:100BF000029A0AB181F00041039AC2E90001B3E709
:100C00002DE9FF4F1F468DB0D7E901464FF0FF3861
:100C10002E2045464FF000090B90B9696D1C0E98C7
:100C20008847396A824688470028F6D1BAF1FF3FE3
:100C30000AD024F4D064002E11DDBAF12B0F08D0B5
:100C4000BAF12D0F0BD102E0404611B08DE744F40C
:100C50008064B9696D1C0E9888478246761E694685
:100C6000600501D52D2000E02B208DF8000001F15A
:100C7000010B0DF1200809E0B9696D1C0E98884739
:100C800082460F9844F40074761E0560002E02DD43
:100C9000BAF1300FF0D00B998A453ED144F0800470
:100CA00006E00F99681CA9F1010944F4007408607A
:100CB000B9696D1C761E0E98884782463028F0D0A0
:100CC0002BE00B998A4505D1200603D444F080041B
:100CD000761E18E0504604F0F7F808B30DF1130142
:100CE000761E44F400748B4508D2AAF130000BF84C
:100CF000010B200607D5A9F1010003E0200602D46C
:100D000009F101008146A00502D50F99681C086011
:100D1000B9696D1C0E9888478246002ED1DC53E0DD
:100D2000002E51DDBAF1650F02D0BAF1450F4BD15B
:100D3000A00549D5B9696D1C24F44074761E0E983F
:100D400088478246002E0CDD2B2804D0BAF12D0FE7
:100D500007D144F48074B9696D1C0E9888478246A7
:100D6000761EE00501D52D2100E02B2108F8011B9E
:100D7000CDF82C8021E00DF12901761E44F4007499
:100D800088450CD2AAF1300010F0FF0088F800006E
:100D900002D10B99884509D908F1010806E0E00560
:100DA00001D5244801E042F20F708146B9696D1CFB
:100DB0000E98884782460F980560002E04DD504645
:100DC00004F082F80028D6D1F9690E988847FF20F0
:100DD0008BF8000088F800000020069007904B4632
:100DE0006A4608A906A8FFF777FEA00502D46FF0AF
:100DF00001002AE714F0240F0AD0E00714D1DDE93E
:100E000006123868031D3B600068C0E900120BE061
:100E1000DDE90601FFF7AAFC0146E00704D13868C6
:100E2000021D3A600068016028460EE70000144089
:100E30000000F03FF1D8FFFF426842B1016811F8AD
:100E4000013B23B1521EC0E9001218467047012130
:100E5000C160881E704742685AB1C368016843B9CF
:100E600083688B4205D0491E521CC0E90012002045
:100E700070474FF0FF307047F0B4002802DCF0BC40
:100E800000207047C0F3C751C0F3160040F40000C3
:100E9000CA0701D14000491E3F2202EB6105002232
:100EA00011464FF4000626FA01F31344D418844285
:100EB00001D8001B1A464000491C1729F3DD5100D8
:100EC000814202D24FF0FF3100E0002102EBC55019
:100ED000F0BCFFF731BD70B521F0004303430CD0E7
:100EE000C1F30A550024D5EB040564EB0403D617BF
:100EF000AD1AB34102DB0020014670BD201841EB62
:100F0000025170BD7F2801D9002208E0064A02EB99
:100F10005002C007127800D1120902F00F0201201E
:100F20009040084070470000908200080EB540F2E3
:100F3000334202920022CDE900221346FFF74EFD14
:100F400003B000BD30B58C1810F8012B12F00F0360
:100F500001D110F8013B120906D110F8012B03E072
:100F600010F8015B01F8015B5B1EF9D101E001F8AB
:100F7000013B521EFBD1A142E6D3002030BD00BF91
:100F8000FEE700002DE9F04F87B000F03DFB34494B
:100F90000968884202D207B0BDE8F08F3048006887
:100FA000401D2F49086002F007FC4FF07C502D498E
:100FB000C86002F0DBFB2B49086102F0D1FB294934
:100FC000486208692849FFF7F7FB05D325490869F6
:100FD0002649FFF7E7FB02D2002025490870214986
:100FE000486AFFF797FB04460D461E490869FFF75C
:100FF00091FB06460F461B498868FFF78BFB80462E
:10100000894618490868FFF785FB824652460B4619
:1010100018A0CDE90089CDE90267CDE9044503F0C8
:10102000B1FD1348007878B10E4803F083F90D49FB
:10103000886AFFF742FB404216490860084601688B
:10104000006802F013FB03E00021084602F00EFBEB
:101050001048016810A003F095FD00BF9BE7000059
:1010600020010020EC00002000004842000048C29F
:10107000E80000204B703D25662C4B643D25660A38
:1010800061637475616C3D25662C6469663D2566F7
:101090000D0A0000E400002041766550574D3A25C6
:1010A000640A00000748006840F080700549086045
:1010B0000020054948600846006840F001000860CB
:1010C00070470000FCED00E0001000E0704710B534
:1010D000042000F0EDF810BD72B600BFFEE7014637
:1010E000002291F82100022808D00420886300BF64
:1010F000002081F8200000BF0120704708680068C8
:1011000020F00E000B6818600868006820F00100ED
:101110000B68186091F8403001209840CB6B586004
:10112000012081F8210000BF002081F8200000BFCD
:101130001046E2E770B50446002594F82100022825
:1011400003D00420A063012548E02068006820F057
:101150000E00216808602068006820F00100216806
:1011600008601F492068884201D1012026E01C49FF
:1011700014312068884201D110201FE0184928311D
:101180002068884201D1801518E015493C3120685B
:10119000884201D1801411E0114950312068884201
:1011A00002D14FF4803009E00D4964312068884253
:1011B00002D14FF4801001E04FF0807008490839E7
:1011C0004860012084F8210000BF002084F820003E
:1011D00000BF606B10B12046616B8847284670BD28
:1011E0000800024070B5044600F00EFA0646254697
:1011F000681C10B104480078054400BF00F004FAF0
:10120000801BA842FAD370BD3001002070B504469F
:1012100000F078FD0749B0FBF1F000FB04F54FF05A
:10122000E020866900BF4FF0E0208069301AA842B4
:10123000F9D370BD40420F002DE9F04782460421EA
:10124000144800F0D3F9012807D100201249096899
:101250004862114801F0C8F81AE00F4801F0FAF8A6
:101260000D480068406A0D49088008460088FFF76D
:1012700017FA80460A4A0B4BFFF723F9064600226D
:10128000094BFFF790F90446FFF770FA0749086029
:10129000BDE8F087000801407803002058000020D6
:1012A0009CC420B07268913F000059405C0000204F
:1012B00010B5044604480068204020B1024804608C
:1012C0002046FFF7B9FF10BD140401402DE9F8478F
:1012D0000346002294466EE14FF0010808FA02F43A
:1012E000D1F8008008EA0400A0427DD1DFF8DCA23A
:1012F000D1F80480A8EB0A09D0453AD014DCB8F143
:10130000030F50D009DCB8F1000F31D0B8F1010F54
:101310001CD0B8F1020F49D120E0B8F1110F18D05C
:10132000B8F1120F42D11EE0B9F5881F25D006DCB6
:10133000B9F5803F20D0B9F5801F37D11AE0B9F553
:10134000001F18D0B9F5041F30D117E0D1F80CC038
:101350002DE0D1F80C8008F1040C28E0D1F80C80C5
:1013600008F1080C23E0D1F80C8008F10C0C1EE009
:1013700000BF00BF00BF00BF00BF00BFD1F80880A2
:10138000B8F1000F02D14FF0040C0BE0D1F8088047
:10139000B8F1010F03D14FF0080C1C6102E04FF0CF
:1013A000080C5C6103E04FF0000C00E000BF00BFE0
:1013B000FF2801D8984601E003F104084646FF28BB
:1013C00002D84FEA820803E0A2F108084FEA880831
:1013D0004746D6F800804FF00F0909FA07F928EAC6
:1013E00009080CFA07F900E088E048EA0908C6F89D
:1013F0000080D1F8048008F08058B8F1805F7DD17A
:1014000000BFDFF8CC81D8F8188048F00108DFF879
:10141000C091C9F81880C846D8F8188008F00108AB
:10142000CDF8008000BF00BF4FEAB9384FEA9209FB
:1014300058F829504FEA82784FEA18794FF00F0890
:1014400008FA09F825EA0805DFF88881434502D142
:101450004FF0000816E0DFF88081434502D14FF0DD
:1014600001080FE0DFF87481434502D14FF0020814
:1014700008E0DFF86C81434502D14FF0030801E03A
:101480004FF004084FEA82794FEA197908FA09F80F
:1014900048EA0505DFF84C814FEA920948F82950DF
:1014A000D1F8048008F48018B8F5801F0AD1DFF85D
:1014B0003881D8F8008048EA0008DFF82C91C9F894
:1014C000008009E0DFF82081D8F8008028EA0008D1
:1014D000DFF81491C9F80080D1F8048008F40018EE
:1014E000B8F5001F10D1DFF8008108F10408D8F822
:1014F000008048EA0008DFF8F09000E05AE009F1C7
:101500000409C9F800800DE0DFF8DC8008F1040868
:10151000D8F8008028EA0008DFF8CC9009F1040927
:10152000C9F80080D1F8048008F40038B8F5003F0D
:101530000ED1DFF8B480A8F10408D8F8008048EA9A
:101540000008DFF8A490A9F10409C9F800800DE0B3
:10155000DFF89480A8F10408D8F8008028EA000891
:10156000DFF88490A9F10409C9F80080D1F804805B
:1015700008F48038B8F5803F0ED1DFF86C80A8F110
:101580000808D8F8008048EA0008DFF85C90A9F164
:101590000809C9F800800DE0DFF84C80A8F10808C0
:1015A000D8F8008028EA0008DFF83C90A9F1080983
:1015B000C9F80080521CD1F8008028FA02F8B8F16E
:1015C000000F7FF489AEBDE8F8870000000011101D
:1015D0000010024000080140000C014000100140D2
:1015E00000140140080001400804014002469368CD
:1015F0000B400BB1012000E0002070470AB10161EF
:1016000001E00B0403617047014800687047000067
:101610002801002070B504460CB9012070BD94F873
:101620003D0028B9002084F83C00204600F08CF9E9
:10163000242084F83D002068006820F00100216823
:1016400008602068006840F4004021680860206855
:10165000006820F400402168086000F059FB05464E
:101660005C496068884206D85B48854201D2012007
:1016700007E0002005E05948854201D2012000E042
:101680000020012800D1C9E75548B5FBF0F62068D5
:10169000406820F03F003043216848604D49606851
:1016A000884201D8701C07E04FF4967070434FF4E5
:1016B0007A71B0FBF1F0401C2168096A21F03F010A
:1016C00008432168086243496068884214D8681E4C
:1016D00061684900B0FBF1F0401CC0F30B00042826
:1016E00001D204203DE0681E61684900B0FBF1F0C2
:1016F000401CC0F30B0034E0A06838B9681E616874
:1017000001EB4101B0FBF1F0401C0AE0681E61688A
:1017100001EBC10202EB0111B0FBF1F0401C40F4FF
:101720008040C0F30B0008B901201AE0A06848B956
:10173000681E616801EB4101B0FBF1F0401CC0F391
:101740000B000CE0681E616801EBC10202EB0111A5
:10175000B0FBF1F0401CC0F30B0040F4804040F4BB
:1017600000402168C9694CF6FF7291430843216823
:10177000C861D4E9070108432168096821F0C00164
:10178000084321680860D4E9031008432168896888
:1017900048F2FF329143084321688860D4E905018B
:1017A00008432168C96821F0FF0108432168C86027
:1017B0002068006840F00100216808600020206473
:1017C000202084F83D000020206384F83E0000BF04
:1017D00024E70000A086010080841E0000093D006F
:1017E00040420F002DE9FC5F04460F4690469946A3
:1017F000DDE90CAB0E9EFFF707FF054694F83D00B0
:1018000020287DD1192301224D492046009501F061
:10181000D2FC10B10220BDE8FC9F00BF94F83C0050
:10182000012801D10220F6E7012084F83C0000BF26
:101830002068006800F0010028B92068006840F0C6
:101840000100216808602068006820F400602168B9
:101850000860212084F83D00402084F83E000020EC
:101860002064C4F824A0A4F82AB0608D20853548EF
:10187000E0624B46424639462046CDE9006501F01C
:10188000F7FB08B10120C6E731E02A463146204681
:1018900001F06DFD50B1206C042805D1206800686E
:1018A00040F40070216808600120B4E7606A0078A5
:1018B00021680861606A401C6062208D401E20859E
:1018C000608D401E608520684069C0F3800070B163
:1018D000208D60B1606A007821680861606A401CF0
:1018E0006062208D401E2085608D401E6085208DA9
:1018F0000028CAD12A463146204601F029FC00E0E2
:101900001CE050B1206C042805D12068006840F428
:1019100000702168086001207DE72068006840F4BD
:10192000007021680860202084F83D00002084F8C1
:101930003E0000BF84F83C0000BF6CE702206AE76D
:10194000020010000000FFFF10B586B00446002022
:1019500002900390049005901A49206888422FD184
:1019600000BF1948806940F008001749886108469F
:10197000806900F00800019000BF00BF4FF4407084
:101980000290122003900320059002A90F48FFF750
:101990009DFC00BF0E49486840F0E06040F0020046
:1019A000486000BF00BF0848C06940F40010064905
:1019B000C8610846C06900F40010019000BF00BF74
:1019C00006B010BD0054004000100240000C014061
:1019D00000000140034800680349097808440149B0
:1019E00008607047280100203001002010B5084829
:1019F000006840F0100006490860032000F0A8F8D5
:101A0000002000F007F800F02BF8002010BD0000C7
:101A10000020024070B504460E4800784FF47A71F9
:101A2000B1FBF0F00C490968B1FBF0F5284600F075
:101A3000F9FB08B1012070BD102C07D2002221460D
:101A4000501E00F047F80548046001E00120F2E76D
:101A50000020F0E730010020340100202C0100209C
:101A600008B500BF1148806940F001000F49886146
:101A70000846806900F00100009000BF00BF00BF71
:101A80000846C06940F08050C8610846C06900F04F
:101A90008050009000BF00BF00BF0549486820F09B
:101AA000E06040F00070486000BF08BD00100240D8
:101AB0000000014001460846002809DB00F01F0332
:101AC00001229A4043099B0003F1E023C3F800215F
:101AD00000BF70472DE9F05F80460D46164600278F
:101AE00003F088F8074639462A46334601F00700D6
:101AF000C0F1070ABAF1040F02D94FF0040A01E05D
:101B0000C0F1070AD14600F1040ABAF1070F02D268
:101B10004FF0000A01E0A0F1030AD4464FF0010A99
:101B20000AFA09FAAAF1010A0AEA020A0AFA0CFAFE
:101B30004FF0010B0BFA0CFBABF1010B0BEA030BA3
:101B40004AEA0B042146404603F05CF8BDE8F09FEA
:101B500000BF00F00702064B19684FF6FF0319405B
:101B6000044B0B4343EA0221014B196000BF70474D
:101B70000CED00E00000FA0570B504460D460CB906
:101B8000012070BD5A48006800F00700A8420ED23C
:101B90005748006820F00700284355490860084668
:101BA000006800F00700A84201D00120E9E7207892
:101BB00000F0020002281DD1207800F00400042863
:101BC00005D14C48406840F4E0604A4948602078BC
:101BD00000F00800082805D14648406840F46050ED
:101BE000444948604348406820F0F000A168084339
:101BF00040494860207800F0010078B3606801280F
:101C000006D13C48006800F4003090B90120B8E7E4
:101C10006068022806D13748006800F0007040B9BB
:101C20000120AEE73348006800F0020008B9012047
:101C3000A7E73048406820F00300616808432D4959
:101C40004860FFF7E1FC064609E0FFF7DDFC801B7A
:101C500041F28831884202D9032092E707E0254803
:101C6000406800F00C006168B0EB810FEDD12048B6
:101C7000006800F00700A8420ED91D48006820F057
:101C8000070028431A4908600846006800F007006A
:101C9000A84201D0012074E7207800F00400042855
:101CA00007D11448406820F4E060E1680843114916
:101CB0004860207800F00800082808D10D484068E6
:101CC00020F46050216940EAC1000A49486000F0F0
:101CD0003FF808494968C1F30311074A515CC840FD
:101CE0000649086006480068FFF794FE002048E7B0
:101CF0000020024000100240D8810008340100207A
:101D00002C010020014800687047000034010020C9
:101D100000B5FFF7F7FF04494968C1F30221034A00
:101D2000515CC84000BD000000100240E88100087E
:101D300000B5FFF7E7FF04494968C1F3C221034A30
:101D4000515CC84000BD000000100240E88100085E
:101D500070B500210022002400230020134D696883
:101D600001F00C05F5B1042D02D0082D19D101E0C8
:101D70000F4819E00F4DC1F38346AB5D01F4803588
:101D800055B10A4D6D68C5F340450B4E725D084D67
:101D90005D43B5FBF2F402E0084D03FB05F4204679
:101DA00002E000BF024800BF00BF70BD001002404B
:101DB00000127A00C6810008D681000800093D00A3
:101DC000F8B504460CB90120F8BD207800F00100F8
:101DD000002878D0F848406800F00C0004280CD0A7
:101DE000F548406800F00C00082811D1F24840681E
:101DF00000F48030B0F5803F0AD1EF48006800F46D
:101E0000003000285FD0606800285CD10120DBE74B
:101E100000BF6068B0F5803F06D1E748006840F435
:101E20008030E549086028E0606858B9E2480068F9
:101E300020F48030E04908600846006820F48020E3
:101E400008601AE06068B0F5A02F0BD1DA4800688E
:101E500040F48020D84908600846006840F480308B
:101E600008600AE0D448006820F48030D249086055
:101E70000846006820F48020086000BF606888B1D0
:101E8000FFF7C2FB054606E0FFF7BEFB401B6428D8
:101E900001D9032098E7C848006800F40030002802
:101EA000F2D010E0FFF7B0FB054606E0FFF7ACFB11
:101EB000401B642801D9032086E7BF48006800F46E
:101EC00000300028F2D1207800F00200022857D11B
:101ED000B948406800F00C0050B1B748406800F0C5
:101EE0000C00082818D1B448406800F4803098B934
:101EF000B148006800F0020020B12069012801D03B
:101F0000012061E7AC48006820F0F800616940EA10
:101F1000C100A949086033E02069E8B10120A74960
:101F20000860FFF771FB054606E0FFF76DFB401BFD
:101F3000022801D9032047E79F48006800F002000B
:101F40000028F2D09C48006820F0F800616940EA5F
:101F5000C1009949086013E0002098490860FFF724
:101F600053FB054606E0FFF74FFB401B022801D953
:101F7000032029E79048006800F002000028F2D111
:101F8000207800F0080008282DD1A069B8B1012000
:101F90008B490860FFF738FB054606E0FFF734FB86
:101FA000401B022801D903200EE78348406A00F055
:101FB00002000028F2D0012002F00AFA13E000200B
:101FC0007F490860FFF720FB054606E0FFF71CFB92
:101FD000401B022801D90320F6E67748406A00F04A
:101FE00002000028F2D1207800F00400042873D108
:101FF00000277148C06900F0805070B900BF6E487A
:10200000C06940F080506C49C8610846C06900F062
:102010008050009000BF00BF01276A48006800F4AC
:102020008070B0B96748006840F480706549086006
:10203000FFF7EAFA054606E0FFF7E6FA401B6428D8
:1020400001D90320C0E65F48006800F480700028D2
:10205000F2D000BFE068012806D15748006A40F07E
:1020600001005549086227E0E06858B95248006A03
:1020700020F00100504908620846006A20F0040080
:10208000086219E0E06805280BD14B48006A40F06F
:102090000400494908620846006A40F001000862ED
:1020A0000AE04548006A20F00100434908620846FA
:1020B000006A20F00400086200BFE068A0B1FFF7EA
:1020C000A3FA054609E0FFF79FFA401B41F2883169
:1020D000884202D9032077E622E03748006A00F000
:1020E00002000028EFD012E0FFF78EFA054608E064
:1020F000FFF78AFA401B41F28831884201D9032058
:1021000062E62D48006A00F002000028F0D1012F9D
:1021100005D12948C06920F080502749C86100BF17
:10212000E069C8B32448406800F00C00082860D07B
:10213000E069022848D1002020490866FFF764FAC8
:10214000054606E0FFF760FA401B022801D903208C
:102150003AE61948006800F000700028F2D1206AC1
:10216000B0F5803F07D11448406820F40030A168E2
:10217000084311494860D4E9080108430E494968F9
:1021800021F4741108430C49486001200B4908668A
:10219000FFF73AFA054607E03DE0FFF735FA401B46
:1021A000022801D903200FE60348006800F0007000
:1021B0000028F2D02FE00000001002400000424250
:1021C0008004424200700040002014490866FFF776
:1021D0001BFA054606E0FFF717FA401B022801D953
:1021E0000320F1E50E48006800F000700028F2D1ED
:1021F00011E0E069012800D1E6E50948466806F4E7
:102200008031206A814204D106F47011606A8142F3
:1022100001D00120D8E50020D6E5000000004242B0
:102220000010024070B504462546681EB0F1807F5C
:1022300001D301200FE0681E4FF0E02148610F211B
:102240004FF0FF3002F0DEFC00204FF0E02188610B
:1022500007200861002070BD10B50346002200BFB2
:1022600093F83C00012801D1022010BD012083F821
:102270003C0000BF22F0FF00CC6840EA040222F4D8
:1022800040708C6840EA040222F480604C6840EAA6
:10229000040222F400600C6840EA040222F4805038
:1022A0000C6940EA040222F400504C6940EA04023E
:1022B00022F48040CC6940EA04021868426400BFFE
:1022C000002083F83C0000BF00BFCEE730B50246D7
:1022D0000B4600BF92F83C00012801D1022030BD1E
:1022E000012082F83C0000BF022082F83D00106807
:1022F00044681068816824F070041868044310680A
:102300004460104D1068A8420BD01068B0F1804FA7
:1023100007D00D4D1068A84203D00C4D1068A8429C
:1023200005D121F0800158680143106881600120C7
:1023300082F83D0000BF002082F83C0000BF00BFD3
:10234000CDE70000002C01400004004000080040E0
:1023500010B504460CB9012010BD94F83D0028B911
:10236000002084F83C00204600F026F8022084F883
:102370003D00211D206802F0CDF8012084F84600C0
:1023800000BF84F83E0001213F2001554020015547
:102390004120015500BF00BF012084F842004320C6
:1023A0000155442001554520015500BF012084F806
:1023B0003D000020D0E7000008B5094A01689142BD
:1023C0000DD100BF0749C96941F00201054AD16139
:1023D0001146C96901F00201009100BF00BF08BDAC
:1023E0000004004000100240014691F83D00012821
:1023F00001D001207047022081F83D00124B08688F
:1024000098420BD00868B0F1804F07D00F4B086896
:10241000984203D00E4B086898420CD10868806837
:1024200000F00702062A0CD00868006840F001009E
:102430000B68186005E00868006840F001000B6850
:1024400018600020D6E70000002C01400004004086
:1024500000080040014600BF0868006A41F21112FE
:10246000104050B90868006A9210104028B90868F6
:10247000006820F001000A68106000BF012081F8A8
:102480003D00002070472DE9F04104460D4600272D
:1024900000BF94F83C00012802D10220BDE8F08181
:1024A000012084F83C0000BF022084F83D00206831
:1024B000866826F0770626F47F46206886602868BE
:1024C000502833D00CDC202850D004DC00284BD01E
:1024D000102851D149E0302849D040284CD139E06A
:1024E00060282DD0702807D0B0F5805F03D0B0F5FC
:1024F000005F41D10DE041E0D5E902136A68206830
:1025000002F05BF82068866846F0770620688660EF
:1025100034E0D5E902136A68206802F04EF82068BA
:10252000806840F480402168886027E0EA68696834
:10253000206802F013F95021206802F049F81DE0EC
:10254000EA686968206802F01CF96021206802F0DE
:102550003FF813E0EA686968206802F0FFF840215C
:10256000206802F035F809E000BF00BF00BF29680D
:10257000206802F02DF801E0012700BF00BF012014
:1025800084F83D0000BF002084F83C0000BF3846BE
:1025900084E72DE9F04104460D4614B90120BDE859
:1025A000F08194F83D0028B9002084F83C002046D2
:1025B00000F052F8022084F83D002068806844F260
:1025C0000701884321688860211D206801F0A2FF6F
:1025D0002068D0F80880206886692068076A286823
:1025E00040EA080840F203308643A969A86840EA37
:1025F0000120064340F60C4086434FF2F00086432C
:10260000E969E86840EA0120064328690001296A6F
:1026100040EA0130064327F022076969686840EA0A
:10262000011007432068C0F8088020688661206890
:102630000762012084F8460084F83E0001213F2013
:102640000155012084F8420043200155012084F8FF
:102650003D000020A3E7000010B586B0044600202E
:1026600002900390049005902068B0F1804F24D12F
:1026700000BF2748C06940F001002549C8610846ED
:10268000C06900F00100019000BF00BF00BF084614
:10269000806940F0040088610846806900F0040009
:1026A000019000BF00BF032002900020039004901F
:1026B00002A91848FEF70AFE27E017492068884259
:1026C00023D100BF1248C06940F004001049C8611E
:1026D0000846C06900F00400019000BF00BF00BFC1
:1026E0000846806940F0080088610846806900F06B
:1026F0000800019000BF00BFC0200290002003909E
:10270000049002A90548FEF7E1FD06B010BD0000E7
:10271000001002400008014000080040000C014089
:102720002DE9F04304460D4694F83E603F20075DD6
:1027300094F84280432010F804906DB9012E02D124
:10274000B8F1010F02D00120BDE8F083022084F827
:102750003E0084F8420025E0042D0CD1012F02D167
:10276000B9F1010F01D00120EEE702213F20015510
:102770004320015516E0012E07D1012F05D1B8F1F4
:10278000010F02D1B9F1010F01D00120DCE70220D5
:1027900084F83E0002213F200155022084F84200C7
:1027A0004320015515B1042D0CD105E00122002173
:1027B000206801F0F1FE10E001220421206801F000
:1027C000EBFE0AE001220021206801F0E5FE012273
:1027D0000421206801F0E0FE00BF00BF206800680F
:1027E00040F00100216808600020ADE710B586B018
:1027F0000446002002900390049005900E49206842
:10280000884217D100BF0D48806940F004000B4991
:1028100088610846806900F00400019000BF00BF95
:102820004FF41060029002200390059002A9044822
:10283000FEF74CFD06B010BD002C01400010024018
:10284000000801402DE9F04104460D4616460027D8
:1028500000BF94F83C00012802D10220BDE8F081BD
:10286000012084F83C0000BF36B1042E1BD0082E96
:1028700031D00C2E5ED145E02946206801F0B2FE31
:102880002068806940F008002168886120688069BC
:1028900020F0040021688861206880692969084364
:1028A0002168886148E02946206801F0CBFE206855
:1028B000806940F40060216888612068806920F4A4
:1028C00080602168886120688069296940EA012068
:1028D0002168886130E02946206801F0E7FE206821
:1028E000C06940F008002168C8612068C06920F014
:1028F00004002168C8612068C0692969084321680B
:10290000C86119E02946206801F004FF2068C06909
:1029100040F400602168C8612068C06920F48060CC
:102920002168C8612068C069296940EA01202168DE
:10293000C86101E0012700BF00BF00BF002084F88C
:102940003C0000BF384689E710B504460CB90120A9
:1029500010BD94F83D0028B9002084F83C002046C2
:1029600000F026F8022084F83D00211D206801F0C7
:10297000D1FD012084F8460000BF84F83E0001210B
:102980003F200155402001554120015500BF00BFA7
:10299000012084F842004320015544200155452080
:1029A000015500BF012084F83D000020D0E7000061
:1029B00008B5094A016891420DD100BF07498969EC
:1029C00041F40061054A91611146896901F4006191
:1029D000009100BF00BF08BD002C01400010024064
:1029E00070B504460D4615B994F83E000BE0042D71
:1029F00002D13F20005D06E0082D02D14020005D9D
:102A000001E04120005D012801D0012070BD1DB909
:102A1000022084F83E000EE0042D03D102213F2065
:102A2000015508E0082D03D102214020015502E0A4
:102A300002214120015501222946206801F0ACFD08
:102A400019492068884201D1012000E0002028B106
:102A50002068406C40F400402168486412492068B6
:102A600088420BD02068B0F1804F07D00F49206812
:102A7000884203D00E49206888420CD120688068C3
:102A800000F00706062E0CD02068006840F0010018
:102A90002168086005E02068006840F001002168B6
:102AA00008600020B2E70000002C01400004004054
:102AB00000080040704770472DE9F84F0446206831
:102AC00005682068C668206847694FF00009CA4653
:102AD00005F00F09B9F1000F0AD105F0200038B157
:102AE00006F0200020B1204601F0AFFEBDE8F88FCF
:102AF000B9F1000F7BD007F0010018B906F490700F
:102B0000002874D005F0010030B106F4807018B1CF
:102B1000606C40F00100606405F0040030B107F023
:102B2000010018B1606C40F00200606405F0020022
:102B300030B107F0010018B1606C40F0040060642F
:102B400005F0080048B106F0200010B907F00100B8
:102B500018B1606C40F008006064606C002845D0DB
:102B600005F0200028B106F0200010B1204601F049
:102B70006CFE20684069C0F3801A606C00F00800A9
:102B800010B9BAF1000F2CD0204601F018FE2068D1
:102B9000406900F0400000B300BF00BF216814315D
:102BA00051E8001F21F040002168143141E8000283
:102BB000002AF3D100BFE06B50B17748E16B486366
:102BC000E06BFEF7B7FA88B1E06B416B88470DE028
:102BD0002046FFF770FF09E009E02046FFF76BFF92
:102BE00004E02046FFF767FF002060647EE7206B6B
:102BF000012877D105F01000002873D006F01000EE
:102C00000028FAD000BF00200090206800680090E3
:102C100020684068009000BF00BF2068406900F055
:102C2000400000285FD0E06B006840681FFA80F821
:102C3000B8F1000F55D0A08D404552DDA4F82E808C
:102C4000E06B8069202843D000BF00BF21680C31B1
:102C500051E8001F21F4807021680C3141E8000226
:102C6000002AF3D100BF00BF00BF2168143151E832
:102C7000001F21F001002168143141E80002002A00
:102C8000F3D100BF00BF00BF2168143151E8001F1D
:102C900021F040002168143141E80002002AF3D1FC
:102CA00000BF202084F842000020206300BF00BF46
:102CB00021680C3151E8001F21F0100021680C310F
:102CC00041E80002002AF3D100BFE06BFEF707FAEB
:102CD00002206063A08DE28D801A81B22046FFF74A
:102CE000E9FE03E742E0A08DE18D401A1FFA80F86B
:102CF000E08DD0B3B8F1000F37D000BF00BF21681E
:102D00000C3151E8001F21F4907021680C3141E82A
:102D10000002002AF3D100BF00BF00BF21681431B8
:102D200051E8001F21F001002168143141E8000240
:102D3000002AF3D100BF202084F842000020206345
:102D400000BF00BF21680C3151E8001F21F01000C6
:102D500021680C3141E80002002AF3D100BF0220B3
:102D6000606341462046FFF7A5FEBFE605F0800000
:102D700030B106F0800018B1204601F083FEB5E6C0
:102D800005F0400030B106F0400018B1204601F0D7
:102D90004CFDABE600BFA9E6AB47000810B5044602
:102DA0000CB9012010BDA06900B100E000BF94F88B
:102DB000410028B9002084F84000204600F02AF89D
:102DC000242084F841002068C06820F40050216865
:102DD000C860204601F0B8FD2068006920F49040EA
:102DE000216808612068406920F02A002168486154
:102DF0002068C06840F400502168C860002060640A
:102E0000202084F8410084F842000020606300BF65
:102E1000C8E7000010B586B0044600200290039079
:102E2000049005901E492068884236D100BF1D4895
:102E3000C06940F480201B49C8610846C06900F49D
:102E40008020019000BF00BF00BF0846806940F0AD
:102E5000080088610846806900F00800019000BF02
:102E600000BF08150290022003900320059002A9DC
:102E70000D48FEF72BFA4FF40060029000200390FB
:102E8000049002A90848FEF721FA002211462720E3
:102E9000FEF720FE2720FEF70DFE06B010BD000055
:102EA0000048004000100240000C014070B504468C
:102EB0000D46164694F8420020280BD105B10EB9F4
:102EC000012070BD0020206332462946204601F0D3
:102ED000B9FDF6E70220F4E710B504461C49206866
:102EE000884233D11B48007868B91B4800785B28BA
:102EF00027D11A48007820BB01201649087000200D
:102F0000174908701DE013480078012819D11248AC
:102F100000785D280AD100200E4908701149104A36
:102F20001278885401200D4908700AE00A48007898
:102F30000C490B4A1278885409480078401C08490B
:102F40000870012204490848FFF7B0FF10BD0000D7
:102F5000004800402401002026010020E00000205D
:102F60002501002030020020080400202DE9F84F40
:102F700004460E46174699464FF0000A94F8410061
:102F8000202850D106B117B90120BDE8F88F0020E4
:102F90006064212084F84100FEF736FB8246A78456
:102FA000E784A068B0F5805F04D1206910B90025DE
:102FB000B04602E035464FF000081EE053460022BE
:102FC00080212046CDF8009001F08CFD20B120201A
:102FD00084F841000320D8E745B9B8F80000C0F3F1
:102FE00008002168486008F1020803E02878216899
:102FF00048606D1CE08C401EE084E08C0028DDD130
:103000005346002240212046CDF8009001F06AFD91
:1030100020B1202084F841000320B6E7202084F866
:1030200041000020B1E70220AFE7704700BFFEE794
:10303000014608684069C0F38020B0B16FF4806039
:103040000A68506100200863202081F83D000020BC
:1030500081F83E00086C40F00400086400BF0020C6
:1030600081F83C0000BF012070470020FCE7000011
:103070002DE9F8430446884615469946DDE9086778
:103080002068006840F480702168086033460022A0
:103090004FF001112046009700F08DF860B12068D4
:1030A000006800F48070B0F5807F02D14FF40070AA
:1030B00020640320BDE8F88308F0FE002168086161
:1030C0003B4632462149204600F0D4F808B10120A1
:1030D000F0E700BF00200090206840690090206861
:1030E0008069009000BF00BF3A463146204600F09C
:1030F0003EF950B1206C042805D12068006840F4E6
:103100000070216808600120D4E7B9F1010F03D1F4
:10311000E8B22168086117E0C5F30720216808615B
:103120003A463146204600F022F950B1206C04287E
:1031300005D12068006840F4007021680860012013
:10314000B8E7E8B2216808610020B3E70200010097
:1031500070B504460D46164625E02046FFF768FF89
:1031600008B1012070BD681CE8B1FEF74DFA801B64
:10317000A84200D8BDB920684069C0F3800090B96A
:1031800000202063202084F83D00002084F83E00C9
:10319000206C40F02000206400BF002084F83C0038
:1031A00000BF0120DEE720684069C0F380000028EE
:1031B000D3D00020D6E72DE9F04104460D4617464E
:1031C0001E46DDF8188038E0701CA8B3FEF71CFA24
:1031D000A0EB0800B04200D876BBC5F30740012839
:1031E0000AD120684069A9B20840A9B2884201D139
:1031F00001200BE0002009E020688069A9B20840A6
:10320000A9B2884201D1012000E00020B84214D1C7
:1032100000202063202084F83D00002084F83E0038
:10322000206C40F02000206400BF002084F83C00A7
:1032300000BF0120BDE8F081FFE7C5F3074001288A
:103240000AD120684069A9B20840A9B2884201D1D8
:1032500001200BE0002009E020688069A9B2084045
:10326000A9B2884201D1012000E00020B842ABD0D1
:103270000020DFE72DE9F04104460D4616461F46C3
:1032800058E020684069C0F38020E8B120680068F9
:1032900040F40070216808606FF480602168486124
:1032A00000202063202084F83D00002084F83E00A8
:1032B000206C40F00400206400BF002084F83C0033
:1032C00000BF0120BDE8F081701C90B3FEF79CF9AF
:1032D000C01BB04200D866BBC5F3074001280AD125
:1032E00020684069A9B20840A9B2884201D10120F2
:1032F0000BE0002009E020688069A9B20840A9B26B
:10330000884201D1012000E0002090B90020206314
:10331000202084F83D00002084F83E00206C40F01E
:103320002000206400BF002084F83C0000BF012082
:10333000C8E7FFE7C5F3074001280AD120684069C4
:10334000A9B20840A9B2884201D101200BE00020B7
:1033500009E020688069A9B20840A9B2884201D179
:10336000012000E0002000288BD00020AAE770B5E3
:1033700004460D46164625E02046FFF759FE08B1E3
:10338000012070BD681CE8B1FEF73EF9801BA84221
:1033900000D8BDB920684069C0F3C01090B90020C2
:1033A0002063202084F83D00002084F83E00206C3B
:1033B00040F02000206400BF002084F83C0000BFE3
:1033C0000120DEE720684069C0F3C0100028D3D098
:1033D0000020D6E710B56420FDF704FF012000F0BF
:1033E00085F8012000F078F83220FDF70FFF10BDBE
:1033F00010B508210448FEF7F9F804460A20FDF745
:1034000005FF204610BD0000000C014010B5012052
:1034100000F06CF8012000F05FF8FFF7E9FF0446C8
:10342000002000F059F8204610BD70B5002501209D
:1034300000F05CF800240DE0012000F04DF8FFF7EB
:10344000D7FF10B1802020410543002000F044F850
:10345000601CC4B2082CEFDB284670BD10B50446D2
:10346000204600F043F8012000F036F8002000F07C
:1034700033F810BD70B50546002411E080212141CC
:10348000294009B1012100E00021084600F02EF892
:10349000012000F021F8002000F01EF8601CC4B2EA
:1034A000082CEBDB70BD10B5012000F01FF80120E7
:1034B00000F012F8002000F019F8002000F00CF8DD
:1034C00010BD10B5002000F011F8012000F004F844
:1034D000012000F00BF810BD10B504462246102163
:1034E0000148FEF78BF810BD000C014010B50446F2
:1034F000224608210148FEF781F810BD000C01406A
:103500000749016007494160074981600021C160A6
:103510000161416100228261C26102627047000064
:103520006F12833AA69B443B8FC2F53C2DE9F05FB6
:1035300004460E46154630462169FCF7A5FE804636
:103540002946FCF7A7FE0746E168FCF74BFEE06062
:103550002846216AFCF79EFE8346A169FCF794FE8B
:103560008246E169FCF790FE81462168FCF73AFE4D
:1035700080462946FCF78EFE07466169FCF732FE5D
:1035800060612846216AFCF785FE0746A169FCF7C1
:103590007EFEA0612846216AFCF77CFE0746E169B1
:1035A000FCF775FEE06129466068FCF773FE07468C
:1035B000216AFCF717FE2062BDE8F09F2DE9FE4F5F
:1035C00004460D46A1686069FCF70CFE8246514630
:1035D0006069FCF791FE01905146E069FCF78CFEB2
:1035E00002902846E168FCF74FFE0090DDE90010EC
:1035F000FCF750FE8346E168FCF7F4FDE0600099BB
:103600000298FCF747FE83462169FCF7EBFD206139
:103610006669A769D4F81C80D4F820904FF07E50DA
:103620000199FCF731FE83463146FCF733FE6061B9
:103630004FF07E500199FCF727FE83463946FCF790
:1036400029FEA06131460298FCF724FE83464146DC
:10365000FCF71DFEE06139460298FCF71BFE83462D
:103660004946FCF714FE2062BDE8FE8F70B50446A3
:103670000D46002C0BDA012251031F48FDF7BEFF57
:1036800000224FF480511C48FDF7B8FF0AE00022E9
:103690004FF400511848FDF7B1FF012211031648FD
:1036A000FDF7ACFF201E01DB014600E04142134A5A
:1036B00012681164002D0BDA012291030E48FDF708
:1036C0009DFF00224FF400410B48FDF797FF0AE0F1
:1036D00000224FF480410848FDF790FF0122D103FA
:1036E0000548FDF78BFF281E01DB014600E0414243
:1036F000024A1268516370BD000C0140E8020020CC
:103700001CB500200090684603F02AF910B14FF074
:10371000FF301CBD02F0C6FC10B14FF0FF30F8E7DF
:103720000A2002F0B5FD10B14FF0FF30F1E74FF481
:10373000A874204602F05EFB10B14FF0FF30E8E7BE
:10374000002002F0DDFD10B14FF0FF30E1E7012075
:1037500003F0BCFC10B14FF0FF30DAE70020D8E7EF
:1037600001480068704700002800002001480068F8
:10377000704700003800002010B5FFF72BFE8021B5
:103780006B2000F08FFB6420FDF72CFD00216B20E7
:1037900000F088FB0721192000F084FB00211A208B
:1037A00000F080FB18211B2000F07CFB00211C2076
:1037B00000F078FB10BD000010B50948007820B17A
:1037C000012805D0022809D105E000F00BF805E03A
:1037D00000F0E0F802E000F08FFA00BF00BF10BD7B
:1037E000440000202DE9F04F87B000F009FA5B4853
:1037F0000068FCF78FFF8246594A5A4BFCF761FE7E
:1038000006460F4658480068FCF784FF804632465B
:103810003B46FCF7AFFD0446FCF7A8FF0690534873
:103820000068FCF777FF80464D4A4E4BFCF749FE97
:1038300082468B464E480068FCF76CFF06465246AF
:103840005B46FCF797FD0446FCF790FF059049485E
:103850000068FCF75FFF8046414A424BFCF731FEAF
:1038600004460D4644480068FCF754FF06462246CD
:103870002B46FCF720FE8246FCF778FF04903F4879
:103880000068FCF747FFCDE900013D480068FCF700
:1038900041FF8246DDE9002302F058F806464FF06A
:1038A0006042384BFCF77FFE04460022364BFCF7A3
:1038B00008FE8046FCF75AFF039030480068FCF78A
:1038C00029FF04460D4631480068FCF723FF0646F1
:1038D00022462B4602F03AF84FF06042294BCDE9E0
:1038E0000001FCF760FE80460022274BFCF7E9FD53
:1038F0008246FCF73BFF02901B490698086024486B
:1039000001684FF07E50FCF7BFFC06460399FCF7B8
:10391000C1FC04461E4805990068FCF7BBFC05463F
:103920002146FCF75FFC12490860194801684FF016
:103930007E50FCF7A9FC06460299FCF7ABFC044656
:10394000134804990068FCF7A5FC05462146FCF7DE
:1039500049FC0949086007B0BDE8F08F300000203D
:103960007B14AE47E17A743F340000202800002029
:10397000380000202C0000203C0000202000002007
:103980001C000020F0210940008066401800002043
:10399000400000202DE9FF5F00F032F95C4800682C
:1039A000FCF7B8FE06460F465A480068FCF7B2FE20
:1039B000804632463B4601F0C9FF4FF06042564B0D
:1039C000CDE90001FCF7EFFD04460022534BFCF764
:1039D00078FD8246FCF7CAFE03904D480068FCF76C
:1039E00099FE06460F464E480068FCF793FE804657
:1039F00032463B4601F0AAFF04464FF06042464B78
:103A0000FCF7D1FD82460022444BFCF75AFDCDE97C
:103A10000001FCF7ABFE029042480068FCF77AFE1A
:103A20000646414A414BFCF74CFD04460D464048D2
:103A30000068FCF76FFE804622462B46FCF79AFC96
:103A40008246FCF793FE3B4908603B480068FCF760
:103A500061FE8246344A354BFCF733FD06460F467D
:103A600036480068FCF756FE804632463B46FCF777
:103A700081FC0446FCF77AFE314908603148006851
:103A8000FCF748FE8246284A284BFCF71AFD0446FC
:103A90000D462D480068FCF73DFE064622462B46A3
:103AA000FCF709FD8046FCF761FE284908602848BC
:103AB000007840B92748FFF723FD2748FFF720FD8E
:103AC000012023490870254A1B4801682148FFF757
:103AD0002DFD20480399FFF771FD1A48006880F01A
:103AE00000441E4A21461C48FFF720FD1A4802994F
:103AF000FFF764FD0F4800680D4908601548C0686D
:103B00000E4908601448C0680F490860BDE8FF9F6F
:103B1000200000201C000020F021094000806640A9
:103B200018000020300000207B14AE47E17A743F7B
:103B30003400002048000020280000203800002029
:103B40004C0000202C0000203C00002050000020F1
:103B50005400002044010020680100200AD7A33B44
:103B60002DE9F04107460E461546FFF79CFCD02094
:103B7000FFF780FCFFF74AFC3846FFF77BFCFFF7B6
:103B800045FCFFF790FCD120FFF774FCFFF73EFCEB
:103B900000240EE0FFF749FC3055681EA04203DD0B
:103BA0000020FFF75BFC02E00120FFF757FC601CE0
:103BB000C4B2AC42EEDBFFF784FCBDE8F08100004C
:103BC00010B504460D480078844200D110BD022C87
:103BD00007D1FFF795FD00B1F8E70220074908700B
:103BE0000AE006480078022802D1002003F06EFAAD
:103BF000FFF7C2FD0148047000BFE7E74400002062
:103C00002DE9FF470E2269463B20FFF7A9FF9DF8EB
:103C100001009DF8001040EA012004B29DF8030065
:103C20009DF8021040EA012005B29DF805009DF8BC
:103C3000041040EA012006B29DF809009DF8081022
:103C400040EA012007B29DF80B009DF80A1040EAF7
:103C500001200FFA80F89DF80D009DF80C1040EA45
:103C600001200FFA80F92046FCF70CFD82461A4924
:103C7000FCF710FB194908602846FCF703FD824653
:103C80001549FCF707FB164908603046FCF7FAFCBB
:103C900082461149FCF7FEFA124908603846FCF7E3
:103CA000F1FC82461049FCF7F5FA104908604046DD
:103CB000FCF7E8FC82460C49FCF7ECFA0C4908607A
:103CC0004846FCF7DFFC82460749FCF7E3FA09495E
:103CD0000860BDE8FF870000D5FF7F38180000208E
:103CE0001C00002020000020D6FF793D2800002085
:103CF0002C000020300000202DE9F04F91B006A8E4
:103D000007A908AB09AACDE900100DA90FA802F078
:103D1000D5F900287ED1BDF81C0000F48070002881
:103D200078D00998FCF7AEFC05464FF09D41FCF7B2
:103D3000E3FA05900A98FCF7A5FC05464FF09D4173
:103D4000FCF7DAFA04460B98FCF79CFC05464FF0AA
:103D50009D41FCF7D1FA81460C98FCF793FC05468F
:103D60004FF09D41FCF7C8FA824649464846FCF7A9
:103D700091FA214604902046FCF78CFA03900499AE
:103D8000FCF730FA83464FF08041FCF783FA804617
:103D90004FF07E51FCF77BFA064651464846FCF749
:103DA00079FA834621460598FCF774FA594604903F
:103DB000FCF718FA80464FF08041FCF76BFA074693
:103DC000314601F083FE05463049FCF763FA30497D
:103DD000086021465046FCF75DFA49460290059876
:103DE000FCF758FA01900299FCF74EFA4FF0804127
:103DF0000390FCF74FFA049001F006FC8346FCF7B1
:103E000089FC0746234A244BFCF75BFB0546FCF77D
:103E1000ADFC00E036E02149086051465046FCF711
:103E200039FA494604904846FCF734FA039004995D
:103E3000FCF7D8F983464FF08041FCF72BFA804617
:103E40004FF07E51FCF723FA064649462046FCF720
:103E500021FA834651460598FCF71CFA594604900E
:103E6000FCF7C0F980464FF08041FCF713FA074693
:103E7000314601F02BFE05460449FCF70BFA0849D0
:103E8000086000BF11B0BDE8F08F0000E12E654270
:103E90003C000020CB67791EDCA54C403800002098
:103EA0003400002070B505460C46FFF7FCFAD02020
:103EB000FFF7E0FAFFF7AAFA2846FFF7DBFAFFF769
:103EC000A5FA2046FFF7D6FAFFF7A0FAFFF7F9FAAE
:103ED00070BD000000B585B00020019002900390F5
:103EE000049000BF3D48806940F010003B49886164
:103EF0000846806900F01000009000BF00BF00BFBE
:103F00000846806940F0200088610846806900F01A
:103F10002000009000BF00BF00BF0846806940F04D
:103F2000040088610846806900F00400009000BF2A
:103F300000BF00BF0846806940F00800886108465D
:103F4000806900F00800009000BF00BF0022082137
:103F50002348FDF753FB00224FF470412148FDF741
:103F60004DFB012218211F48FDF748FB042001905A
:103F70001D4802900020039001A91948FDF7A6F9F9
:103F8000082001900120029003900320049001A9D1
:103F90001348FDF79BF94FF4704001900120029007
:103FA000002003900220049001A90E48FDF78EF92D
:103FB000182001901120029001200390022004900B
:103FC00001A90848FDF782F9002211460820FDF7F3
:103FD00081FD0820FDF76EFD05B000BD0010024018
:103FE00000080140000C01400000311010B50B48E2
:103FF0000B4908600B484860002109488160C16096
:104000004FF480410161002141618161C161016220
:10401000FDF700FB08B1FDF75FF810BD005400404C
:1040200094020020A086010000B591B000200F90FE
:1040300010901C2108A8FCF78CF820216846FCF79A
:1040400088F8274827490860002048600021254853
:1040500081606321C1600021016141618161FEF7DE
:1040600073FC08B1FDF738F800200F9010900FA9ED
:104070001C48FEF72BF908B1FDF72EF860200890D8
:104080004FF4E150099000200A900B900C900D9095
:104090000E90002208A91348FEF7D4FB08B1FDF7E3
:1040A0001BF80C2208A90F48FEF7CCFB08B1FDF75E
:1040B00013F80020009001900290039004904FF4B8
:1040C000005005900020079069460648FEF7C4F8A6
:1040D00008B1FDF701F80348FEF788FB11B000BDF9
:1040E000002C0140E802002000B58BB0242102A87A
:1040F000FCF72FF80020009001904FF08040174906
:104100000860002048600021144881604FF6FF716C
:10411000C1600021016181610320029000200390B1
:10412000012004900020059006900790012008903F
:10413000002009900A9002A90848FEF72AFA08B15F
:10414000FCF7CAFF00200090019069460348FEF783
:10415000BDF808B1FCF7C0FF0BB000BD3003002074
:1041600000B587B000200390049005900690019060
:104170000290144814490860472048600021124802
:1041800081604FF6FF71C160002101618161FEF71E
:10419000DFF808B1FCF7A0FF4FF48050039003A9AB
:1041A0000948FEF770F908B1FCF796FF002001906E
:1041B000029001A90448FEF789F808B1FCF78CFFCA
:1041C00007B000BD000400407803002000B58BB0AC
:1041D000242102A8FBF7BDFF0020009001901848A1
:1041E00018490860002048600021164881604FF699
:1041F000FF71C160002101618161032002900020F4
:104200000390012004900020059006900790012063
:104210000890002009900A9002A90A48FEF7B9F90F
:1042200008B1FCF759FF002000900190694605484D
:10423000FEF74CF808B1FCF74FFF0BB000BD0000D3
:1042400000080040C003002010B50B480B4908606F
:104250004FF416504860002108488160C160016138
:104260000C21416100218161C161FEF797FD08B118
:10427000FCF732FF10BD0000004800400804002099
:1042800000BFFEE700BFFEE770B5002415E004F1B3
:10429000B001C8B200F026F8002000F023F810208A
:1042A00000F020F8002504E0002000F02FF8681C42
:1042B000C5B2802DF8DB601CC4B2082CE7DB70BDF2
:1042C00010B5C820FCF78EFF002400BF05E00449AC
:1042D000085D00F007F8601CC4B2172CF7DB10BDB6
:1042E0000000002001B584B04FF48070012104AAC1
:1042F0000B46CDE900210290002278210248FDF70B
:1043000071FA05B000BD00009402002001B584B030
:104310004FF48070012104AA0B46CDE900210290E0
:10432000402278210248FDF75DFA05B000BD00008B
:10433000940200202DE9F0410446D4E90301FBF783
:10434000A3FF606161692068FBF7A4FF074661690C
:10435000E069FBF747FFE061E1696068FBF79AFFFE
:104360008046D4E90701FCF727FA01D2206AE06110
:10437000206A80F000452846E169FCF71DFA03D267
:10438000206A80F00040E061616AA068FBF782FF6C
:10439000064641463846FBF725FF05463146FBF702
:1043A00021FFA062D4E90A01FCF706FA01D2E06A13
:1043B000A062E06A80F000452846A16AFCF7FCF99B
:1043C00003D2E06A80F00040A062BDE8F08170474F
:1043D00008B508490968C9084FF47A72B1FBF2F1CF
:1043E0004143009100BF00BF00994A1E009200297E
:1043F000F9D108BD34010020704700002DE9F041DB
:104400001C480078012833D11BA11C48FBF7C8FECB
:1044100006461BA13046FBF7A7FE002824D116A1B3
:10442000FBF7BEFE074614A10020FBF7B9FE80464D
:1044300015A13846FBF798FE40B9404601F074FCE0
:104440000446FCF793F9134908600CE012A13846C2
:10445000FBF78AFE38B9404601F066FC0446FCF7DB
:1044600085F90C49886000BF00200249087000BF30
:10447000BDE8F081E00000202C00000030020020A8
:10448000736C696465720000616E676C655F6B7068
:1044900000000000EC000020616E676C655F6B64DB
:1044A0000000000010B5FDF795FA10BD00B58FB003
:1044B000282105A8FBF74DFE14216846FBF749FEAD
:1044C000012005900004069000200790012009902B
:1044D00002200C90C1030D914FF4E0110E9105A83C
:1044E000FDF76EFC08B1FCF7F7FD0F2000900220ED
:1044F0000190002002904FF480600390002004900F
:1045000002216846FDF738FB08B1FCF7E5FD0FB066
:1045100000BD704710B502681C4B984208D0B0F13E
:10452000804F05D01A4B984202D01A4B984203D1C3
:1045300022F070024B681A43144B984208D0B0F135
:10454000804F05D0124B984202D0124B984203D1B3
:1045500022F44072CB681A4322F080034C6943EA8C
:10456000040202608B68C3620B688362074B984247
:1045700001D10B69036301234361036903F0010364
:104580001BB1036923F00103036110BD002C01403E
:10459000000400400008004030B501F01F05012470
:1045A00004FA05F3046A9C430462046A01F01F05DF
:1045B00002FA05F52C43046230BD30B50C46816823
:1045C00021F47F4142EA032525432943816030BD20
:1045D0000A46816821F0700142F0070319438160A7
:1045E0007047000030B5026A056A25F001050562D2
:1045F0004368846924F0700424F003040D682C439C
:1046000022F002028D682A430D4DA84206D100BF58
:1046100022F00802CD682A4322F00402084DA84285
:1046200007D123F4807323F400734D692B438D6904
:104630002B43436084614D684563026230BD0000D6
:10464000002C014030B5026A056A25F010050562AC
:104650004368846924F4E04424F440740D6844EA17
:10466000052422F020028D6842EA05120E4DA84270
:1046700007D100BF22F08002CD6842EA051222F085
:104680004002094DA84209D123F4806323F400635A
:104690004D6943EA85038D6943EA8503436084617C
:1046A0004D688563026230BD002C014030B5026A5E
:1046B000056A25F4807505624368C46924F07004B6
:1046C00024F003040D682C4322F400728D6842EA42
:1046D00005220F4DA84207D100BF22F40062CD6829
:1046E00042EA052222F48062094DA84209D123F44E
:1046F000805323F400534D6943EA05138D6943EA5F
:1047000005134360C4614D68C563026230BD00009B
:10471000002C014030B5036A056A25F48055056216
:104720004468C26922F4E04222F440720D6842EA11
:10473000052223F400538D6843EA0533064DA84251
:1047400004D124F480444D6944EA85144460C26174
:104750004D680564036230BD002C014030B50B4646
:104760001446026A056A25F001050562816921F097
:10477000F00141EA041122F00A021A438161026247
:1047800030BD30B50B461446026A056A25F01005A7
:104790000562816921F4704141EA043122F0A002EE
:1047A00042EA03128161026230BD70B505466C6A4F
:1047B0000020E085E0842046FEF77DF970BD00BF53
:1047C00000BF02680C3252E8002F22F49071026898
:1047D0000C3242E80013002BF3D100BF00BF00BF32
:1047E0000268143252E8002F22F0010102681432EC
:1047F00042E80013002BF3D100BF016B01290ED159
:1048000000BF00BF02680C3252E8002F22F01001F6
:1048100002680C3242E80013002BF3D100BF2021C4
:1048200080F8421000210163704710B504462068EB
:10483000C06820F040002168C860202084F8410052
:104840002046FEF7F2FB002010BDF8B5044694F8B0
:104850004200222875D1A068B0F5805F0CD1206994
:1048600050B90025A66A20684068C0F3080030806F
:10487000A06A801CA06215E0A56A0026A068B0F5B9
:10488000805F03D0A06828B9206918B92068406803
:10489000287004E02068406800F07F002870A06A5B
:1048A000401CA062E08D401E80B2E085002846D109
:1048B0002068C06820F020002168C8602068C068B7
:1048C00020F480702168C8602068406920F00100F1
:1048D00021684861202084F8420000206063206B3A
:1048E000012826D10020206300BF00BF21680C31C1
:1048F00051E8001F21F0100021680C3141E800024E
:10490000002AF3D100BF2068006800F010001028D2
:104910000AD100BF00200090206800680090206845
:104920004068009000BF00BFA18D2046FEF7C2F88E
:1049300002E02046FEF7D0FA0020F8BD01E000209A
:10494000FBE70220F9E7000070B504462168096919
:1049500021F44051E2681143226811612269A16883
:104960001143626941EA02052168C96841F20C629B
:10497000914329432268D1602168496921F440713B
:10498000A2691143226851612D4A2168914202D1E6
:10499000FDF7CEF901E0FDF7BBF900EBC00101EB3B
:1049A000001162689200B1FBF2F100EBC00202EB71
:1049B000001263689B00B2FBF3F26423B2FBF3F2D4
:1049C00002EBC20303EB0212A1EB8201322202EBE3
:1049D00001116422B1FBF2F101F0F00100EBC00221
:1049E00002EB001263689B00B2FBF3F26423B2FB9C
:1049F000F3F201EB021200EBC00101EB001163685E
:104A00009B00B1FBF3F100EBC00303EB00136668FE
:104A1000B600B3FBF6F36426B3FBF6F303EBC30671
:104A200006EB0313A1EB8301322303EB0111642393
:104A3000B1FBF3F101F00F0111442268916070BDE8
:104A40000038014010B5034699629A85DA85002046
:104A50005864222083F84200186928B11868C06899
:104A600040F480701C68E0601868406940F0010004
:104A70001C6860611868C06840F020001C68E06035
:104A8000002010BD014691F84100212828D18868F6
:104A9000B0F5805F0BD1086948B90A6A1088C0F385
:104AA00008000B685860086A801C086205E00B6A01
:104AB000581C086218780B685860C88C401E80B279
:104AC000C88458B90868C06820F080000B68D860B6
:104AD0000868C06840F040000B68D860002070474C
:104AE0000220FCE72DE9F84304460D461746984698
:104AF000089E31E0701C70B3FCF786FDA0EB080047
:104B0000B04200D816B90320BDE8F8832068C06819
:104B100000F00400F8B1802D1ED0402D1CD020687C
:104B20000068C0F3C000B0B100BF00200090206852
:104B30000068009020684068009000BF00BF2046D9
:104B4000FFF73DFE0820606400BF002084F84000AD
:104B500000BF0120D8E7FFE7206800682840A8428E
:104B600001D1012000E00020B842C3D00020CBE7F3
:104B700010B50248FDF7A0FF10BD0000080400209A
:104B800000BFFEE70FB4054B10B503A9044A029815
:104B900000F0A2F910BC5DF814FB000015670008D6
:104BA0003C010020490050EAC12018BF04204A0DF2
:104BB00018BF40F0010040F2FF72B2EB515F08BF36
:104BC00040F00200012808BF05207047410008029C
:104BD00018BF04200A0E18BF40F001004FF07F42BA
:104BE00032EA010108BF40F00200012808BF052099
:104BF0007047000002480068C0F3022070470000C0
:104C00000CED00E010B5002804DB0A07130E054A7E
:104C1000135406E00A07140E034A00F00F031B1F8B
:104C2000D45410BD00E400E018ED00E02DE9F0419F
:104C30004F1E00EBC7010446D1E9000115461E4690
:104C400037F006020DD02A463346FBF73AFC7F1EAA
:104C500004EBC703D3E90023FBF78CFB37F0060214
:104C6000F1D1022F25D0042F13D0062F18BFBDE895
:104C7000F0812A463346FBF724FCD4E90A23FBF7EC
:104C800079FB2A463346FBF71CFCD4E90823FBF7E3
:104C900071FB2A463346FBF714FCD4E90623FBF7E5
:104CA00069FB2A463346FBF70CFCD4E90423FBF7E7
:104CB00061FB2A463346FBF704FCD4E90223FBF7E9
:104CC00059FB2A463346FBF7FCFBD4E90023BDE839
:104CD000F041FBF74FBB0122FCF7FDB8FBF74ABBE5
:104CE000024A00201107FCF7F6B8000001FDFFFFA3
:104CF0000121FBF758BEFBF775BA00210846FBF708
:104D0000FBBA6FF05E010807FBF74DBE0148006873
:104D1000704700004001002002E008C8121F08C1CF
:104D2000002AFAD170477047002001E001C1121F2C
:104D3000002AFBD17047000001490860704700005D
:104D4000400100202DE9FF5F82B00021DDE9043041
:104D5000020DDDF840B0034318D044F61050A2F223
:104D6000FF3242431514119801281FD0A5EB0B0008
:104D7000401C5FEA000A4FF000064E4FDFF8389102
:104D8000B046504615D5CAF1000413E0119801242D
:104D90004AA3012801D16FEA0B010298119AC0E9D8
:104DA0000031C0E9024206B0BDE8F09FCBF100003F
:104DB000DFE704460021404A491842EB0450CDE9A0
:104DC000001012E0E00707D032463B464046494615
:104DD000FBF777FB8046894632463B46104619462C
:104DE000FBF76FFB06460F466410002CEAD1DDE9A5
:104DF0000401DDE90023BAF1000F06DAFBF761FBDD
:104E000042464B46FBF75DFB05E0FBF7CCFB424619
:104E10004B46FBF7C8FB04460E460022284BFBF727
:104E20008DFC03D84FF0FF30014607E00022254BF0
:104E300020463146FBF79EFAFBF71EFE102409E0E0
:104E4000002C0ADB0A220023FBF7D6FC039B30323E
:104E50001A55641E50EA0102F2D1641C039AC4F18F
:104E600011031444119A012A03D0012208430DD1E1
:104E70000AE0084304D000204FF0110B119072E7B4
:104E8000A3EB0B056D1E0DE05B4504DD4FF000024A
:104E900005F1010504E003DA4FF00002A5F1010578
:104EA000002AECD002981199C0E90231C0E900450E
:104EB00079E70000000014400000F03F30000000DF
:104EC0000000F0430000E03F30380A2801D2012002
:104ED00070470020704700002DE9FF4F95B09B46BA
:104EE0008946064600250FE2252877D1002427466B
:104EF000F84A0121059400E0044316F8013F203BE5
:104F000001FA03F01042F7D130782A2811D06FF05F
:104F10002F033078A0F13002092A16D8059A44F000
:104F2000020402EB820203EB42021044761C05905D
:104F3000EFE759F8042B0592002A03DA504244F4B3
:104F40000054059044F00204761C30782E2816D1C7
:104F500016F8010F44F004042A280DD06FF02F0238
:104F60003078A0F13003092B09D807EB870302EB57
:104F70004303C718761CF3E759F8047B761C307896
:104F80006C280FD006DC4C2817D068280DD06A2872
:104F900014D104E0742810D07A280FD10DE044F425
:104FA00000140AE044F4801401E044F440147278E0
:104FB000824202D104F58014761C761C3078662873
:104FC0000BD013DC582877D009DC002875D0452891
:104FD000F6D04628F4D047281AD19DE118E063287E
:104FE00035D0642879D0652812D195E1702873D026
:104FF00008DC6728F1D069286FD06E280DD06F28A3
:1050000006D1B5E073282CD0752875D0782874D0D7
:105010005A46179990476D1C75E1C4F30250022857
:1050200009D003280DD0D9F8001004280DD00D6048
:1050300009F1040967E1D9F80010EA17C1E9005243
:10504000F6E7D9F800100D80F2E70D70F0E719F8D7
:10505000041B8DF8001000208DF80100EA460120A5
:1050600003E059F804AB4FF0FF3061074FF0000147
:1050700002D40DE008F101018846B9420FDA8045FB
:10508000F8DB1AF808100029F4D108E008F1010152
:1050900088468142FADB1AF808100029F6D10598F3
:1050A0005B46A0EB080721463846179A00F094FAB1
:1050B000284400EB080507E04DE029E10DE01AF86F
:1050C000010B5A4617999047B8F10108F7D25B4691
:1050D00021463846179A13E142E00A220092C4F3AF
:1050E00002524FF0000A022A08D059F804CB032AD2
:1050F0004FEAEC710AD00DE029E02AE009F107013E
:1051000021F00702F2E802C1914609E00FFA8CFC97
:105110004FEAEC71042A03D14FFA8CFC4FEAEC7190
:10512000002907DA0A460021DCF1000C61EB0201DC
:105130002D2202E0220504D52B228DF80420012225
:1051400003E0E20701D02022F7E7904659E00A2168
:1051500002E010220DE010214FF0000A00910BE058
:1051600010224FF0000A44F004040827009203E0E4
:1051700008224FF0000A0092C4F30252022A05D01E
:1051800059F804CB0021032A08D009E009F10701EE
:1051900021F00702F2E802C1914605E01FFA8CFCFB
:1051A000042A01D10CF0FF0C4FF00008220728D58B
:1051B000702806D0009B83F0100353EA0A0305D041
:1051C0000EE040228DF80420012208E05CEA010292
:1051D00006D030228DF804208DF80500022290467A
:1051E000009B83F0080353EA0A030AD15CEA010238
:1051F00001D1620705D530228DF804204FF0010857
:105200007F1E582804D034A003900EA802900DE011
:1052100036A0F9E753466046009AFBF7EDFA84465C
:105220000398825C0298401E029002705CEA0100C2
:10523000F0D1029806A9081A00F1200A600702D5E9
:1052400024F4803400E00127574502DDA7EB0A0073
:1052500000E0002000EB0A01009005984144401A4C
:105260000590E00306D45B462146179A059800F0A6
:10527000B3F90544002706E001A85A46C05D179916
:1052800090476D1C7F1C4745F6DBE0030CD55B4661
:105290002146179A059800F09FF9054404E0302054
:1052A0005A46179990476D1C0099481E0090002996
:1052B000F5DC08E0029802995A460078491C0291F0
:1052C000179990476D1CBAF10001AAF1010AF1DCAF
:1052D00065E10000092801003031323334353637BA
:1052E0003839616263646566000000003031323332
:1052F00034353637383941424344454600000000D2
:1053000000F058F90544761C307800287FF4ECADA5
:1053100019B02846BDE8F08F620700D4062709F1CE
:10532000070222F0070CFCE80223E14603F00048E4
:105330005FEA080C02D00FF2702C0DE05FEA045C0B
:1053400002D50FF2682C07E05FEAC47C02D00FF2AE
:10535000602C01E0AFF2700C4FF0FF3823F00043F7
:10536000CDF850C065280CD006DC452809D0462869
:105370001DD047283DD13DE0662818D067287ED152
:1053800038E00021112F01DB112000E0781CCDE96D
:10539000000106A90EA8FFF7D5FCDDE90F010E9A62
:1053A00003910021009207F1010A04914DE04FF0B2
:1053B00000400097CDE9011006A90EA8FFF7C2FC36
:1053C000DDE90F0203920E9B11990022DDF80CA07B
:1053D0000093049211B9791C00EB010AB7EB0A00A3
:1053E00004D4C0F1FF3007F1010A0490AAEB0700D2
:1053F000019044E0012F00DA01270021112F01DD87
:10540000112000E03846CDE9000106A90EA8FFF7FB
:1054100099FCDDE90F010E9A03910021049100929D
:10542000BA4621070CD40399514500DA8A46BAF1ED
:10543000010F05DD009AAAF10101515C302908D065
:10544000B84202DA10F1040F06DA0121CDE90110A9
:1054500015E0AAF10101E9E7002805DC04990144FF
:105460000491AAEB000102E0411C514500DD8A468F
:105470000499401A401C01904FF000400290200710
:1054800004D40198504501DBCDF8048000208DF84C
:105490004F0002980DF14F07B0F1004F25D02B209F
:1054A0000E9002984FF0020800280CDA4042029059
:1054B0002D200E9007E00A210298FBF787F9303182
:1054C000029007F8011DB8F10001A8F10108F2DC13
:1054D00002980028EFD1791E0E980870307800F0FD
:1054E000200040F0450007F8020D12A8C01B00F193
:1054F00007081498007800B1012000EB0A01019818
:1055000001EBE07105984144401A401E0590E0030C
:1055100006D45B462146179A059800F05DF80544CD
:105520001498007818B15A46179990476D1CE003FB
:1055300024D55B462146179A059800F04DF805449E
:105540001CE00498002807DBDDE90301884203DD45
:105550000098405C179901E0179930205A4690470F
:10556000049805F10105401C04900198401E01902B
:1055700004D12E205A46179990476D1CBAF10001AC
:10558000AAF1010ADDDC05E017F8010B5A4617996C
:1055900090476D1CB8F10001A8F10108F4DC5B46EE
:1055A0002146179A0598ABE62D0000002B0000005D
:1055B000200000002DE9F041044600251E46174654
:1055C000880404D405E039462020B0476D1C641ED1
:1055D000F9D52846BDE8F0812DE9F04104460025C3
:1055E0001E469046C80301D5302700E020278804D6
:1055F00004D505E041463846B0476D1C641EF9D518
:105600002846BDE8F08100002DE9F04104464FF046
:105610000E4000EB4400B0F1506F204655D84FF0DB
:10562000FC41B1EB440F1CD224F000404FF07E51FE
:10563000FAF72DFE4FF0FF31FBF7B5F9054601F003
:1056400087FF14F0004F1DBF2F4F304E80F00040F9
:105650002F4F08BF2F4E4FF04041FAF71BFE044674
:1056600005E000273E460146FAF714FE05462A49A2
:105670002846FAF70FFE2949FAF7B4FD2946FAF74A
:1056800009FE2749FAF7AEFD2946FAF703FE254938
:10569000FAF7A8FD2946FAF7FDFD2349FAF7A2FD1E
:1056A000804629462046FAF7F5FD4146FAF7F2FD15
:1056B000054631462046FAF795FD2946FAF792FD50
:1056C0003946BDE8F041FAF78DBD4FF0E441B1EB4A
:1056D000440F08D9FFF77AFA042808BFFFF711FB37
:1056E0002046BDE8F0814FF07F41B1EB440F03D27B
:1056F000BDE8F041FFF7FCBA0120FFF71DFBBDE854
:10570000F041FFF7FABA00000000C9BF22AAFDB9B4
:105710000000C93F22AAFD3924FE1C3DC78AD83C9F
:105720001E67383D1B93993DAFAA2A3E2DE9F84FDD
:1057300004460D4621F0004000917349814211DC7E
:105740007249884201DC06D12CB120462946BDE8C9
:10575000F84FFFF7C0BA6E48002DCCBF6D496E49B7
:10576000BDE8F88F6D49814211DD6D498142D8BF96
:105770004FF0FF366DDD20462946FFF713FA042867
:1057800008BFFFF7ADFA20462946BDE8F88F654906
:10579000654F25F00045814233DD6449814219DDC2
:1057A000002632464FF0804320462946FAF7E2FDB4
:1057B00080468A46012220462946FBF78CFB0022C0
:1057C0003B46FAF778FE42465346FAF7ECFE0446AB
:1057D0000D463EE001260022BA463B4620462946B9
:1057E000FAF7C8FD80460F46002253462046294658
:1057F000FAF761FE42463B46FAF7D5FE04460D46EF
:1058000027E04B4981421BDDDFF828A10226002258
:10581000534620462946FAF754FE00223B46FAF743
:10582000A9FD80460F460022534620462946FAF736
:1058300042FE42463B46FAF7B6FE04460D4608E0F5
:10584000032622462B4600203B49FAF7ACFE0446CD
:105850000D4622462B4610461946FAF732FE8B4675
:10586000824602460B46FAF72CFE074602463348AC
:1058700088460B4606217844FFF7D8F952465B4626
:10588000FAF71FFE82462E488B463A4643460521CC
:105890007844FFF7CBF93A464346FAF712FE024640
:1058A0000B46002E504659460CDAFAF763FD2246A5
:1058B0002B46FAF706FE01B022462B46BDE8F04F14
:1058C000FAF7FCBDFAF756FD22462B46FAF7F9FD2A
:1058D0001C4A7A4402EBC603D3E90023FAF7EBFD36
:1058E00022462B46FAF7E7FD174A7A4402EBC60335
:1058F000D3E90023FAF7E2FD009A002AB8BF81F04D
:105900000041BDE8F88F0000000010440000F07F67
:10591000182D4454FB21F93FFB21F9BF0000DC3F67
:105920000000203E0000F33F0000F03F0000E63F93
:10593000008003400000F83F0000F0BFDE290000B7
:105940009C2900003A290000022900002DE9F04DB1
:105950009446CCF1000423F000464CEA0404524F74
:1059600046EAD4749A46884621F00042BC4206D8E2
:10597000454240EA050442EAD474BC4204D9BDE879
:10598000F04D6246FFF7AAB9AAF14055A5F17F652F
:1059900055EA0C040BD0022404EAAA74434DDFF844
:1059A00010E144EAD87452EA000B04D00CE0BDE8E0
:1059B000F04DFFF7BBBE002C14BF012CBDE8F08DED
:1059C000022C30D0032C32D056EA0C0B0AD0BE4247
:1059D00020D1BA4209D126F0804622F080423346D7
:1059E000114617E000291ADB25E0DFF8C8B0FB44B8
:1059F000002C04BFDBE90001BDE8F08D012C02BFE3
:105A0000DBE9000181F00041BDE8F08D022C0AD0F5
:105A1000032C0CD0BA4212D1B8F1000F0BDA234894
:105A20002549BDE8F08D28462449BDE8F08D28467B
:105A30007146BDE8F08D1D482149BDE8F08D921BEF
:105A400012153C2AC4BF19481D490EDCBAF1000FDB
:105A5000BEBF12F13C0F0020014606DB6246FAF79A
:105A6000A2FD21F00041FFF761FE002C08BFBDE858
:105A7000F08D012C04BF81F00041BDE8F08D114A8A
:105A8000114B022C07D0FAF716FD2A46BDE8F04D5F
:105A90000A4BFAF710BDFAF70EFD2A46BDE8F04DA5
:105AA000064BFAF70BBD00000000F07F182D4454A0
:105AB000FB2109C096280000FB21F9BFFB2109400A
:105AC000FB21F93F075C143326A6A13C2DE9F047E2
:105AD0004FF0684202EB40030C460546B3F1654FB8
